:020000040800F2
:1000000000000520352A0008B5220008B7220008A4
:10001000B9220008BB220008BD2200080000000031
:1000200000000000000000000000000091970008A0
:10003000BF220008000000003198000895980008D1
:10004000852A0008852A0008852A0008852A0008D4
:10005000852A0008852A0008852A0008852A0008C4
:10006000852A0008852A0008852A0008852A0008B4
:10007000852A0008852A0008852A0008852A0008A4
:10008000852A0008852A0008852A0008852A000894
:10009000852A0008852A0008852A0008852A000884
:1000A000852A0008852A0008852A0008852A000874
:1000B000852A0008852A0008852A0008852A000864
:1000C000852A0008852A0008852A0008852A000854
:1000D000852A0008852A0008852A0008852A000844
:1000E000852A0008852A0008852A0008852A000834
:1000F000852A0008852A0008852A0008852A000824
:10010000852A0008852A0008852A0008852A000813
:10011000852A0008852A0008C1220008852A0008CF
:10012000852A0008852A0008852A0008852A0008F3
:10013000852A0008CD220008852A0008852A0008A3
:10014000852A0008852A0008852A0008852A0008D3
:10015000852A0008852A0008852A0008852A0008C3
:10016000852A0008852A0008852A0008852A0008B3
:10017000852A0008852A0008852A0008000000005A
:10018000852A0008852A0008852A0008852A000893
:10019000852A0008852A0008852A0008852A000883
:1001A000D9220008852A0008E5220008852A0008CF
:1001B000852A0008852A0008852A0008852A000863
:0801C000852A0008852A0008C9
:1001D00010B5054C237833B9044B13B10448AFF381
:1001E00000800123237010BDA00400200000000047
:1001F00044BC030808B5034B1BB103490348AFF3E4
:10020000008008BD00000000A404002044BC0308D6
:1002100001F0FF01102A2BDB10F0070F08D010F8B7
:10022000013B013A8B422DD010F0070F42B3F6D1BB
:10023000F0B441EA012141EA014122F007047FF0D4
:1002400000070023F0E80256083C85EA010586EA2B
:10025000010685FA47F5A3FA87F586FA47F6A5FA67
:1002600087F68EB9EED1F0BC01F0FF0102F0070273
:1002700032B110F8013B013A83EA010313B1F8D11E
:100280000020704701387047002D06BF35460338FF
:10029000073815F0010F07D1013015F4807F02BF38
:1002A000013015F4C03F0130F0BC0138704700BF89
:1002B00081F0004102E000BF83F0004330B54FEA17
:1002C00041044FEA430594EA050F08BF90EA020F84
:1002D0001FBF54EA000C55EA020C7FEA645C7FEA17
:1002E000655C00F0E2804FEA5454D4EB5555B8BF3A
:1002F0006D420CDD2C4480EA020281EA030382EAAB
:10030000000083EA010180EA020281EA0303362D3C
:1003100088BF30BD11F0004F4FEA01314FF4801C0F
:100320004CEA113102D0404261EB410113F0004F21
:100330004FEA03334CEA133302D0524263EB4303D8
:1003400094EA050F00F0A780A4F10104D5F1200E76
:100350000DDB02FA0EFC22FA05F2801841F10001D1
:1003600003FA0EF2801843FA05F359410EE0A5F1A5
:1003700020050EF1200E012A03FA0EFC28BF4CF0D6
:10038000020C43FA05F3C01851EBE37101F000458C
:1003900007D54FF0000EDCF1000C7EEB00006EEB99
:1003A0000101B1F5801F1BD3B1F5001F0CD3490823
:1003B0005FEA30004FEA3C0C04F101044FEA44527A
:1003C00012F5800F80F09A80BCF1004F08BF5FEA01
:1003D000500C50F1000041EB045141EA050130BDE1
:1003E0005FEA4C0C404141EB0101013C28BFB1F5F3
:1003F000801FE9D291F0000F04BF01460020B1FA3E
:1004000081F308BF2033A3F10B03B3F120020CDA10
:100410000C3208DD02F1140CC2F10C0201FA0CF0EE
:1004200021FA02F10CE002F11402D8BFC2F1200C53
:1004300001FA02F120FA0CFCDCBF41EA0C01904009
:10044000E41AA2BF01EB0451294330BD6FEA040452
:100450001F3C1CDA0C340EDC04F11404C4F120023D
:1004600020FA04F001FA02F340EA030021FA04F34F
:1004700045EA030130BDC4F10C04C4F1200220FAA6
:1004800002F001FA04F340EA0300294630BD21FAE4
:1004900004F0294630BD94F0000F83F4801306BFAA
:1004A00081F480110134013D4EE77FEA645C18BF9E
:1004B0007FEA655C29D094EA050F08BF90EA020F35
:1004C00005D054EA000C04BF1946104630BD91EA2D
:1004D000030F1EBF0021002030BD5FEA545C05D130
:1004E0004000494128BF41F0004130BD14F580046F
:1004F0003CBF01F5801130BD01F0004545F0FE41E3
:1005000041F470014FF0000030BD7FEA645C1ABF17
:10051000194610467FEA655C1CBF0B46024650EA4E
:10052000013406BF52EA033591EA030F41F400217A
:1005300030BD00BF90F0000F04BF0021704730B500
:100540004FF4806404F132044FF000054FF00001D5
:1005500050E700BF90F0000F04BF0021704730B596
:100560004FF4806404F1320410F0004548BF40426B
:100570004FF000013EE700BF42004FEAE2014FEAC0
:1005800031014FEA02701FBF12F07F4393F07F4F9B
:1005900081F06051704732F07F4208BF704793F09E
:1005A0007F4F04BF41F40021704730B54FF46074B1
:1005B00001F0004521F000411CE700BF50EA0102B4
:1005C00008BF704730B54FF000050AE050EA01025D
:1005D00008BF704730B511F0004502D5404261EBCD
:1005E00041014FF4806404F132045FEA915C3FF40E
:1005F000D8AE4FF003025FEADC0C18BF03325FEAAB
:10060000DC0C18BF033202EBDC02C2F1200300FA5B
:1006100003FC20FA02F001FA03FE40EA0E0021FA80
:1006200002F11444BDE600BF70B54FF0FF0C4CF46E
:10063000E06C1CEA11541DBF1CEA135594EA0C0F20
:1006400095EA0C0F00F0DEF82C4481EA030621EA5B
:100650004C5123EA4C5350EA013518BF52EA033596
:1006600041F4801143F4801338D0A0FB02CE4FF048
:100670000005E1FB02E506F00042E0FB03E54FF078
:100680000006E1FB03569CF0000F18BF4EF0010E70
:10069000A4F1FF04B6F5007F64F5407404D25FEA6C
:1006A0004E0E6D4146EB060642EAC62141EA55511F
:1006B0004FEAC52040EA5E504FEACE2EB4F1FD0C61
:1006C00088BFBCF5E06F1ED8BEF1004F08BF5FEADF
:1006D000500E50F1000041EB045170BD06F0004691
:1006E00046EA010140EA020081EA0301B4EB5C043E
:1006F000C2BFD4EB0C0541EA045170BD41F4801136
:100700004FF0000E013C00F3AB8014F1360FDEBF5A
:10071000002001F0004170BDC4F10004203C35DA36
:100720000C341BDC04F11404C4F1200500FA05F3B9
:1007300020FA04F001FA05F240EA020001F000425A
:1007400021F0004110EBD37021FA04F642EB0601D0
:100750005EEA430E08BF20EAD37070BDC4F10C04FA
:10076000C4F1200500FA04F320FA05F001FA04F2BE
:1007700040EA020001F0004110EBD37041F10001AA
:100780005EEA430E08BF20EAD37070BDC4F12005B5
:1007900000FA05F24EEA020E20FA04F301FA05F21D
:1007A00043EA020321FA04F001F0004121FA04F2C5
:1007B00020EA020000EBD3705EEA430E08BF20EA95
:1007C000D37070BD94F0000F0FD101F000464000CF
:1007D00041EB010111F4801F08BF013CF7D041EA51
:1007E000060195F0000F18BF704703F00046520055
:1007F00043EB030313F4801F08BF013DF7D043EA26
:100800000603704794EA0C0F0CEA135518BF95EADB
:100810000C0F0CD050EA410618BF52EA4306D1D162
:1008200081EA030101F000414FF0000070BD50EA81
:10083000410606BF1046194652EA430619D094EA0B
:100840000C0F02D150EA013613D195EA0C0F05D1F5
:1008500052EA03361CBF104619460AD181EA030149
:1008600001F0004141F0FE4141F470014FF0000001
:1008700070BD41F0FE4141F4780170BD70B54FF09C
:10088000FF0C4CF4E06C1CEA11541DBF1CEA13551C
:1008900094EA0C0F95EA0C0F00F0A7F8A4EB0504FE
:1008A00081EA030E52EA03354FEA013100F08880F5
:1008B0004FEA03334FF0805545EA131343EA1263BE
:1008C0004FEA022245EA111545EA10654FEA002673
:1008D0000EF000419D4208BF964244F1FD0404F52C
:1008E000407402D25B084FEA3202B61A65EB030588
:1008F0005B084FEA32024FF480104FF4002CB6EB45
:10090000020E75EB030E22BFB61A754640EA0C00C4
:100910005B084FEA3202B6EB020E75EB030E22BF04
:10092000B61A754640EA5C005B084FEA3202B6EB45
:10093000020E75EB030E22BFB61A754640EA9C0004
:100940005B084FEA3202B6EB020E75EB030E22BFD4
:10095000B61A754640EADC0055EA060E18D04FEA92
:10096000051545EA16754FEA06164FEAC30343EA32
:1009700052734FEAC2025FEA1C1CC0D111F4801FFF
:100980000BD141EA00014FF000004FF0004CB6E7F8
:1009900011F4801F04BF01430020B4F1FD0C88BF97
:1009A000BCF5E06F3FF6AFAEB5EB030C04BFB6EBA2
:1009B000020C5FEA500C50F1000041EB045170BD95
:1009C0000EF0004E4EEA113114EB5C04C2BFD4EBC2
:1009D0000C0541EA045170BD41F480114FF0000E46
:1009E000013C90E645EA060E8DE60CEA135594EAC2
:1009F0000C0F08BF95EA0C0F3FF43BAF94EA0C0FC5
:100A00000AD150EA01347FF434AF95EA0C0F7FF439
:100A100025AF104619462CE795EA0C0F06D152EA8D
:100A200003353FF4FDAE1046194622E750EA410671
:100A300018BF52EA43067FF4C5AE50EA41047FF482
:100A40000DAF52EA43057FF4EBAE12E74FEA4102E5
:100A5000B2F1E04324BFB3F5001CDCF1FE5C0DD91C
:100A600001F0004C4FEAC0024CEA5070B2F1004F66
:100A700040EB830008BF20F00100704711F0804F69
:100A800021D113F13872BCBF01F00040704741F42E
:100A900080114FEA5252C2F11802C2F1200C10FA32
:100AA0000CF320FA02F018BF40F001004FEAC12316
:100AB0004FEAD32303FA0CFC40EA0C0023FA02F3BA
:100AC0004FEA4303CCE77FEA625307D150EA013390
:100AD0001EBF4FF0FE4040F44000704701F0004060
:100AE00040F0FE4040F40000704700BF7BB972B98F
:100AF0000029BEBF00204FF0004106E008BF0028DB
:100B00001CBF6FF000414FF0FF3000F0B5B9ADF100
:100B1000080C6DE904CE002909DB002B1ADB00F07C
:100B20004DF8DDF804E0DDE9022304B070474042EF
:100B300061EB4101002B1BDB00F040F8DDF804E025
:100B4000DDE9022304B0404261EB4101524263EB14
:100B500043037047524263EB430300F02FF8DDF884
:100B600004E0DDE9022304B0404261EB410170473B
:100B7000524263EB430300F021F8DDF804E0DDE9C5
:100B8000022304B0524263EB4303704753B94AB99E
:100B9000002908BF00281CBF4FF0FF314FF0FF3085
:100BA00000F06AB9ADF1080C6DE904CE00F006F86A
:100BB000DDF804E0DDE9022304B070472DE9F047D9
:100BC000089D0C46002B4ED194468C458646B2FAC1
:100BD00082F262D94AB1C2F12003914020FA03F3B4
:100BE0000CFA02FC194300FA02FE4FEA1C471FFAF6
:100BF0008CF6B1FBF7F44FEA1E4307FB141143EAEE
:100C0000014304FB06F199420AD91CEB030304F1EA
:100C1000FF3080F01281994240F20F81023C634420
:100C2000591A1FFA8EF3B1FBF7F007FB101143EAD4
:100C3000014300FB06F69E420AD91CEB030300F1B8
:100C4000FF3180F0FC809E4240F2F980634402381C
:100C50009B1B40EA044000211DB1D3400022C5E99E
:100C60000032BDE8F0878B4205D90DB1C5E900011E
:100C700000210846F5E7B3FA83F1002946D1A342E3
:100C800002D39042C0F0F080861A64EB0303012087
:100C9000002DE6D0C5E90063E3E7002A40F090802C
:100CA000A1EB0C044FEA1C481FFA8CF70121B4FB9E
:100CB000F8F64FEA1E4308FB164443EA044307FBD9
:100CC00006F0984208D91CEB030306F1FF3402D268
:100CD000984200F2CD8026461C1A1FFA8EF3B4FB10
:100CE000F8F008FB104443EA044300FB07F79F4277
:100CF00008D91CEB030300F1FF3402D29F4200F23B
:100D0000B0802046DB1B40EA0640A5E7C1F1200683
:100D10008B4022FA06F71F4320FA06FC04FA01F37F
:100D200043EA0C03F44000FA01F8380C4FEA134987
:100D3000B4FBF0FE1FFA87FC00FB1E4449EA0444A2
:100D40000EFB0CF9A14502FA01F20AD93C190EF189
:100D5000FF3A80F08480A14540F28180AEF1020E1E
:100D60003C44A4EB09041FFA83F9B4FBF0F300FB45
:100D7000134449EA044403FB0CFCA44507D93C197D
:100D800003F1FF3067D2A44565D9023B3C4443EAF6
:100D90000E40A0FB0293A4EB0C049C42CE469C4662
:100DA00051D34ED055B1B8EB0E0364EB0C0404FAEA
:100DB00006F6CB401E43CC40C5E90064002150E755
:100DC000C2F1200320FA03F10CFA02FC24FA03F327
:100DD00094400C434FEA1C4800FA02FE1FFA8CF7BD
:100DE000B3FBF8F008FB1031230C43EA014300FB8E
:100DF00007F1994208D91CEB030300F1FF362CD20E
:100E000099422AD9023863445B1AA4B2B3FBF8F1C1
:100E100008FB113344EA034401FB07F3A34208D95A
:100E20001CEB040401F1FF3613D2A34211D902399D
:100E30006444E41A41EA004139E70446F0E6084612
:100E400006E7C845AED2B9EB020E63EB070C0138DA
:100E5000A8E73146EDE7034699E73046D4E7D646A2
:100E60007FE7634402384DE70646234608460FE70E
:100E7000023E634430E700BF704700BF2DE9F04FEA
:100E80009046012700F01F0200288BB0064607FAA3
:100E900002F74FF47A72B8BF00F11F0600248A46A9
:100EA00005467611A34693FBF2F902FB19334FEA8C
:100EB000E9715343039102930AAB03EB860604A93D
:100EC000681CCDF81890CDE904BB56F8183C3B439C
:100ED00046F8183C039B0793029B089306AB0093CC
:100EE00000231A461BF0B8FE002802DC4FF0FF3446
:100EF00010E056F8183C1F42F8D00023A8EB04027B
:100F00000AEB040128461BF0C1FD0028EEDD044475
:100F1000A045D4DC20460BB0BDE8F08FF8B50646FE
:100F20000F4615460024AC4201DB0020F8BD00232B
:100F30002A1B391930461BF023FE031E01DD1C4419
:100F4000F1E74FF0FF30F1E710B590B00024014613
:100F50003F2268468DF83F4039F046FF044B186841
:100F600020B123462246694608F0E2F910B010BDD0
:100F7000C01400202DE9F04F554C97B0D4F8026012
:100F800036BA092E05D92644DFF854910A34A64210
:100F900002D817B0BDE8F08F23783F2BF9D8231D76
:100FA0009E42F6D36288218852BA92B2032AF0D9BF
:100FB0001444A642EDD3B1F5704FE8D100210F469D
:100FC00088460FE093F900001A7800284BDA02F007
:100FD0007F02012A09D103F1030A544501D393F892
:100FE000028053469C42EDD81EE00D2A11D103F138
:100FF0000D0A5445F5D30029F3D1D3F801006A4610
:10100000D3F805100C2703C2D3F8090001211060A2
:10101000E7E7013AD2B20F2A06D819F802201AB12E
:1010200003EB020A5445DCD20029B0D04022002153
:1010300006A8EB460DF11C0A002539F0BBFE254938
:1010400006A839F068FFEBB2234ABB4236D3234BE4
:101050008DF854801868002899D0002306A91A46F4
:1010600008F066F993E71A1D9442DDD35A88188870
:1010700052BA40BA92B2C0F30D00032AD4D903EB9E
:10108000020A5445D0D3F128ABD10029A9D1052AB1
:10109000A7D99D886DBAADB20735C5F3C705182D20
:1010A00028BF1825A81DC0B290429AD8991D2A467B
:1010B00068462F4639F037FF012192E750461BF86A
:1010C000013B032101350AF1020A39F01DFDBAE79F
:1010D000BC040020A0BC0308A5BC0308C414002065
:1010E0002ABE03082DE9F041DFF85C800A22154F83
:1010F0000646D8F800303946FFF7C0FE0A281BD153
:10110000D7F8023040F6F6721CBAA4F10A059542EF
:1011100015D8B3F1206F02D12046BDE8F081D8F890
:1011200000302A4607F10A013046FFF7A7FE854244
:10113000F2D06FF00B00F0E76FF00900EDE76FF011
:101140000A00EAE7BC040020040000201FB5194A89
:1011500013885BBAC3F309033E2B1FD1D2F80620D4
:1011600044F6040113BA01918DF80A204FF420616E
:101170001A0C5BBAADF8081001A98DF80B200A22F1
:10118000ADF80C30FFF7CAFE30B90B48FFF7DCFEB4
:10119000012005B05DF804FB0848F7E73F2B01D1BB
:1011A0000748F3E73D2B02D1FFF7E4FEF0E700200C
:1011B000EFE700BFBC040020AABC0308B1BC0308D1
:1011C000BCBC03082DE9F047804692B0894615461D
:1011D000384FDFF8F4A04046FFF784FF00280FDC0B
:1011E0002B46354A402100904FF0FF3402A839F0D9
:1011F0008BFC02A8FFF7A8FE204612B0BDE8F087DE
:1012000040463E88FFF7A2FF04460028E3D173BAA8
:10121000C3F30903994525D17B8940F21F125BBABC
:10122000C3F30D0393421AD1FB8973B15BBA9BB22E
:10123000224A4021009302A82B466FF0010439F0A6
:1012400063FC02A8FFF780FED6E72B461C4A30213C
:1012500002A839F059FC02A8FFF776FECCE74FF65A
:10126000FF73E5E7642B1AD17B8940F21F125BBA4A
:10127000C3F30D0393420FD1FB895BBA9BB2114AB2
:101280004021009302A82B466FF0020439F03CFC89
:1012900002A8FFF759FEAFE74FF6FF73EFE70093A1
:1012A00052462B46402102A839F02EFC02A8FFF737
:1012B0004BFE90E7BC040020C2BC0308D4BC03086A
:1012C000CEBC0308DEBC0308EBBC03082DE9F047E5
:1012D000B34C98B0226822B940210A2007F0E2FFFF
:1012E0002060B04C226822B940210A2007F0DAFFC2
:1012F0002060AD4F3A6822B90121052007F0D2FFE6
:10130000386040F6B830DFF8088307F013FEA748CE
:10131000FFF71AFE00238DF803304FF0FF33002251
:101320000DF10301386808F045F818B99DF803304D
:10133000012BF2D19E48FFF707FEDFF8D89242F268
:101340001073002201210220C9F800301BF050FC6C
:10135000041E05DA9748FFF7F7FD4FF47A7020E096
:101360001022002101A839F025FD022341F2DC30D2
:101370008DF8053018F0B2FBADF806008E4819F074
:1013800015FB1022029001A920461BF0EBFA002861
:101390000DDA20461BF0B2FA8848FFF7D5FD4FF46E
:1013A000FA6007F0C7FD8148FFF7CEFDB2E7844D34
:1013B0008448FFF7C9FD2046FFF794FE031E10DCAA
:1013C000814A302105A839F09FFB05A8FFF7BCFD35
:1013D00020461BF093FA42F210737C48C9F80030A3
:1013E000B9E7B8F800305BBAC3F309033F2B2AD141
:1013F000774E7848FFF7A8FD336832882046591C9D
:1014000052BA316041F20451ADF81C200E22059110
:101410004FF46061ADF81810190E1B0C8DF81A10FE
:1014200005A98DF81B300023ADF81E30ADF8203033
:10143000FFF774FD002819DA6748FFF785FD674854
:10144000FFF782FD19E02046FFF780FE0028B2D1A9
:10145000B8F800302A46302105A85BBAC3F3090367
:1014600039F052FB05A8FFF76FFDA4E75C4A1F2186
:101470002046FFF7A7FE0028E1DB33684FF4807AAF
:1014800032884FF03740591C4FF0384552BADFF8D8
:1014900088C1316041F20441ADF81C2005914FF440
:1014A0009641504AADF81810190E1B0C8DF81A1001
:1014B0004FF436018DF81B304FF43143ADF81E3038
:1014C0004FF48243CDE9083A474BCDE90A2309237B
:1014D0004B22CDE90C13454B05A9CDE90E034FF482
:1014E00010632046CDE910530025414BCDE912533E
:1014F000404B8DF85E50CDE914C33F4B169341F23B
:101500000603ADF85C30FFF709FDA84201DA3B485D
:101510005CE73B4A1E212046FFF754FE0028FFF6F9
:1015200057AF336820463288591CADF81E5052BA66
:10153000ADF820A0316041F60401ADF81C200E2268
:1015400005914FF46061ADF81810190E1B0C8DF861
:101550001A1005A98DF81B30FFF7E0FC002801DA0E
:10156000284833E7284A22212046FFF72BFE00288F
:10157000FFF62EAF2548FFF7E7FC8DF80350C82390
:1015800000220DF10301386807F014FF054600281A
:10159000F5D19DF80330022B40D0032BEFD117E794
:1015A000C4140020C0140020BC140020F9BC03089F
:1015B00014BD030822BD03082FBD03083BBD03086B
:1015C00075BD03084BBD030858BD03081CBE0308C6
:1015D0000800002065BD03087FBD030893BD030814
:1015E0008CBD030800B2001200B300050018000112
:1015F000BA000700000D01000100EE009FBD0308C6
:10160000ACBD0308B3BD0308C0BD0308C7BD0308D4
:10161000BC04002004000020010100ED3368328882
:10162000591CADF81E0052BA2046316041F20461E7
:10163000ADF81C200E2205914FF46061ADF8181032
:10164000190E1B0C8DF81A1005A98DF81B304FF4DC
:101650008073ADF82030FFF761FC002801DA2A48DA
:10166000B4E62A4A20212046FFF7ACFD0028FFF609
:10167000AFAE2748FFF768FC4FF4FA63C9F80030B3
:1016800000230DF1030138681A4607F093FE28B9CC
:101690009DF80330032B01D11E4897E62046FFF743
:1016A00021FD002807DC0A300CBF013505350F2D60
:1016B000E6DD19488AE6B8F800305BBAC3F30903DF
:1016C0003D2B06D1FFF756FC0120002507F032FC28
:1016D000D6E73E2BF8D1D8F8062044F60401204680
:1016E00013BA05918DF81A204FF420611A0C5BBAD9
:1016F000ADF8181005A98DF81B200A22ADF81C3092
:10170000FFF70CFCE0E700BFE2BD0308EFBD0308F4
:10171000F6BD030802BE03080DBE0308054C08B55C
:1017200000F040FE636803B100BF4FF47A7007F029
:1017300001FCF7E75817002010B594B010220021E3
:1017400002240AA839F036FB1422002103A839F03C
:1017500031FB1D4B192108A81A6C42F080521A6403
:101760001B6C03F080530193019B184B1A6842F4E1
:1017700040421A6001221B6803F440430293029B1B
:101780004FF48033CDE908234FF48003CDE90E43B5
:101790004FF4D873CDE91244CDE9101306F080FB65
:1017A00006F0DCF80F2300200721CDE903344FF4C5
:1017B000A053CDE905034FF4805303A8079306F027
:1017C00057FD14B010BD00BF00380240007000404B
:1017D00030B54FF480738FB04FF080720E4D06938A
:1017E0009F2309920122009300230446694628465C
:1017F0000593CDE90A2341F28832CDE90733CDE9DB
:101800000C3306F019FA41F288322146284606F0D8
:10181000E3FA0FB030BD00BF1C15002000B54FF437
:10182000807391B04FF04072EF2808934FF0EB03B4
:1018300002A90D4802934FF4406309934FF40053FB
:1018400005934FF00003CDE90A3214BF0A220622A5
:101850000F9307926A46CDE90D33CDE9003306F0C8
:1018600030FA11B05DF804FB1C1500202DE980480A
:101870009BB01022002100240DA8012539F09AFA0E
:10188000DFF8649304F03EFAC74B0DA8ADF834506E
:101890001094CDE90E9304F053FAC44B0DA88DF8C3
:1018A00035500E930E238DF83E508DF83C308DF858
:1018B0004140ADF8424004F043FA02230DA88DF8F0
:1018C0003E408DF835304FF010438DF841400E9377
:1018D0001723ADF842508DF83C3004F031FA062061
:1018E00004F01EFABFF34F8FBFF36F8FB04AC2F8F8
:1018F0005042BFF34F8FBFF36F8F536943F40033F0
:101900005361BFF34F8FBFF36F8FC2F88440BFF3B3
:101910004F8FD2F8803043F6E074C3F3C900C3F3AD
:101920004E335B0103EA0406014646EA817501393C
:10193000C2F86052F9D2203B13F1200FF2D1BFF36D
:101940004F8F536943F480335361BFF34F8FBFF31D
:101950006F8F04F03DF90024FFF7EEFE1422002102
:101960000DA839F027FA934B102193481A6B0127E1
:101970004FF010084FF0030B42F010024FF4805A62
:101980008E4D4FF004091A631A6B8D4E02F010024F
:101990000292029A1A6B42F040021A631A6B02F02A
:1019A00040020392039A1A6B42F002021A631A6B06
:1019B00002F002020492049A1A6B42F001021A63C6
:1019C0001A6B02F001020592059A1A6B42F400723A
:1019D0001A631A6B02F400720692069A1A6B42F0AE
:1019E00008021A631A6B02F008020792079A1A6B30
:1019F00042F480621A631A6B02F480620892089AB9
:101A00001A6B42F020021A631A6B02F0200209924C
:101A1000099A1A6B42F480721A631A6B02F480728C
:101A20000A920A9A1A6B42F080021A631A6B02F049
:101A300080020B920B9A1A6B42F004021A63002286
:101A40001B6B03F004030C930C9B05F055FA012269
:101A500008215C4805F050FA01224FF480515A48A1
:101A600005F04AFA0022C021584805F045FA002244
:101A70004021574805F040FA0DA94F48CDE90D87A0
:101A8000CDE90F4B05F0B4F808230DA94D48CDE979
:101A90000D37CDE90F4405F0ABF80DA94A48CDE963
:101AA0000DA7CDE90F4405F0A3F8C0220DA94748C2
:101AB000CDE90D27CDE90F4B05F09AF840220DA98D
:101AC0004348CDE90D27CDE90F4B05F091F841488A
:101AD0004149848001600762C0E9054404F05CF973
:101AE0003E492846C5E90014C5E90244C5E90A444F
:101AF000C5E90C4404F0EFF939462846384D04F0A6
:101B0000A3FA40234FF4C07236493046B460F46102
:101B1000B462C6E905324FF40062C6E9082A4FF004
:101B2000020A0722C6E900140DA9CDF84CA0C6E9A7
:101B30000398CDE90DA2CDE90F92CDE911BA06F0D7
:101B4000F3FE29464FF6FF7230460194C5E900784E
:101B5000C5E9027406F008FF384604F05DF829462E
:101B60004FF6FF723046C5E900A8C5E9027406F0D9
:101B7000FBFE082329464FF6FF723046C5E900B840
:101B8000C5E9023406F0F0FE4FF40C734FF6FF7215
:101B9000294601933046019BAF60EB60C5E9009890
:101BA00006F0E2FE22E000BF0D00010300800420E9
:101BB00000ED00E0003802400004024064160020FE
:101BC000E8140020002802400020024000080240E3
:101BD00000180240A41600200030024000B002406D
:101BE000C8140020400100A000C0042040F22B7166
:101BF0003046544D06F0D7FE4FF0204343F2D20258
:101C0000642040F215261A6004F006F84E4B4F4A45
:101C100028462C62C5E90023C5E90247C5E904440A
:101C2000C5E9064405F0A9FA2146284605F0CCFC92
:101C300021462846464D05F0EDFC342221460DEBA9
:101C4000020039F0B7F8434B2821352040F2352CFB
:101C50002C61AC8685F83640C5E900340923C5E916
:101C600005130B23C5E9070340F21B132846C5E9FA
:101C7000096340F21D13C5E90244C5E90BC305F031
:101C80006FFDFF214FF4806E4FF4F0724FF48873B4
:101C900028460D941893ADF864408DF86640CDE960
:101CA00012140521CDE914E14FF04041CDE90E2495
:101CB000CDE9161222460DA9CDE9103A05F004FE31
:101CC0002548264B0462C0E90037C0E902984FF46A
:101CD000A0634FF01808C0E90644C0E9048305F08A
:101CE00059FF0DA8FFF774FD9DF83400FFF796FD2E
:101CF0005C2003F0F5FF00F053FB00F0C5FE00F0A0
:101D0000C2FE07F073F8164A2146164807F0BCF8E1
:101D1000154B164A21461860154807F0B5F8154BC3
:101D2000154A21461860154807F0AEF8144B154ABD
:101D300021461860144807F0A7F8144B186007F004
:101D40006FF8FEE71016002068474020005C004056
:101D500068150020006801401C150020001000A03C
:101D6000D4BE03081D170008E4140020B0BE030809
:101D7000972A0008E01400208CBE030829460008BA
:101D8000DC14002068BE0308CD120008D81400201F
:101D90000268034B9A4201D103F02CBF704700BF89
:101DA00000100040704700000D4B82B00F216FF013
:101DB00001001A6C42F080521A641A6C02F08052D0
:101DC0000092009A5A6C42F480425A6400225B6C82
:101DD00003F480430193019B02B003F041BF00BFB5
:101DE00000380240026882B0084B9A420BD1D3F807
:101DF000302803F5006342F480521A631B6B03F42E
:101E000080530193019B02B0704700BF0030024035
:101E10000E4B07B502689A4215D1A3F5F043052190
:101E20005A201A6B42F400021A6300221B6B03F45F
:101E300000030193019B03F013FF5A2003B05DF8E8
:101E400004EB03F03FBF03B05DF804FB00B00240B9
:101E500010B5A8B004461422002102A838F0AAFF49
:101E60008422002107A838F0A5FF2268174B9A4268
:101E70002AD14FF4803307A8079306F0CBFA08B1B4
:101E8000FFF790FF124C4FF4C07201211148236BF1
:101E900043F080032363236B03F080030093009BD4
:101EA0001223CDE902230323CDE90413042302A95D
:101EB000069304F09DFE236C43F400032364236C1B
:101EC00003F400030193019B28B010BD005C0040A7
:101ED00000380240001C0240026808B5094B9A42D3
:101EE0000FD1094A80210948136C23F400031364BD
:101EF00004F062FF4FF480710448BDE8084004F02C
:101F00005BBF08BD005C004000380240001C02407E
:101F100070B5ACB004461422002106A838F04AFF80
:101F2000842200210BA838F045FF2268484B9A42D2
:101F300040F08C800823052001240B934FF4C073DC
:101F400010930223CDE911304FF400330BA8CDE9F3
:101F5000154306F05FFA08B1FFF724FF3D4B00245C
:101F600002250E265A6C06A93B4842F080625A644C
:101F70005A6C02F080620092009A1A6B42F01002D2
:101F80001A631A6B02F010020192019A1A6B42F462
:101F900000721A631A6B02F400720292029A1A6BB0
:101FA00042F480621A631A6B02F480620392039A0D
:101FB0001A6B42F040021A631A6B02F0400204925C
:101FC000049A1A6B42F480721A631B6B03F48073D9
:101FD0000593059B1023CDE90635CDE908440A9603
:101FE00004F006FE4EF6FF7306A91C480A96CDE9DA
:101FF0000635CDE9084404F0FBFDF72306A918488F
:102000000A96CDE90635CDE9084404F0F1FD4FF418
:10201000805306A91348CDE906350923CDE90844C4
:102020000A9304F0E5FD4FF4464306A90E480A96CC
:10203000CDE90635CDE9084404F0DAFD5820224602
:10204000052103F00DFE582003F03CFE2CB070BDBE
:1020500000680140003802400010024000240240A5
:1020600000280240001802400020024014220021F3
:102070002DE9F0418AB004460DEB020038F09AFEDB
:1020800022682C4B9A4251D12B4B0225032409265E
:102090009A6B4FF0040805A9284842F00202002775
:1020A0009A639A6B02F002020192019A1A6B42F053
:1020B00010021A631A6B02F010020292029A1A6B53
:1020C00042F002021A631A6B02F002020392039AB0
:1020D0001A6B42F008021A631B6B03F008030493A7
:1020E000049BCDE90585CDE9084604F081FD402338
:1020F00005A91348CDE905350A23CDE907740993ED
:1021000004F076FD05A90E480996CDE90585CDE9CF
:10211000077404F06DFD4FF4605305A90948099652
:10212000CDE90535CDE9077404F062FD0AB0BDE8DC
:10213000F08100BF001000A00038024000100240F3
:1021400000040240000C0240F0B5002387B0039366
:10215000294B1E68002E4DD10122022703250C2495
:102160001A6001A9254B26489A6B42F001029A6336
:102170009B6B03F001030093009B4FF68373CDE943
:102180000454CDE9013704F033FD48F2331301A9BB
:102190001C480594CDE90137CDE9036504F028FD1D
:1021A0004CF2037301A918480594CDE90137CDE934
:1021B000036504F01DFD4FF63F0301A91348059484
:1021C000CDE90137CDE9036504F012FD282301A90B
:1021D0000F480594CDE90137CDE9036504F008FD0A
:1021E000082301A90B480594CDE90137CDE9036522
:1021F00004F0FEFC07B0F0BDC81600200038024015
:102200000010024000180240000C0240001402407E
:10221000001C024000080240214B1A6C42F01002E0
:1022200070B51A6488B01B6C054601A903A803F0B9
:1022300010030293029B06F0CFF8069B4BBB06F0FF
:10224000BBF8184E184B336040F2E733F360174B7E
:10225000B0FBF3F3013B3046736000233361B3609E
:10226000B36106F005FD044680B9304606F0B4FBC4
:10227000044658B9362003F025FD0F2D0DD822460F
:102280002946362003F0ECFC094B1D60204608B0BF
:1022900070BD06F091F84000D3E70124F6E700BFD7
:1022A00000380240CC1600200010004040420F00D1
:1022B000580000207047FEE7FEE7FEE7FEE77047A4
:1022C000014806F0CBBB00BFCC160020014804F04B
:1022D00033BB00BFE4170020014805F098BA00BFE7
:1022E00068150020014803F024BE00BF64160020DA
:1022F00001207047024B16224FF0FF301A607047E2
:10230000F4C70120014B16221A60FEE7F4C7012032
:1023100070B50D4614460E46731B9C4201DC2046E8
:1023200070BDAFF3008006F8010BF5E770B50D4600
:1023300014460E46731B9C4201DC204670BD16F805
:10234000010BAFF30080F5E74FF0FF3070474FF41B
:10235000005300204B6070470120704700207047F9
:102360000A4A0346116810B509B909491160106895
:10237000084C09490344091B8B4283BF074B0C22BD
:102380004FF0FF30136088BF1A6010BD181700208F
:10239000B0D50120000A000000000520F4C701208C
:1023A00070477047F0B5A923254F0024254E3B7098
:1023B000FE23254D85B07B70012321462046BB704E
:1023C00002232C70FB70FF236C7033707370AC7041
:1023D000EC70B470F4701EF0AFFB3B681B491C4AF4
:1023E0000B603368286813601A4B1B4D18601B483C
:1023F00002901B48CDE90040284619F091FA284682
:1024000019F01AFB284619F01DFB2846154919F04A
:102410008DFB154B21462022184638F0CBFC134982
:10242000021F102340F8041C4FF480611048C2E9D9
:102430000513294605B0BDE8F04006F025BD00BFF4
:102440004817002044170020401700205417002090
:10245000501700204C17002058170020A50A02082A
:102460003D260008A323000820170020F8BE03081B
:10247000F128000800207047F0B58DB00C463022DE
:1024800000216846274F38F095FC6A462146002017
:10249000E9B923892046244D244E254F6B60C5F8A9
:1024A00008D06C6319F08EFD2946304604F070F9AF
:1024B00088B1304604F096FB83072ED54FF4FA61BD
:1024C000386806F045FE304604F004FAECE70428CC
:1024D00003D16FF00B000DB0F0BD4D684B89156056
:1024E000536008B142F8042C0E6806B996601F3399
:1024F00023F01F03BFF34F8F1D44002BA5EB0306F2
:1025000007DCBFF34F8FBFF36F8F013009680C32C8
:10251000BEE7203BC7F86862EFE7204619F0DEFB14
:10252000D7E700BF00ED00E0AC170020E417002063
:102530009418002003F06ABB024808B504F028FB99
:10254000002008BDE417002008B513460A460146DE
:10255000034804F05FFA003818BF0120404208BD6C
:10256000E417002008B513460A460146034804F064
:1025700078FA003818BF0120404208BDE417002057
:102580000146084808B519F0DDF8074B1A78012A0A
:1025900007D100221A70054B1868BDE8084006F004
:1025A00013BE08BD90BF03089C1800209818002097
:1025B0002DE9F7430546114FDFF84480DFF84490DA
:1025C0004FF0FF31386806F0C3FD04460028F7D10C
:1025D00098F8003001941BB901A9484604F006F9A7
:1025E000019E002EECD02B692946304698470028E2
:1025F000EED0304619F072FBEAE700BF98180020D1
:102600009C180020E4170020014B186806F0DCBD80
:1026100098180020014B186806F0D6BD94180020C9
:1026200008B504F0E2FA030605D5034B1868BDE8C7
:10263000084006F0C9BD08BD98180020F0B5044652
:10264000A5B030B9594B40F211225949594838F0D8
:1026500049FA47F27343642200210BA8E385002660
:10266000554B564D6361564BA36138F0A3FB554B58
:102670002846ADF804602B60534BC5F804D0009396
:102680004FF40003AB60514BEB60514B2B614FF4A7
:10269000C0636B6103F0F8FE4E4B314634220746AF
:1026A000184638F087FB212240F8042C4FF44002F2
:1026B0000261494818F0F2FF06233146012084F8F0
:1026C0002C306B681A7884F826205A7884F82720F2
:1026D0009A7884F82820DA7884F829201A7984F8FE
:1026E0002A2032465B7984F82B3040F2DC53A384F5
:1026F00094F82D3043F00A0384F82D3006F0D0FC16
:10270000364B324631461860012006F0C9FC344B86
:1027100020223146186003A838F04CFB314B4FF4AF
:10272000AF7002AA029330232146CDE907032E4859
:1027300006F0AAFB2D492E4803F0D7F82C4803F0E9
:10274000E8F840B1204619F0D7F9204619F094F97D
:10275000002025B0F0BD37BB254803F007F901285C
:10276000F0DD03380BA9022893BF224B4FF48045BC
:102770004FF4006633F810609CBF1F4B33F81050C5
:102780000E4804F092F90BA90C48CDE9105604F05C
:10279000F2F90A4803F074FF204619F053F9204675
:1027A00019F086F9D4E7FFF7FDFAD1E700BF030877
:1027B00036BF030844BF030801A10108E417002045
:1027C00079240008008002400080E10044010020DC
:1027D000E4010020B017002090BF030898180020E3
:1027E000941800206CBF0308B12500080C000020DD
:1027F0008C17002088BF030882BF030803F006BAC5
:1028000070B58CB004461422002107A838F0D2FA23
:102810002268334B9A4260D1A3F5904302240B26E1
:1028200007A91A6B00252F4842F000721A631A6B31
:1028300002F000720192019A1A6B42F080621A63F0
:102840001A6B02F080620292029A1A6B42F00062E6
:102850001A631A6B02F000620392039A1A6B42F039
:1028600040021A631A6B02F040020492049A1A6B37
:1028700042F004021A631A6B02F004020592059AF0
:102880001A6B42F001021A631B6B03F001030693FB
:10289000069B4FF4D043CDE907340A940B9604F01D
:1028A000A7F9322307A910480B96CDE90734CDE9E3
:1028B000095404F09DF9862307A90C480B96CDE92D
:1028C0000734CDE9095404F093F93D202A46052147
:1028D00003F0C6F93D2003F0F5F90CB070BD00BF60
:1028E0000080024000180240000802400000024040
:1028F0002DE9F04700259AB0DFF894900446A846E9
:102900002F46214E6422DFF88CA0002101A838F068
:1029100051FA484603F02AF894F82D305A0710D59A
:1029200001280CDC304603F0EDFE204619F0A4F837
:10293000204619F0E1F8642006F0FCFAE9E75B07AD
:10294000F9D40128F7DD831E032B19D80F4A3AF872
:10295000138032F8135001A9304604F0A6F801A9FB
:1029600030460127CDE9068504F005F9304603F02D
:1029700087FE204619F066F8204619F099F8DAE744
:10298000002FD8D0E7E700BFE417002072BF03088C
:102990008C1700207ABF030813B504460C4818F0C2
:1029A0009FFE034678B100F120020A4922600161CE
:1029B0004FF4C061CDE9002100214122084619F001
:1029C0003BF902B010BD044A012120601170F8E704
:1029D00090BF0308812500089C18002030B5002511
:1029E000A2F1200422F8163C42F8205C22F8185C80
:1029F00005686DB904600C60016861B9BFF34F8F61
:102A00000A49002B0CDCBFF34F8FBFF36F8F30BD33
:102A10000D682C60EFE70889184408810968ECE725
:102A2000C1F85C22203B2032EBE700BF00ED00E064
:102A300019F054B9DFF834D002F0E2FF0C480D4928
:102A40000D4A002302E0D458C4500433C4188C4209
:102A5000F9D30A4A0A4C002301E013600432A2426F
:102A6000FBD338F031FAFEF701FF70470000052074
:102A700000000020A00400204C3D0408A004002019
:102A8000ACD50120FEE7704708B501F093F9BDE829
:102A9000084001F017B901F08FB9406870474160F4
:102AA000704700004FF0E022D2F8FC3D43F0807305
:102AB000C2F8FC3D054B064AD3F8B01F0A43C3F8E1
:102AC000B02F1A6842F001021A607047001000E04F
:102AD00055CEACC5521A02EB5302B2FBF3F070476D
:102AE000014B5868704700BF001000E0704710B5F8
:102AF00004460C2136F0CBFE204610BD036810B50D
:102B00001B69044631B19847A26863689B1A034465
:102B1000636010BD9847A060FBE70000024B702087
:102B2000024A1360DB6818472C000020286200204E
:102B3000704710B50446042136F0A9FE204610BDAA
:102B400073B50E4E0D461446336813B9002002B01B
:102B500070BD1B69702098470028F7D0336870203B
:102B600001AA0DF106015B699847BDF80430012008
:102B70002B60BDF806302360E9E700BF2862002023
:102B80007FB501238DF817204FF47A72CDE9013219
:102B90000DF1170200920A460146054804F05CFB5D
:102BA00010B1034804F03EFB07B05DF804FB00BF22
:102BB000101600207FB500230A464FF47A718DF875
:102BC00017300123CDE901310DF1170100910146C4
:102BD000054804F01BFC10B1034804F023FB9DF8EA
:102BE000170007B05DF804FB10160020032823D857
:102BF000DFE800F0020B131A104B102110481A687E
:102C0000B2FA82F2520904F077B90C4B40215A68AB
:102C1000B2FA82F252090B48F5E7084B80219A6814
:102C2000B2FA82F25209F6E7044B40210648DA680C
:102C3000B2FA82F25209E6E7704700BF2C62002028
:102C4000000402400008024000180240032823D874
:102C5000DFE800F0020B131A104B102110481A681D
:102C6000003A18BF012204F047B90C4B40215A68C2
:102C7000003A18BF01220B48F5E7084B80219A68FB
:102C8000003A18BF0122F6E7044B40210648DA68F3
:102C9000003A18BF0122E6E7704700BF2C6200200F
:102CA00000040240000802400018024003280FD828
:102CB000DFE800F00206090B1021064804F021B9F4
:102CC00040210548FAE78021FBE740210348F5E76A
:102CD000704700BF00040240000802400018024094
:102CE00008B5032813D8DFE800F0020A0D0F102101
:102CF000084804F0FBF8431E5842584108BD4021E3
:102D00000548F6E78021FBE740210448F1E7002071
:102D1000F1E700BF00040240000802400018024032
:102D200070B5084D00240126E0B2FFF7D9FF18B1B5
:102D30002B68012B18BF2E6001340435052CF3D10C
:102D400070BD00BF2C620020012380F87C1080F849
:102D50007D30704770470020704700008164003963
:102D6000024B18BF01211970704700BF6BC80120CA
:102D7000704700207047C36B0BB108461847704777
:102D80004FF6FF707047406803689B6918477047AB
:102D90007047704738B5044601F066F90849236862
:102DA0002046084DD3F8903098470023284684F8F1
:102DB0004E30FFF777FE0123256184F8743038BD6B
:102DC000000000C03C62002001F0F0B801F0F4B84F
:102DD00070B501F073F910490023C1F88430BFF3D6
:102DE0004F8FD1F8803043F6E074C3F3C900C3F3CA
:102DF0004E335B0103EA0406024646EA8275013A55
:102E0000C1F87452F9D2203B13F1200FF2D1BFF375
:102E10004F8FBFF36F8F70BD00ED00E001F050B930
:102E200001F0A0B801F072BA01F07ABA01F0A4B8CA
:102E300010B504461FF0D0FB23682046D3F8BC3001
:102E4000BDE8104018471EF0AABD10B50446882101
:102E500036F01DFD204610BD90F838100D4B10B512
:102E600090F87C401A788C4209D03AB90A490B4A4A
:102E700008881488108001220C801A7010BD002A66
:102E8000FCD0064A0449148808880C80108000226F
:102E9000F3E700BF6AC8012072C8012074C801208E
:102EA00008B5094B1B888B4203D8084B1B889342FB
:102EB00005D9074BA521074A074837F011FC074BF6
:102EC0001980074B1A8008BD74C8012072C8012000
:102ED000DCBF03083FC0030882C0030870C801209C
:102EE0006EC801202DE9F0410D460446194635B95A
:102EF000154B40F20131154A154837F0F1FBC0E996
:102F00001052003A0368134E18BF0122D3F89030D4
:102F100032709847E569A5B12B681F68337873B1A3
:102F2000236820465B6B9847236C834207D1616C12
:102F3000094B28461A883B46BDE8F0411847216CEA
:102F4000F6E7BDE8F08100BFC7C00308FFC0030873
:102F500082C003086CC8012070C80120034690F8A5
:102F60007E0018B1586803681B6818477047000056
:102F7000034B00225A609A60024A1A60704700BFF1
:102F80003C620020A4BF03080121002208B50846C6
:102F900006F086F80A4B186028B90A4B28210A4A1D
:102FA0000A4837F09DFB00220421012006F07AF93F
:102FB000074B186018B9074B2C21034AF0E708BDEE
:102FC0004C6200203CC2030885C20308B4C2030857
:102FD00048620020FAC20308024B4FF0FF31186824
:102FE00006F0B6B84C620020014B186806F0ECB849
:102FF0004C620020024B0021186806F0A9B800BFFF
:103000004C620020FFF7F0BF0023034803491A4633
:10301000006806F08DB900BF486200202000002043
:1030200013B50023074C01A91A46206806F0C2F91F
:103030004FF0FF33002201A9206806F0BBF902B06F
:1030400010BD00BF4862002003685B6C1847012078
:10305000704703689B6A1847FEE700000E4B82B07A
:103060001A6B42F400021A631A6B02F40002019216
:10307000019A1A6942F400021A611A6922F40002E4
:103080001A61064B064A5A61064A1A614FF080627D
:10309000054B9A6002B07047003802406416002069
:1030A000593000082133000800E100E040F2EF3021
:1030B00070470000054B4FF080620360044BC3F87B
:1030C0008820BFF34F8FBFF36F8F704790C4030802
:1030D00000E100E010B504464FF45A61FFF7EAFF43
:1030E000204636F0D4FB204610BD000008B50A2863
:1030F00009D8DFE800F006100E08080808101010C4
:103100001000022008BD054B9021054A054837F004
:10311000E7FA0020F6E70120F4E700BF3CC303080C
:1031200057C30308A2C3030838B50C46887FFFF7CE
:10313000DDFF124BA58AE28A586342EA0542216903
:103140005A64628BD963521B1A642568082D0ED10C
:103150009A611A6158620A4A207F42EA0062DA6183
:10316000E2681A62074A5961D9601A6038BD0022C4
:10317000D8611A61E2689A63034AF6E700B0024038
:1031800009000100012302000123030008B50B28F8
:103190000BD8DFE800F00612100A0A0A0A0808082D
:1031A0000808022008BD0520FCE7054B6F21054AF1
:1031B000054837F095FA0020F4E70120F2E700BF58
:1031C0003CC30308E6C30308A2C303082DE9F0418A
:1031D00091F81D800C464046FFF7D8FFA77F0546B3
:1031E0003846FFF7D3FF06463846FFF77FFFA18A30
:1031F000628B434B521A1A649A61228B521A1A61DB
:10320000E28A586342EA014221695A646268D963DA
:10321000DA602068802828D0227F0FD8202866D046
:10322000402864D004281AD045EA0265344BB845DA
:1032300045F40035DD6160D0324A44E0B0F5807F6E
:1032400004D0B0F5007FEFD12F4800E02F4840EACE
:103250000262DA61E2681A625E62596132E045EA4E
:10326000026242F40032DA61F6E7A068021DDA6217
:10327000227F45EA026545F40035DD615E625961F1
:10328000017841B1012921D0214B4FF48D71214AA0
:10329000214837F025FADA69418822F47F42013962
:1032A00022F0100242EA01220121DA61144BDA69AC
:1032B00042F02002DA61DA699206FCD410229A60A8
:1032C0000029B9D0154A1A60BDE8F081B2F1FF01BA
:1032D000DA69408822F47F4218BF0121013822F0C8
:1032E000100242EA002242F01002DA61DEE745EA0B
:1032F0000262034B42F40032B5E742F20132E2E7E8
:1033000000B0024001230100090002000A0002008F
:1033100030C403084AC40308A2C3030801230200FF
:10332000024B1B68586803685B69184778C801201E
:1033300070B504460A4B0C300026254660226060BA
:103340002672667245F8203B29461FF0AFFA04F555
:103350005A63EE6024359D42FBD1204670BD00BF0C
:1033600090C40308034B1A68D207FCD423229A6046
:10337000704700BF00B00240094B5A69D2030AD51A
:10338000BFF34F8F08440029A0EB010204DCBFF318
:103390004F8FBFF36F8F70472039C3F86822F2E771
:1033A00000ED00E030B5104C2568ED07FCD4232576
:1033B0000904FF2BA56041F001014FF00205656390
:1033C0006164E0630AD00949656241EA0363E3612D
:1033D000074B22626061E060236030BDE561039BC2
:1033E000A363044BF8E700BF00B0024009000100EE
:1033F000010002000100030030B50F4C2568ED0705
:10340000FCD423251204FF2BA56042F001024FF0EB
:10341000020565636264E063E16008D01B0643F067
:103420000213E361054B65626061236030BD044BAC
:10343000E3610123F9E700BF00B002400100020090
:10344000020002FF30B50B4C2568ED07FCD42325A4
:1034500012041B06A56042F00102022543F400336A
:1034600065636264E063E160E361034B6562606130
:10347000236030BD00B00240010002004069704787
:1034800090F844007047036B23B9C06A003818BF36
:10349000012070470120704780687047043010B5E4
:1034A0000C460FC884E80F0010BD704708B5034AEA
:1034B00040F21221024B034837F012F9D8C4030836
:1034C000A109040833C5030810B50446482136F0A5
:1034D000DEF9204610BD00002DE9F0431D46ADF594
:1034E0001F7D436B06460F469046BDF89842002B61
:1034F00035D0002203A8DFF8A490CDE901320EF008
:103500004DF84FF4F4725021249024A807F0FBFFEB
:103510004246394624A808F04FFF012124A808F0AC
:10352000EDF8022324A88DF8D83008F088F92B9BF9
:10353000419AA342BDF89C7228BF23469742A4EB50
:10354000030428BF174603EB43086400479B9F42D0
:1035500009D824A808F0F4F824A808F021F80DF5FB
:103560001F7DBDE8F083012201A924A808F0B0F96D
:10357000736B03EB0800984201D82544E6E75978BD
:103580009A78C90009EA022201F4FC610A4313F89F
:10359000031B42EAD10225F8022BECE700F8FFFFFB
:1035A0000A4A02600022C0E90522C0E90722C0E9F8
:1035B0000922C0E90B22C0E90D12C0E90F2280F8F0
:1035C0004420C0E90322C0E9012270470CC8030867
:1035D00010B40C4611461A46036B3BB1036C806B6A
:1035E000E41A20445DF8044B37F0ECBBC06AF8E7FE
:1035F000036B10B573B1036C826BC91A5318525C1C
:1036000098785C780004DB7840EA0420104340EAB4
:10361000036010BDC36A5858FBE7036B43B1036CEA
:10362000C91A836B5A18585C527840EA02207047D6
:10363000C36A585A7047000070B50446006B0D46C7
:103640001646D8B1E36B934208D209230D4A65218F
:103650000D4884F844300D4B37F042F80368DB68BE
:103660009847206B3246A16B03681B69984710B9D5
:103670000D2384F84430A06B256470BDE06A0844D3
:10368000FBE700BF96C5030833C5030883C50308DD
:103690002DE9F843436904462BB9234BAA21234A59
:1036A000234837F01DF808228169FFF7C5FFA1699B
:1036B00043F2300646F2643704312046FFF798FFA4
:1036C000A3691844A36A00F108029A4206D30123B1
:1036D00000206361236AA361BDE8F8836369093050
:1036E0000822013320F0010120466361A161FFF748
:1036F000A3FFD4F8189020464946FFF78EFF09F142
:10370000020180462046FFF788FF09F104010546C3
:103710002046FFF76DFFB045D2D1BD42D0D1002881
:10372000CED00120D8E700BFD8C5030821C60308C2
:1037300033C503082DE9F04F0446ADF51F7D8A46D9
:103740001646816908229846FFF776FFA76920464A
:10375000391DFFF74DFF07F10801024605462046D7
:10376000FFF76AFF636B074633B93C4B40F2AB117E
:103770003B4A3C4836F0B4FF002203A8CDE90132B1
:103780000DF00CFF4FF4F4725021249024A807F0A0
:10379000BAFE2A46394624A808F00EFE012124A8C4
:1037A00007F0ACFF022324A88DF8D83008F047F8C2
:1037B000BAF90250479BAB4229D3BAF900904FEABD
:1037C0004808BAF804702B9B08FB05664F44BAF80A
:1037D0000250DFF894B03FB29F4228BF1F46BAF8AC
:1037E000063009EB490A1D44419B2DB29D4228BF7A
:1037F0001D46479BAB4210D324A807F0A1FF24A885
:1038000007F0CEFE01200DF51F7DBDE8F08F0122EF
:1038100001A924A808F05CF8CCE7012201A924A89A
:1038200008F056F8626B49465244B94202F103026D
:1038300001D34644DDE712F8020C12F8013CC00047
:103840000BEA032300F4FC60034312F8030C43EA81
:10385000D00326F811300131E7E700BF54C6030852
:10386000AAC6030833C5030800F8FFFF012903684F
:1038700038BF0121DB6A70B50D4604469847A8425F
:1038800004D223682046DB6A984705466B1EE6692A
:103890001022204606EB031606F10801FFF7CCFEC6
:1038A00006F110012046FFF7A3FE236A043B034400
:1038B000C4E9055370BD0000002148222DE9F04104
:1038C0000446816180F84410FFF7B6FEA669042320
:1038D000624A31462046FFF77BFE40B10323604A2F
:1038E000F22184F844305F4B5F4836F0F9FE06F170
:1038F000080104235D4A2046A161FFF769FE30B14B
:103900000423574AFA2184F84430594BECE706F176
:103910000C010423574A2046A161FFF759FE0746D0
:1039200038B105234E4A40F2011184F84430524B1D
:10393000DAE706F110012046FFF75AFE054620B9E6
:103940004E4B40F20711464ACEE706F11408042315
:103950004B4A20464146FFF73BFE002849D006234C
:1039600084F844300423474A06F118012046FFF743
:103970002FFE00283FD0072384F844304544424FAF
:103980000C2220462946FFF757FE05F108060423BE
:103990003A4620463146FFF71BFE94F84430002893
:1039A00048D0002B48D1A36AAB4249D805F10C039B
:1039B00004352046A3612946FFF71AFE3044294604
:1039C00060622046FFF714FE06440422204631467A
:1039D000FFF732FE04232D4A31462046FFF7F8FD5B
:1039E000002838D10123E6616361A3692362BDE841
:1039F000F0810127B6E7002FC0D006F12001204654
:103A0000FFF7F6FD4FF47A7306F13001B0FBF3F0E7
:103A100060602046FFF7ECFD06F14001A060204603
:103A2000FFF7E6FD06F14401E0602046FFF7E0FD08
:103A30002061A3E7002BB9D00A2384F84430D6E7ED
:103A4000291D2046FFF7D4FD85190C222046294662
:103A5000FFF7F2FD99E70B23EFE700BF04C7030868
:103A600022C7030809C7030833C503084FC7030863
:103A700054C703086CC7030871C7030887C7030846
:103A800093C7030898C703089DC70308A2C7030884
:103A9000C0E90A2100220263FFF70EBF10B5002320
:103AA00004460846E3620B6821639B689847A0625E
:103AB0002046BDE81040FFF7FFBE70B4BDF80C50C3
:103AC000BDF810602AB123B1CDE9035670BCFFF7F1
:103AD00003BD70BC704700002DE9F04F9946436963
:103AE00085B004460F4690462BB9294B7721294AC9
:103AF000294836F0F5FD08228169FFF79DFDA6698A
:103B000020463146FFF789FDB11C83462046FFF76A
:103B100084FD311D82462046FFF76AFD06F108014B
:103B2000A36A054642189A4226D243F230039B45C7
:103B300017D146F264339A4513D190B10246A16180
:103B40002046FFF779FD0E9B01462A462046CDF818
:103B50000080CDE901933B46FFF7AFFF6369013376
:103B60006361A3692B4405B908330133626A23F00A
:103B700001039342A36109D1012301206361236AF8
:103B8000A36180F0010005B0BDE8F08F0020F8E7E8
:103B9000D8C50308A7C7030833C503080120704729
:103BA0000C2070470C2303FB0100083070470C23E6
:103BB00003FB0100083070470120704740F2F450C9
:103BC000704740F2F45303FB01000830704740F2A5
:103BD000F45303FB010008307047012070471020A8
:103BE000704700EB01100830704700EB01100830FF
:103BF0007047084600F03ABF034B10B50446036017
:103C00001DF01BFC204610BDB4C8030810B50446C7
:103C1000FFF7F2FF1421204635F039FE204610BD93
:103C2000034B10B5044603601DF007FC204610BD91
:103C300080C8030810B50446FFF7F2FF40F2FC51BC
:103C4000204635F024FE204610BD0000034B10B581
:103C5000044603601DF0F1FB204610BD4CC803086C
:103C600010B50446FFF7F2FF1821204635F00FFE8D
:103C7000204610BD084B10B50446036000F5C56032
:103C8000FFF7BAFF04F12C00FFF7CAFF04F114009C
:103C9000FFF7DCFF204610BDE8C8030808B502485E
:103CA000FFF7E8FF08BD00BF2C71002010B50446E7
:103CB000FFF7E0FF40F29C71204635F0E8FD20461A
:103CC00010BD00002DE9F34100F046FD002405463B
:103CD00000F046FD2346014622462846009426F081
:103CE00083FD274B274A2046274D1A6001F052FCDE
:103CF000264B274A27489A6026F0DCFC2B68BFF346
:103D00005B8FDB0735D4284635F0C3FD88B3224CE2
:103D1000224B04F5C86604F1140004F12C0804F5E4
:103D2000C56723606060C4F80880E76026611DF005
:103D300085FB1B4B404663611DF080FB194B3846E9
:103D4000E3621DF07BFB184B04F23C60C4F828369C
:103D500001F0A4FC224604F23C61304601F094FCE0
:103D6000304600F083FE114836F0D8FC284635F086
:103D70009CFD0F4802B0BDE8F041FFF70BB800BF53
:103D8000D4C80120D862002028710020F8620020E9
:103D9000DC620020240000202C710020E8C8030809
:103DA0004CC8030880C80308B4C803089D3C000839
:103DB000506200207047000001481DF05ABE00BF4D
:103DC0005062002070B5274E274B284C3046284DB6
:103DD0002360FFF7ADFA28462BF08EFF254824F02C
:103DE000CDFA254B00224FF4807124481A639A863D
:103DF00083F85C209A6683F874209A67DC60C3E9D4
:103E000013121F49C3E91B121E49C3E91F011E49B2
:103E10001E48C3F884101E49C3E90422C3E90622E0
:103E2000C3E90822C3E90A22C3E90F22C3E9112228
:103E3000C3E91522C3E91822C3E901650B604FF4F9
:103E4000F07183F838200180124801804FF48871A6
:103E5000114801801148018011490A70114A1A6005
:103E600070BD00BF84630020CCBF03082471002014
:103E7000F8620020DC620020506200200000010196
:103E800001000001000444001600140074C8012061
:103E900078C8012070C8012072C801206EC80120B6
:103EA0006AC8012058C103080148FFF703B900BFE1
:103EB000846300200020704781807047C180704774
:103EC0000181704741817047704770477047704764
:103ED000704710B4C4880368121B84885B6D091B8B
:103EE00012B25DF8044B09B218474FF6FF73838195
:103EF0004FF0FF3303621368C36110607047002006
:103F000070478B88838001207047704780F82610A7
:103F1000704790F826007047002210B5B1F90840AC
:103F2000B1F90A10028042808480C18010BD002255
:103F3000028042808280C28070470177704780EDA6
:103F4000080A704780F82410704780F825107047E1
:103F500001207047983070478C307047843070472C
:103F600070470000034B902283F85A2383F85823AC
:103F7000704700BF00E100E0094A0A49D3680A48D7
:103F8000C3F30A03013B9BB20B801169C1F30A0121
:103F9000013901801364536B43F00103536370478D
:103FA00000680140CA780020C8780020014BD3F88F
:103FB000AC00704700680140024B0122C3F8AC100E
:103FC0005A62704700680140124A5369DB0370B5BA
:103FD0001ED50023C2F88430BFF34F8FD2F8803053
:103FE00043F6E074C3F3C900C3F34E335B0103EA45
:103FF0000406014646EA81750139C2F87452F9D2C5
:10400000203B13F1200FF2D1BFF34F8FBFF36F8F1F
:1040100070BD00BF00ED00E0704770477047382367
:10402000002201FB0333C25490F838300BB9036C03
:1040300083647047704780F84C10704710B5044691
:10404000582135F024FC204610BD10B504462C2123
:1040500035F01DFC204610BD10B50446BC2135F0DE
:1040600016FC204610BD000038B504461DF0EDFCDE
:1040700023689D6E22F064FF01462046A84723680E
:10408000084A2046D3F88C500023A2F57F31A84778
:10409000054B064A5A60064A1A649A644FF4FF2296
:1040A0005A6438BD00F807C08C790020E4790020FC
:1040B00000F40BC01DF0B0BC1DF0BABC1DF075BC07
:1040C0001DF0F3BD90F8252012B103685B69184715
:1040D0007047000008B531B1044B40F29711044A13
:1040E000044836F0FDFA90F8390008BDF4C803081A
:1040F00008C9030895CA030810B531B1064B40F250
:104100009111064A064836F0EBFA406811460368FA
:10411000BDE810401B6B1847F4C80308D7CA030852
:1041200095CA030808B529B1034B7A21034A04480C
:1041300036F0D6FA006908BDF4C8030888CC030835
:1041400095CA030808B529B1054B8321054A0648DD
:1041500036F0C6FA41618160C0E9063208BD00BF91
:10416000F4C8030840CE030895CA030810B50446F6
:1041700029B1274BA421274A274836F0B1FA052A4E
:1041800034D8DFE802F003292F34393E4068036851
:104190001B69984750B34FF0FF31606D04F024FF66
:1041A0000023012294F83E1084F83B3084F8392033
:1041B000A360636101B1226284F83E306362E36A06
:1041C0002BB90123206D84F83A3004F0FDFF606DB7
:1041D000BDE8104004F038BF002380F8393084F87F
:1041E0003E3003E0036200238360436110BD03623D
:1041F000002383604361F2E7002380F83930012314
:10420000EDE7003B18BF012380F83D30EEE700BF2B
:10421000F4C80308FFCF030895CA030890F82520C7
:104220001AB190F8242002B11860704770B50446A6
:10423000164629B1314BE721314A324836F050FA5F
:1042400090F8393033B1304B1B6893F86F204369D5
:1042500013444361E36A002B4DD0E169D4E9053290
:104260005343A2684A43934220D2236A002B42D090
:104270004FF0FF31606D04F0B7FE236A0BB10023ED
:10428000E362E36AFBB90125606D04F0DDFE94F89A
:1042900039300BB9236A3BB1E36A2BB90123206D96
:1042A00084F83A3004F090FF284670BD94F84C0032
:1042B0000028DDD09B1AB3FBF1F2994298BF02F1BE
:1042C000FF326262D4E7002294F83C50A362304689
:1042D000E262E2682261A2680132A260336333685D
:1042E0005B699847002DCED194F83D30002BCBD19F
:1042F00084F83950C8E70125C9E700BFF4C80308AE
:10430000D6D1030895CA030878C80120034B4FF0A3
:1043100080629A604FF080729A60704700E100E01E
:10432000084B4FF08062C3F88820BFF34F8FBFF374
:104330006F8F4FF08072C3F88820BFF34F8FBFF3A9
:104340006F8F704700E100E038B5034690F8380001
:1043500038BB01229860D8609A634FF4807258612C
:104360009A874FF4F0729861D86118625862986227
:10437000D8621863586383F83E00CA864FF4887287
:1043800081F834000A8708639A6C186102F5FF24EB
:10439000D3E9101529448C420AD9084B5821084A00
:1043A00003E0084B40F2F511074A084836F098F947
:1043B0001A6302F57F329C645A6338BD34D5030812
:1043C00074D503087AD30308AAD3030895CA03084F
:1043D000002370B5124E05468380124B036033688C
:1043E00093F85C200AB1186D00B9986803681B6BDC
:1043F00098473368B0FA80F4186D640930B10368E7
:104400001B6B9847002808BF44F001042CB9064BE9
:104410002C21064A064836F063F9284670BD00BFD5
:1044200078C801201CD803081AD7030878D70308D6
:10443000B1D7030870B5254E3568BFF35B8F15F013
:10444000010540D1304635F024FA00283BD0204CFD
:10445000204B04F134002561E584A562A585C4E9FB
:104460000035C4E9025524F06CFA04F158001FF03D
:10447000E1FE194B2046A365184B40F8843BFFF73B
:10448000A7FF174B1748C4F884302433C4F8905062
:10449000C4F88C304FF4C803C4F89C50C4F8A8503A
:1044A000C4E928350023C4F8AC30C4F8B030C4F8EF
:1044B000B430C4F8B8300C4BC4F8983036F02EF94C
:1044C000304635F0F2F9024870BD00BFCC780020CC
:1044D000D07800201C3104083CD80308B4D8030865
:1044E000D0300408613F0008B030040838B5184CDB
:1044F00023685BB3174B184A1B6C11888B4216D18B
:10450000164B0025198803F00DFA236893F86E20E6
:1045100083F88050013283F86E20FEF775FD206825
:104520001EF05AF82846BDE83840FEF75FBB03F09E
:10453000F9F92468236820461B6A98470123002064
:1045400084F88030BDE83840FEF780BB38BD00BF3E
:1045500078C8012000680140CA780020C87800208F
:104560002DE9F74304464FF4707894F83A304FF051
:10457000FF31002B31D0606D04F036FD276BA36A4C
:10458000BB4200D1676B266A656856B32B6831461B
:1045900028465B6A98470023236284F83B30606DAD
:1045A00004F052FD2B684FF4F0723946CDF80080CC
:1045B00028465E694FF48873B0474FF0FF310646D6
:1045C000606D04F011FD94F83B30E3B1002384F8F2
:1045D0003B30606D04F038FDC7E7206D04F0B8FD96
:1045E000C3E7636A002BDAD02B682846D3E9099326
:1045F0009847616A01442846C847A368626A6662B0
:104600001344A360CBE7E7625EB12B6828469B6A40
:10461000984701380023E06084F83C6084F83A3021
:10462000D7E70120F6E70000014808B5FFF798FF3B
:104630008C7900200368042270B504465E6A00236A
:104640000D46B0474FF0FF31606D04F0CDFC3823CC
:1046500003FB0542D16A09B10021D16203FB054584
:10466000012385F83B30002385F83930606DBDE8C3
:10467000704004F0E9BC38B500EB810304460D46F8
:10468000114658680368DB68984729462046FFF7BB
:10469000D1FF38BD70B50D461146044600EB8502CA
:1046A0005068026896681A46B04729462046FFF7C8
:1046B000C1FF70BD38B5164900251648FEF770FFDA
:1046C000154C164B01202A46294623604FF480736F
:1046D000A564A38784F84C0084F83E50C4E91055C3
:1046E000C4E91455C4E90155C4E90355C4E90555A5
:1046F000C4E90755C4E90955C4E90B55C4E90D558A
:1047000004F0CEFC2065284604F02CFC606538BD22
:104710002C7A0020E47900208C79002000D903084D
:10472000704710B50446042135F0B1F8204610BD9D
:10473000012908B506D0022908D059B900F076FF42
:10474000006808BD00F072FF4068FAE700F06EFFF5
:104750008068F6E70020F4E7004870474CD903086A
:104760000120704713B5002451B1036801AA0194D8
:104770008DF803409C680DF10303A04702B010BD03
:104780000846FBE7C0897047008A7047C0887047B9
:1047900080887047807A00F07F007047807AC00977
:1047A00070470020704700009FED010A704700BF6E
:1047B00000000000704710B50446082135F067F886
:1047C000204610BD7047704700F598730868496827
:1047D00003C37047704770474160704770470000DF
:1047E000064BC0F84801C0F84C310023C0F85031E6
:1047F00000F5A273C0F84031704700BFA14800081F
:104800000123037270477047704710B44168034634
:10481000C2689B68541001EB6200D20748BF0A5976
:104820005DF8044B48BFD35818470346406830B181
:104830009A681AB9D86800F00100704701207047E3
:1048400010B504460C2135F022F8204610BD10B5F5
:104850000446102135F01BF8204610BD10B5044663
:104860004FF4AE7135F013F8204610BD10B522F0AC
:1048700067FB0368BDE81040DB6B184710B50446C2
:10488000D0F8400158B10368DB68984738B1D4F8D4
:10489000400103689B6898470023C4F8403110BD6D
:1048A0002DE9F14FD0E9556A0746B06803681B6AE5
:1048B000984740F2F353984205D8444BA321444A09
:1048C000444835F00DFF706803681B6A98470F284D
:1048D00003D8414BA4213E4AF2E7F06803681B6A03
:1048E00098470B2803D83D4BA521394AE8E7DFF864
:1048F000F49022F025FB043022F047FBD9F80000A9
:1049000010B10368DB689847D9F8000010B103685C
:104910001B689847DFF8D080D8F8000010B1036812
:104920005B699847D7F83C0110B103685B6898470A
:10493000D8F8000010B103681B689847D7F83C010D
:1049400010B103689B689847F06800214FF0000B96
:1049500003685B6A9847224B0446C0F804B080F8AD
:1049600008B059460360B06803685B6A984705461B
:1049700000F07CFF7068594603685B6A98470646FA
:10498000294600F0F9FE331DC7F83C612846C9F8F6
:104990000040C8F80050CAF800302B68C6F808A0DC
:1049A000DB68EE639847336830461B6898472146BA
:1049B000284624F010FC236820461B69984723688A
:1049C00020465B6901B0BDE8F04F184770D9030875
:1049D000FED90308D0DA030817DB0308BADB0308A3
:1049E000D4DC0308C0C80120C4C80120044B1B68E4
:1049F00093F85C200AB1186D00B99868704700BF41
:104A000078C80120F8B5174604460E4622F062FB2E
:104A1000124B00251C602946114B2360114BC4E941
:104A20005135114B1868C4E953550368C4E94F5513
:104A30009B68C4E955769847284600F0ABFDFFF720
:104A4000D5FF2DF00AF8FFF7D1FF2DF081F8FFF721
:104A5000CDFF2DF089F82046F8BD00BFC8C8012061
:104A600080DC030868DC030878C80120064BC0F826
:104A70004801C0F84C310023C0F8503100F5A27352
:104A8000C0F84031704700BFA1480008406A704735
:104A9000806A704770470B888A889BB2D20A10B52B
:104AA0004C88C16943EA044351F82200184410BD00
:104AB00010B50446BAB1107B68B1537BD27A1B02A1
:104AC00003F4E0631A43236A03EB82031A888A42E1
:104AD00002D193F9020010BD05D80138043380B229
:104AE0000028F3D1F7E70020F5E710B504462C21A4
:104AF00034F0CDFE204610BD30B58BB00446BDF875
:104B000060500895BDF85C5007959DF8505006958B
:104B10009DF84C5005959DF8485004959DF84450DB
:104B200003959DF8405002959DF83C500195BDF8C5
:104B30003850009523F0C2FF064B20462360159B9A
:104B4000E361169B2362199B63621A9BA3620BB0FD
:104B500030BD00BFF8DC03087047704770477047EE
:104B6000704730B585B00368044601816D46014643
:104B7000D3F884303C342846984795E8070084E809
:104B8000070005B030BD30B585B0036804464181EB
:104B90006D460146D3F884303C342846984795E862
:104BA000070084E8070005B030BD00220280428083
:104BB0008280C280704780F836107047036870B5F5
:104BC00004461B6B154698472368204629465B6EB2
:104BD000BDE8704018470020704700224FF0FF31B9
:104BE0008260C0E900217047806C70477047704751
:104BF000704710B504464C2134F049FE204610BDE4
:104C000010B5044640F2F45134F041FE204610BD88
:104C100008B5FFF757FA08BD036870B55E6B044628
:104C2000114B8DB21B682BB9104B6C21104A1148E7
:104C300035F056FD1049828D0988914203D80F4BFB
:104C40006D210B4AF3E713F812200D4B1B6853F844
:104C5000220003681B6B9847291A3346204609B285
:104C6000BDE87040184700BFD8C8012058DD0308D0
:104C70009ADD0308D5DD0308CCC801201CDE03083B
:104C8000D0C80120036870B504461B6B15469847D1
:104C90002368204629465B6BBDE87040184770B515
:104CA00004461D46BDF91060FFF7ECFF2368294656
:104CB00020469B6B9847236831462046DB6BBDE856
:104CC00070401847094A4FF48071026000228184C5
:104CD000FF21826280F82610C0E90122C0E9032288
:104CE000C0E90522C0E90722704700BFE03104088F
:104CF0004FF48071002281840D49026381624FF676
:104D0000FF71028781854FF47F01C26341630949C6
:104D1000826401604FF0FF31C0E90122C0E9032243
:104D2000C0E90522C0E90722C0E91012704700BFA0
:104D300068D90308B0DE03082DE9F04F044693B0AC
:104D4000002524F0ADF827467A4B04F16C0A04F1F3
:104D50009809E56304F1C40847F8403B3846FFF77B
:104D6000B1FF5046FFF7AEFF04F1F00B484604F5E3
:104D7000BA76FFF7A7FF4046FFF7A4FF5846FFF7B4
:104D8000A1FF04F58E7318460993FFF79BFF04F506
:104D9000A47318460A93FFF795FF3046FFF7A8FF64
:104DA00004F5E07318460393FFF7A2FF04F50373BD
:104DB00018460493FFF79CFF04F5167318460593F5
:104DC000FFF796FF04F5297318460693FFF790FF47
:104DD00004F53C7318460293FFF78AFF04F54F73FE
:104DE00018460793FFF784FF04F56273184608938B
:104DF000FFF77EFF4FF488732A4638462946009312
:104E00004FF4F073FFF74BFF4FF07F4339462527F0
:104E1000A366231D18460B931CF025FBB0225046B9
:104E200080234FF4B0710097FFF739FF424B514692
:104E3000201DC4F8943004F5757A1CF014FB71221F
:104E4000484680234FF4B0710097FFF728FF3B4B93
:104E50004946201DC4F8C0301CF005FB28224046FE
:104E600080234FF4B0710097FFF719FF344B414690
:104E7000201DC4F8EC301CF0F6FAEB224FF4F0736E
:104E8000294658460097FFF70AFF2E4B66275946DA
:104E9000201DC4F818311CF0E6FA6F2240F23F13CF
:104EA000294609980097FFF7FAFE274B0999201D1C
:104EB000C4F844311CF0D7FA2A4640F23F13294681
:104EC0000A9800970CAFFFF7EAFE204B0A99201DC5
:104ED000C4F870311CF0C7FA2A4629463046FFF75D
:104EE000D1FEDFF87C90D4F8743131463846C4F8EE
:104EF000A491D3F88430A4F8A8519847DFF86480CF
:104F000004F5D87397E8070083E80700D8F8003065
:104F10002BB90F4B60210F4A0F4835F0E1FBDFF84A
:104F200048B0BBF80030072B20D80C4B6121094A50
:104F3000F2E700BF40DF03080800FFFF00FF04FFA7
:104F4000FF9100FF24A3BDFF306600FF823400FF05
:104F500058DD03085ADE0308D5DD03081CDE03080C
:104F6000FFE37DFFD8C80120CCC80120D74B072123
:104F7000186800F04BFBD64A03461021504625F036
:104F80008CFB3046C4F8BCA11FF058FADFF848A3E8
:104F90000823304610A9CDF840A0ADF844301FF0EA
:104FA0006DFA3146201D1CF05EFA712229460398E5
:104FB000FFF768FED4F8C03103993846D3F884303F
:104FC00004F57D76C4F8F091A4F8F451984704F5FF
:104FD000FE7397E8070083E80700D8F80030002B3D
:104FE00097D0BBF80030052B9FD9B84B052104F2B0
:104FF0001449186800F00AFBB54A034610213046F0
:1050000025F04BFB0398C4F808621FF017FA0F2332
:1050100010A90398ADF84430CDF840A01FF02EFA47
:105020000399201D1CF01FFA282229460498FFF737
:1050300029FEA84ED4F80C3238460499D3F88430AF
:10504000C4F83C62A4F84052984704F5127397E8FC
:10505000070083E80700D8F80030002B3FF459AF71
:10506000BBF80030062B7FF660AF984B062118681E
:1050700000F0CCFA964A03464021484625F00DFB45
:105080000498C4F854921FF0D9F90E2310A904987B
:10509000ADF84430CDF840A01FF0F0F90499201D80
:1050A0001CF0E1F9962229460598FFF7EBFDD4F8AC
:1050B000583205993846D3F88430C4F8886204F22F
:1050C0009446A4F88C52984704F5257397E8070096
:1050D00083E80700D8F80030002B3FF41AAFBBF884
:1050E0000030042B7FF621AF784B0421186800F0C4
:1050F0008DFA774A03464021304625F0CEFA0598CE
:10510000C4F8A0621FF09AF90D2310A90598ADF814
:105110004430CDF840A01FF0B1F90599201D1CF0D6
:10512000A2F9F12229460698FFF7ACFD4FF0FF33B4
:1051300006993846C4F8D432D4F8A432A4F8D85228
:1051400004F21455D3F88430984704F5387397E87F
:10515000070083E80700D8F80030002B3FF4D9AEF1
:10516000BBF80030032B7FF6E0AEDFF8608103214F
:105170000DF130094FF0FF36D8F80000574600F027
:1051800045FA534A03464021284604F2945B25F031
:1051900084FA0698C4F8EC5200251FF04FF90C234E
:1051A00010A90698ADF84430CDF840A01FF066F97C
:1051B0000699201D1CF057F92E2240F27511029815
:1051C000FFF760FDD4F8F03202994846D3F88430F6
:1051D000C4F82063A4F824539847029BDFF8FCA08E
:1051E0003C3399E8070083E80700DAF80030002B29
:1051F0003FF48FAEDFF8E890B9F80030022B7FF66D
:1052000094AE0221D8F8000000F000FA304A0346BC
:105210001021584625F041FA0298C4F838B304F238
:10522000B45B1FF00BF90B2310A90298ADF84430C2
:1052300010971FF023F90299201D1CF014F9772212
:105240004FF4BC710798FFF71DFDDAF80030C4F881
:105250006C63A4F87053C4F88053C4E9DE56002B85
:105260003FF457AEB9F80030012B7FF65EAE012156
:10527000D8F8000000F0CAF9154A03461021584634
:1052800025F00BFA0798C4F884B31FF0D7F80A2367
:1052900010A90798ADF8443010971FF0EFF8079960
:1052A000201D1CF0E0F8B62240F273110898FFF7B9
:1052B000E9FCDAF80030C4F8B863A4F8BC53C4F8C9
:1052C000CC53C4E9F15604F2D4560BE0D4C8012003
:1052D00098F7030800FFD4FF68D90308D8C8012055
:1052E000CCC80120002B3FF414AEB9F80030002BDD
:1052F0003FF41BAE2946D8F8000000F087F90D4AAC
:1053000003461021304625F0C8F90898C4F8D06348
:105310001FF094F8092310A90898ADF844301097AD
:105320001FF0ACF8201D08991CF09DF8204613B022
:10533000BDE8F08F98F703087047000030B5174DAF
:105340008FB02C68BFF35B8F14F0010422D1284684
:1053500034F09FFAF0B13F23282211490993114BF1
:1053600011480893114B0A94079301230194049365
:10537000CDE905430423CDE902430F23CDE90B44D6
:1053800000931223FFF7B8FB094835F0C7F9284608
:1053900034F08BFA04480FB030BD00BFAC81002060
:1053A0003C1B0090883C0408B0810020143D040898
:1053B000395300087047000030B5174D8FB02C6886
:1053C000BFF35B8F14F0010422D1284634F061FA58
:1053D000F0B13F232B2211490993114B1148089337
:1053E000114B0A940793012301940493CDE90543DB
:1053F0000423CDE902431423CDE90B440093182381
:10540000FFF77AFB094835F089F9284634F04DFA60
:1054100004480FB030BD00BFDC8100206C1D00903F
:10542000B43C0408E0810020183D0408B55300088E
:105430007047000030B5164D8FB02C68BFF35B8FFE
:1054400014F0010420D1284634F023FAE0B13F23C0
:10545000012210490993104B10480893104B0A94ED
:105460000594CDE906430423CDE903322823CDE991
:105470000B440093CDE90144FFF73EFB094835F0AA
:105480004DF9284634F011FA04480FB030BD00BF82
:105490000C820020C81F0090103D040810820020DC
:1054A0001C3D04083154000800207047002070475C
:1054B0000EB403B503AB002153F8042B019322F083
:1054C00085FD02B05DF804EB03B070470CB407B57E
:1054D00004AB53F8042B019322F078FD03B05DF880
:1054E00004EB02B070470000436C10B5044673B380
:1054F000038F2BB9184BC521184A194835F0F0F81D
:10550000C38E00EB43035B8C0BB324F064FB238F4F
:10551000012B03D8134BCB21134AEEE7E28E40F662
:105520003F10531C9BB2092B194688BFA3F10A01F7
:1055300004EB4101498C814209D10A2B04EB420260
:1055400028BF0023508C04EB430358845184204629
:10555000BDE8104024F043BA6CDF030875DF030890
:1055600020E003086AE0030878E0030824F0FFB9AC
:1055700010B586B002AC84E806001A460AAB214694
:1055800005930193099B0093089B21F04DF806B009
:1055900010BD000038B518BB124B13481C681349E6
:1055A000B4B1226822440260626822440A60A268A0
:1055B00014440F4B00221A8000F038F8054600F022
:1055C00033F80C4B1C600C4B1D600C4B188007E033
:1055D0000B4B03600B4B0B600B4B1C68002CE8D192
:1055E00038BD00BF48820020408200203C8200205D
:1055F00044820020D8C80120D0C80120CCC8012096
:1056000048000090000000904CE10308044B1B6828
:1056100053F82100034B1B6803EB4000704700BFA9
:105620003C820020408200201220704700487047D2
:105630004C82002010B5054CFFF7BEFE2060FFF73E
:10564000F9FE6060FFF77AFEA06010BD4C8200207A
:1056500010B5002404600C6014601C6010BD70471D
:1056600010B504464FF4AE7134F011F9204610BD68
:1056700010B50446D0F8580100F014F82046BDE8F3
:10568000104021F0E3BC000010B50446FFF7BAF962
:10569000014B2046236010BD58E103080022026040
:1056A0007047000030B5164DA1B004462B687BB999
:1056B000144B1868A8B921B030BD206840B19DF8DE
:1056C0003C2069460368022A0CBFDB689B68984748
:1056D0000023694628681A4603F06CFE0028ECD0C7
:1056E000E6E7002310A91A4603F064FE0028E2D181
:1056F00020680028DFD0036810A91B699847DAE703
:10570000C4140020C0140020074B07B518688DF89A
:10571000071028B100230DF107011A4603F008FE17
:1057200003B05DF804FB00BFBC14002070470438D0
:1057300070477047C0680368DB6A1847A0F104002F
:10574000FFF7F8BFC06803681B6B1847A0F104009F
:10575000FFF7F8BFC06803685B6B1847A0F104004F
:10576000FFF7F8BF10B50446102134F090F820463A
:1057700010BDA0F10400F5E70022C1608260024A7A
:105780000260243242607047ACE103080121806866
:10579000FFF7BABF02218068FFF7B6BF0321806818
:1057A000FFF7B2BF70470000034B10B5044603601B
:1057B000FFF71CFA204610BDECE1030810B50446C3
:1057C000FFF7F2FF40F2F451204634F060F8204633
:1057D00010BD0B79012B70B445D1B1F90620B0F999
:1057E000C840B1F90830A242B0F9CA10B0F9CC6093
:1057F000B0F9CE500BDB3444A24208DA8B4206DB10
:1058000029448B4203DAC06B70BCFFF7BFBFB0F90D
:105810009C40B0F99E10A242B0F9A060B0F9A2502D
:105820000BDB3444A24208DA8B4206DB29448B426C
:1058300003DAC06B70BCFFF7ADBFB0F97040A24295
:1058400011DBB0F9741021448A420CDAB0F97210FD
:105850008B4208DBB0F976200A44934203DAC06B2E
:1058600070BCFFF79BBF70BC7047000010B50446CA
:10587000FFF762FA014B2046236010BDECE10308FC
:10588000FFF7B5B910B5044661B10B7853B14022AA
:1058900000F2144024F077FB04F50370BDE81040DB
:1058A00022F0BCBC10BD10B5044661B10B7853B1F9
:1058B000402200F2944024F066FB04F51670BDE827
:1058C000104022F0ABBC10BD10B5044661B10B789E
:1058D00053B1402200F2145024F055FB04F5297016
:1058E000BDE8104022F09ABC10BD30B570B1CC6854
:1058F00064B18A6852B10B6943B10D68496885602B
:10590000C1608361C0E90424002030BD4FF0FF3046
:10591000FBE773B50023456804460193A5B9836886
:1059200003B19847202300262360636901AA12214E
:1059300028469847002809DB019B03F01F03AB4270
:1059400006D1256001236360002609E06FF004069C
:105950000135202DE9D123681F2B04D8002EF1D06A
:10596000304602B070BD6FF00206F9E737B500258A
:105970004369044601AA0121006801959847A8429D
:1059800003DA6FF0040003B030BD636901AA01219E
:10599000206898470028F4DB019B5B072CD56369DE
:1059A00001AA2946206898470028EADB019BDD040C
:1059B0000ED403F40452B2F5045F01D10220E2E7F1
:1059C000980401D50320DEE7D90513D40520DAE7D2
:1059D000636901AA1F21206898470028D1DB019B39
:1059E000DA040BD503F01C03182BE7D0082BE9D001
:1059F000142BEBD10420C6E70120C4E70620C2E740
:105A00000F490020D1F8883043F47003C1F8883082
:105A10000C4B1A6842F001021A6098601A6822F072
:105A2000847222F480321A60074A5A601A6822F49B
:105A300080221A60D8604FF000638B60704700BF0F
:105A400000ED00E0003802401030002470470020D4
:105A500070470000002337B58DF807300C4B1A78DB
:105A60000AB901221A700324C5B2013CA8212846B4
:105A7000FDF7A0F814F0FF048DF807009DF807303B
:105A8000DBB201D0512BF0D19DF8070003B030BD3F
:105A90005A82002013B500240221C0B28DF80740BD
:105AA000FDF788F88DF807009DF8073003F00F0325
:105AB0008DF807309DF80730052B01D98DF8074088
:105AC0009DF80720034B9DF807005A7000229A703A
:105AD00002B010BD5A8200202DE9F74F2F4C154619
