:020000040800F2
:1000000000000520712A0008F1220008F3220008F0
:10001000F5220008F7220008F9220008000000007D
:1000200000000000000000000000000001A7000820
:10003000FB22000800000000A1A7000805A8000896
:10004000C12A0008C12A0008C12A0008C12A0008E4
:10005000C12A0008C12A0008C12A0008C12A0008D4
:10006000C12A0008C12A0008C12A0008C12A0008C4
:10007000C12A0008C12A0008C12A0008C12A0008B4
:10008000C12A0008C12A0008C12A0008C12A0008A4
:10009000C12A0008C12A0008C12A0008C12A000894
:1000A000C12A0008C12A0008C12A0008C12A000884
:1000B000C12A0008C12A0008C12A0008C12A000874
:1000C000C12A0008C12A0008C12A0008C12A000864
:1000D000C12A0008C12A0008C12A0008C12A000854
:1000E000C12A0008C12A0008C12A0008C12A000844
:1000F000C12A0008C12A0008C12A0008C12A000834
:10010000C12A0008C12A0008C12A0008C12A000823
:10011000C12A0008C12A0008FD220008C12A0008DF
:10012000C12A0008C12A0008C12A0008C12A000803
:10013000C12A000809230008C12A0008C12A0008B2
:10014000C12A0008C12A0008C12A0008C12A0008E3
:10015000C12A0008C12A0008C12A0008C12A0008D3
:10016000C12A0008C12A0008C12A0008C12A0008C3
:10017000C12A0008C12A0008C12A000800000000A6
:10018000C12A0008C12A0008C12A0008C12A0008A3
:10019000C12A0008C12A0008C12A0008C12A000893
:1001A00015230008C12A000821230008C12A0008DD
:1001B000C12A0008C12A0008C12A0008C12A000873
:0801C000C12A0008C12A000851
:1001D00010B5054C237833B9044B13B10448AFF381
:1001E00000800123237010BDA00400200000000047
:1001F00054E7030808B5034B1BB103490348AFF3A9
:10020000008008BD00000000A404002054E703089B
:1002100010F8012B11F8013B012A28BF9A42F7D0B0
:10022000D01A70470000000000000000000000002D
:1002300001F0FF01102A2BDB10F0070F08D010F897
:10024000013B013A8B422DD010F0070F42B3F6D19B
:10025000F0B441EA012141EA014122F007047FF0B4
:1002600000070023F0E80256083C85EA010586EA0B
:10027000010685FA47F5A3FA87F586FA47F6A5FA47
:1002800087F68EB9EED1F0BC01F0FF0102F0070253
:1002900032B110F8013B013A83EA010313B1F8D1FE
:1002A0000020704701387047002D06BF35460338DF
:1002B000073815F0010F07D1013015F4807F02BF18
:1002C000013015F4C03F0130F0BC0138704700BF69
:1002D00081F0004102E000BF83F0004330B54FEAF7
:1002E00041044FEA430594EA050F08BF90EA020F64
:1002F0001FBF54EA000C55EA020C7FEA645C7FEAF7
:10030000655C00F0E2804FEA5454D4EB5555B8BF19
:100310006D420CDD2C4480EA020281EA030382EA8A
:10032000000083EA010180EA020281EA0303362D1C
:1003300088BF30BD11F0004F4FEA01314FF4801CEF
:100340004CEA113102D0404261EB410113F0004F01
:100350004FEA03334CEA133302D0524263EB4303B8
:1003600094EA050F00F0A780A4F10104D5F1200E56
:100370000DDB02FA0EFC22FA05F2801841F10001B1
:1003800003FA0EF2801843FA05F359410EE0A5F185
:1003900020050EF1200E012A03FA0EFC28BF4CF0B6
:1003A000020C43FA05F3C01851EBE37101F000456C
:1003B00007D54FF0000EDCF1000C7EEB00006EEB79
:1003C0000101B1F5801F1BD3B1F5001F0CD3490803
:1003D0005FEA30004FEA3C0C04F101044FEA44525A
:1003E00012F5800F80F09A80BCF1004F08BF5FEAE1
:1003F000500C50F1000041EB045141EA050130BDC1
:100400005FEA4C0C404141EB0101013C28BFB1F5D2
:10041000801FE9D291F0000F04BF01460020B1FA1D
:1004200081F308BF2033A3F10B03B3F120020CDAF0
:100430000C3208DD02F1140CC2F10C0201FA0CF0CE
:1004400021FA02F10CE002F11402D8BFC2F1200C33
:1004500001FA02F120FA0CFCDCBF41EA0C019040E9
:10046000E41AA2BF01EB0451294330BD6FEA040432
:100470001F3C1CDA0C340EDC04F11404C4F120021D
:1004800020FA04F001FA02F340EA030021FA04F32F
:1004900045EA030130BDC4F10C04C4F1200220FA86
:1004A00002F001FA04F340EA0300294630BD21FAC4
:1004B00004F0294630BD94F0000F83F4801306BF8A
:1004C00081F480110134013D4EE77FEA645C18BF7E
:1004D0007FEA655C29D094EA050F08BF90EA020F15
:1004E00005D054EA000C04BF1946104630BD91EA0D
:1004F000030F1EBF0021002030BD5FEA545C05D110
:100500004000494128BF41F0004130BD14F580044E
:100510003CBF01F5801130BD01F0004545F0FE41C2
:1005200041F470014FF0000030BD7FEA645C1ABFF7
:10053000194610467FEA655C1CBF0B46024650EA2E
:10054000013406BF52EA033591EA030F41F400215A
:1005500030BD00BF90F0000F04BF0021704730B5E0
:100560004FF4806404F132044FF000054FF00001B5
:1005700050E700BF90F0000F04BF0021704730B576
:100580004FF4806404F1320410F0004548BF40424B
:100590004FF000013EE700BF42004FEAE2014FEAA0
:1005A00031014FEA02701FBF12F07F4393F07F4F7B
:1005B00081F06051704732F07F4208BF704793F07E
:1005C0007F4F04BF41F40021704730B54FF4607491
:1005D00001F0004521F000411CE700BF50EA010294
:1005E00008BF704730B54FF000050AE050EA01023D
:1005F00008BF704730B511F0004502D5404261EBAD
:1006000041014FF4806404F132045FEA915C3FF4ED
:10061000D8AE4FF003025FEADC0C18BF03325FEA8A
:10062000DC0C18BF033202EBDC02C2F1200300FA3B
:1006300003FC20FA02F001FA03FE40EA0E0021FA60
:1006400002F11444BDE600BF70B54FF0FF0C4CF44E
:10065000E06C1CEA11541DBF1CEA135594EA0C0F00
:1006600095EA0C0F00F0DEF82C4481EA030621EA3B
:100670004C5123EA4C5350EA013518BF52EA033576
:1006800041F4801143F4801338D0A0FB02CE4FF028
:100690000005E1FB02E506F00042E0FB03E54FF058
:1006A0000006E1FB03569CF0000F18BF4EF0010E50
:1006B000A4F1FF04B6F5007F64F5407404D25FEA4C
:1006C0004E0E6D4146EB060642EAC62141EA5551FF
:1006D0004FEAC52040EA5E504FEACE2EB4F1FD0C41
:1006E00088BFBCF5E06F1ED8BEF1004F08BF5FEABF
:1006F000500E50F1000041EB045170BD06F0004671
:1007000046EA010140EA020081EA0301B4EB5C041D
:10071000C2BFD4EB0C0541EA045170BD41F4801115
:100720004FF0000E013C00F3AB8014F1360FDEBF3A
:10073000002001F0004170BDC4F10004203C35DA16
:100740000C341BDC04F11404C4F1200500FA05F399
:1007500020FA04F001FA05F240EA020001F000423A
:1007600021F0004110EBD37021FA04F642EB0601B0
:100770005EEA430E08BF20EAD37070BDC4F10C04DA
:10078000C4F1200500FA04F320FA05F001FA04F29E
:1007900040EA020001F0004110EBD37041F100018A
:1007A0005EEA430E08BF20EAD37070BDC4F1200595
:1007B00000FA05F24EEA020E20FA04F301FA05F2FD
:1007C00043EA020321FA04F001F0004121FA04F2A5
:1007D00020EA020000EBD3705EEA430E08BF20EA75
:1007E000D37070BD94F0000F0FD101F000464000AF
:1007F00041EB010111F4801F08BF013CF7D041EA31
:10080000060195F0000F18BF704703F00046520034
:1008100043EB030313F4801F08BF013DF7D043EA05
:100820000603704794EA0C0F0CEA135518BF95EABB
:100830000C0F0CD050EA410618BF52EA4306D1D142
:1008400081EA030101F000414FF0000070BD50EA61
:10085000410606BF1046194652EA430619D094EAEB
:100860000C0F02D150EA013613D195EA0C0F05D1D5
:1008700052EA03361CBF104619460AD181EA030129
:1008800001F0004141F0FE4141F470014FF00000E1
:1008900070BD41F0FE4141F4780170BD70B54FF07C
:1008A000FF0C4CF4E06C1CEA11541DBF1CEA1355FC
:1008B00094EA0C0F95EA0C0F00F0A7F8A4EB0504DE
:1008C00081EA030E52EA03354FEA013100F08880D5
:1008D0004FEA03334FF0805545EA131343EA12639E
:1008E0004FEA022245EA111545EA10654FEA002653
:1008F0000EF000419D4208BF964244F1FD0404F50C
:10090000407402D25B084FEA3202B61A65EB030567
:100910005B084FEA32024FF480104FF4002CB6EB24
:10092000020E75EB030E22BFB61A754640EA0C00A4
:100930005B084FEA3202B6EB020E75EB030E22BFE4
:10094000B61A754640EA5C005B084FEA3202B6EB25
:10095000020E75EB030E22BFB61A754640EA9C00E4
:100960005B084FEA3202B6EB020E75EB030E22BFB4
:10097000B61A754640EADC0055EA060E18D04FEA72
:10098000051545EA16754FEA06164FEAC30343EA12
:1009900052734FEAC2025FEA1C1CC0D111F4801FDF
:1009A0000BD141EA00014FF000004FF0004CB6E7D8
:1009B00011F4801F04BF01430020B4F1FD0C88BF77
:1009C000BCF5E06F3FF6AFAEB5EB030C04BFB6EB82
:1009D000020C5FEA500C50F1000041EB045170BD75
:1009E0000EF0004E4EEA113114EB5C04C2BFD4EBA2
:1009F0000C0541EA045170BD41F480114FF0000E26
:100A0000013C90E645EA060E8DE60CEA135594EAA1
:100A10000C0F08BF95EA0C0F3FF43BAF94EA0C0FA4
:100A20000AD150EA01347FF434AF95EA0C0F7FF419
:100A300025AF104619462CE795EA0C0F06D152EA6D
:100A400003353FF4FDAE1046194622E750EA410651
:100A500018BF52EA43067FF4C5AE50EA41047FF462
:100A60000DAF52EA43057FF4EBAE12E74FEA4102C5
:100A7000B2F1E04324BFB3F5001CDCF1FE5C0DD9FC
:100A800001F0004C4FEAC0024CEA5070B2F1004F46
:100A900040EB830008BF20F00100704711F0804F49
:100AA00021D113F13872BCBF01F00040704741F40E
:100AB00080114FEA5252C2F11802C2F1200C10FA12
:100AC0000CF320FA02F018BF40F001004FEAC123F6
:100AD0004FEAD32303FA0CFC40EA0C0023FA02F39A
:100AE0004FEA4303CCE77FEA625307D150EA013370
:100AF0001EBF4FF0FE4040F44000704701F0004040
:100B000040F0FE4040F40000704700BF7BB972B96E
:100B10000029BEBF00204FF0004106E008BF0028BA
:100B20001CBF6FF000414FF0FF3000F0B5B9ADF1E0
:100B3000080C6DE904CE002909DB002B1ADB00F05C
:100B40004DF8DDF804E0DDE9022304B070474042CF
:100B500061EB4101002B1BDB00F040F8DDF804E005
:100B6000DDE9022304B0404261EB4101524263EBF4
:100B700043037047524263EB430300F02FF8DDF864
:100B800004E0DDE9022304B0404261EB410170471B
:100B9000524263EB430300F021F8DDF804E0DDE9A5
:100BA000022304B0524263EB4303704753B94AB97E
:100BB000002908BF00281CBF4FF0FF314FF0FF3065
:100BC00000F06AB9ADF1080C6DE904CE00F006F84A
:100BD000DDF804E0DDE9022304B070472DE9F047B9
:100BE000089D0C46002B4ED194468C458646B2FAA1
:100BF00082F262D94AB1C2F12003914020FA03F394
:100C00000CFA02FC194300FA02FE4FEA1C471FFAD5
:100C10008CF6B1FBF7F44FEA1E4307FB141143EACD
:100C2000014304FB06F199420AD91CEB030304F1CA
:100C3000FF3080F01281994240F20F81023C634400
:100C4000591A1FFA8EF3B1FBF7F007FB101143EAB4
:100C5000014300FB06F69E420AD91CEB030300F198
:100C6000FF3180F0FC809E4240F2F98063440238FC
:100C70009B1B40EA044000211DB1D3400022C5E97E
:100C80000032BDE8F0878B4205D90DB1C5E90001FE
:100C900000210846F5E7B3FA83F1002946D1A342C3
:100CA00002D39042C0F0F080861A64EB0303012067
:100CB000002DE6D0C5E90063E3E7002A40F090800C
:100CC000A1EB0C044FEA1C481FFA8CF70121B4FB7E
:100CD000F8F64FEA1E4308FB164443EA044307FBB9
:100CE00006F0984208D91CEB030306F1FF3402D248
:100CF000984200F2CD8026461C1A1FFA8EF3B4FBF0
:100D0000F8F008FB104443EA044300FB07F79F4256
:100D100008D91CEB030300F1FF3402D29F4200F21A
:100D2000B0802046DB1B40EA0640A5E7C1F1200663
:100D30008B4022FA06F71F4320FA06FC04FA01F35F
:100D400043EA0C03F44000FA01F8380C4FEA134967
:100D5000B4FBF0FE1FFA87FC00FB1E4449EA044482
:100D60000EFB0CF9A14502FA01F20AD93C190EF169
:100D7000FF3A80F08480A14540F28180AEF1020EFE
:100D80003C44A4EB09041FFA83F9B4FBF0F300FB25
:100D9000134449EA044403FB0CFCA44507D93C195D
:100DA00003F1FF3067D2A44565D9023B3C4443EAD6
:100DB0000E40A0FB0293A4EB0C049C42CE469C4642
:100DC00051D34ED055B1B8EB0E0364EB0C0404FACA
:100DD00006F6CB401E43CC40C5E90064002150E735
:100DE000C2F1200320FA03F10CFA02FC24FA03F307
:100DF00094400C434FEA1C4800FA02FE1FFA8CF79D
:100E0000B3FBF8F008FB1031230C43EA014300FB6D
:100E100007F1994208D91CEB030300F1FF362CD2ED
:100E200099422AD9023863445B1AA4B2B3FBF8F1A1
:100E300008FB113344EA034401FB07F3A34208D93A
:100E40001CEB040401F1FF3613D2A34211D902397D
:100E50006444E41A41EA004139E70446F0E60846F2
:100E600006E7C845AED2B9EB020E63EB070C0138BA
:100E7000A8E73146EDE7034699E73046D4E7D64682
:100E80007FE7634402384DE70646234608460FE7EE
:100E9000023E634430E700BF704700BF2DE9F04FCA
:100EA0009046012700F01F0200288BB0064607FA83
:100EB00002F74FF47A72B8BF00F11F0600248A4689
:100EC00005467611A34693FBF2F902FB19334FEA6C
:100ED000E9715343039102930AAB03EB860604A91D
:100EE000681CCDF81890CDE904BB56F8183C3B437C
:100EF00046F8183C039B0793029B089306AB0093AC
:100F000000231A461CF060FE002802DC4FF0FF347C
:100F100010E056F8183C1F42F8D00023A8EB04025A
:100F20000AEB040128461CF069FD0028EEDD0444AC
:100F3000A045D4DC20460BB0BDE8F08FF8B50646DE
:100F40000F4615460024AC4201DB0020F8BD00230B
:100F50002A1B391930461CF0CBFD031E01DD1C4451
:100F6000F1E74FF0FF30F1E710B590B000240146F3
:100F70003F2268468DF83F403CF0BEFC044B1868A9
:100F800020B123462246694609F08EF910B010BD03
:100F9000C01400202DE9F04F5C4C97B0D4F80250FB
:100FA0002DBA092D03D925440A34A54202D817B019
:100FB000BDE8F08F23783F2BF9D8231D9D42F6D34F
:100FC0006288218852BA92B2032AF0D91444A54209
:100FD000EDD3B1F5704FE8D100210E4689468A461F
:100FE0000EE093F900001A78002853DA02F07F022D
:100FF000012A08D1DF1CBC4201D393F802A03B4672
:101000009C42EED825E0062A05D19F1CBC42F6D3AF
:1010100093F90190F3E70D2A11D103F10D07BC42BA
:10102000EDD30029EBD1D3F801006A46D3F80510BF
:101030000C2603C2D3F8090001211060DFE7013A52
:10104000D2B20F2A05D83248875C17B11F44BC4280
:10105000D5D20029A9D04022002106A8EB460DF1E7
:101060001C0800273CF02EFC2A4906A83CF0DBFCBB
:10107000FBB2294AB3423ED3284B8DF854A01868DE
:101080008DF85590002890D0002306A91A4609F043
:101090000BF98AE71A1D9442DBD35A88188852BA92
:1010A00040BA92B2C0F30D00032AD2D99F18BC42B5
:1010B000CFD3F128A3D10029A1D1052A9FD9B3F814
:1010C000048098FA98F81FFA88F808F10708C8F31E
:1010D000C708B8F1180F28BF4FF0180808F106002C
:1010E000C0B290428BD8991D4246684646463CF0B5
:1010F000A2FC012183E740461BF8013B0321013795
:1011000008F102083CF088FAB2E700BFBC040020F6
:101110003AE90308B0E70308B5E70308C414002060
:101120002DE9F041DFF85C800A22154F0646D8F819
:1011300000303946FFF7B2FE0A281BD1D7F802303B
:1011400040F6F6721CBAA4F10A05954215D8B3F11F
:10115000206F02D12046BDE8F081D8F800302A4641
:1011600007F10A013046FFF799FE8542F2D06FF091
:101170000B00F0E76FF00900EDE76FF00A00EAE717
:10118000BC040020040000201FB5194A13885BBA74
:10119000C3F309033E2B1FD1D2F8062044F6040105
:1011A00013BA01918DF80A204FF420611A0C5BBA32
:1011B000ADF8081001A98DF80B200A22ADF80C300B
:1011C000FFF7BCFE30B90B48FFF7CEFE012005B09B
:1011D0005DF804FB0848F7E73F2B01D10748F3E728
:1011E0003D2B02D1FFF7D6FEF0E70020EFE700BF6E
:1011F000BC040020BAE70308C1E70308CCE70308F2
:101200002DE9F047804692B089461546384FDFF801
:10121000F4A04046FFF784FF00280FDC2B46354A38
:10122000402100904FF0FF3402A83CF0F5F902A8ED
:10123000FFF79AFE204612B0BDE8F08740463E8890
:10124000FFF7A2FF04460028E3D173BAC3F30903F2
:10125000994525D17B8940F21F125BBAC3F30D0378
:1012600093421AD1FB8973B15BBA9BB2224A4021E7
:10127000009302A82B466FF001043CF0CDF902A8C0
:10128000FFF772FED6E72B461C4A302102A83CF03D
:10129000C3F902A8FFF768FECCE74FF6FF73E5E756
:1012A000642B1AD17B8940F21F125BBAC3F30D0382
:1012B00093420FD1FB895BBA9BB2114A4021009344
:1012C00002A82B466FF002043CF0A6F902A8FFF733
:1012D0004BFEAFE74FF6FF73EFE7009352462B4606
:1012E000402102A83CF098F902A8FFF73DFE90E7E4
:1012F000BC040020D2E70308E4E70308DEE70308A4
:10130000EEE70308FBE703082DE9F047B34C98B07C
:10131000226822B940210A2008F080FF2060B04CEA
:10132000226822B940210A2008F078FF2060AD4FE2
:101330003A6822B90121052008F070FF386040F6B4
:10134000B830DFF8088308F0B1FDA748FFF70CFEBE
:1013500000238DF803304FF0FF3300220DF103011D
:10136000386808F0E3FF18B99DF80330012BF2D17B
:101370009E48FFF7F9FDDFF8D89242F21073002281
:1013800001210220C9F800301CF0EAFB041E05DA36
:101390009748FFF7E9FD4FF47A7020E01022002112
:1013A00001A83CF08FFA022341F2DC308DF80530C1
:1013B00019F04CFBADF806008E481AF0AFFA102277
:1013C000029001A920461CF085FA00280DDA20467B
:1013D0001CF04CFA8848FFF7C7FD4FF4FA6008F09C
:1013E00065FD8148FFF7C0FDB2E7844D8448FFF7F3
:1013F000BBFD2046FFF794FE031E10DC814A30211E
:1014000005A83CF009F905A8FFF7AEFD20461CF041
:101410002DFA42F210737C48C9F80030B9E7B8F8E9
:1014200000305BBAC3F309033F2B2AD1774E7848CB
:10143000FFF79AFD336832882046591C52BA316052
:1014400041F20451ADF81C200E2205914FF4606169
:10145000ADF81810190E1B0C8DF81A1005A98DF88F
:101460001B300023ADF81E30ADF82030FFF766FDCD
:10147000002819DA6748FFF777FD6748FFF774FD22
:1014800019E02046FFF780FE0028B2D1B8F80030FE
:101490002A46302105A85BBAC3F309033CF0BCF827
:1014A00005A8FFF761FDA4E75C4A1F212046FFF76E
:1014B000A7FE0028E1DB33684FF4807A32884FF0D2
:1014C0003740591C4FF0384552BADFF888C13160B7
:1014D00041F20441ADF81C2005914FF49641504A69
:1014E000ADF81810190E1B0C8DF81A104FF43601B8
:1014F0008DF81B304FF43143ADF81E304FF482436A
:10150000CDE9083A474BCDE90A2309234B22CDE91F
:101510000C13454B05A9CDE90E034FF4106320468B
:10152000CDE910530025414BCDE91253404B8DF8C6
:101530005E50CDE914C33F4B169341F20643ADF81C
:101540005C30FFF7FBFCA84201DA3B485CE73B4A12
:101550001E212046FFF754FE0028FFF657AF3368E0
:1015600020463288591CADF81E5052BAADF820A062
:10157000316041F60401ADF81C200E2205914FF4B4
:101580006061ADF81810190E1B0C8DF81A1005A922
:101590008DF81B30FFF7D2FC002801DA284833E72A
:1015A000284A22212046FFF72BFE0028FFF62EAF07
:1015B0002548FFF7D9FC8DF80350C82300220DF110
:1015C0000301386808F0B2FE05460028F5D19DF801
:1015D0000330022B40D0032BEFD117E7C4140020B7
:1015E000C0140020BC14002009E8030824E8030804
:1015F00032E803083FE803084BE8030885E80308DE
:101600005BE8030868E803082CE9030808000020E9
:1016100075E803088FE80308A3E803089CE80308BB
:1016200000B2001200B3000500180001BA00070064
:10163000000D01000100EE00AFE80308BCE803085C
:10164000C3E80308D0E80308D7E80308BC04002077
:1016500004000020010100ED33683288591CADF808
:101660001E0052BA2046316041F20461ADF81C20E0
:101670000E2205914FF46061ADF81810190E1B0C85
:101680008DF81A1005A98DF81B304FF48073ADF852
:101690002030FFF753FC002801DA2A48B4E62A4A32
:1016A00020212046FFF7ACFD0028FFF6AFAE27480B
:1016B000FFF75AFC4FF4FA63C9F8003000230DF12C
:1016C000030138681A4608F031FE28B99DF8033046
:1016D000032B01D11E4897E62046FFF721FD002885
:1016E00007DC0A300CBF013505350F2DE6DD194842
:1016F0008AE6B8F800305BBAC3F309033D2B06D184
:10170000FFF748FC0120002508F0D0FBD6E73E2B70
:10171000F8D1D8F8062044F60401204613BA059102
:101720008DF81A204FF420611A0C5BBAADF818102E
:1017300005A98DF81B200A22ADF81C30FFF7FEFB2F
:10174000E0E700BFF2E80308FFE8030806E9030842
:1017500012E903081DE90308054C08B500F040FE36
:10176000636803B100BF4FF47A7008F09FFBF7E79E
:101770005817002010B594B01022002102240AA8A6
:101780003CF0A0F81422002103A83CF09BF81D4B6C
:10179000192108A81A6C42F080521A641B6C03F0DD
:1017A00080530193019B184B1A6842F440421A601F
:1017B00001221B6803F440430293029B4FF48033E1
:1017C000CDE908234FF48003CDE90E434FF4D873DD
:1017D000CDE91244CDE9101307F01EFB07F07AF8AB
:1017E0000F2300200721CDE903344FF4A053CDE9A6
:1017F00005034FF4805303A8079307F0F5FC14B0DA
:1018000010BD00BF003802400070004030B54FF4FA
:1018100080738FB04FF080720E4D06939F23099214
:101820000122009300230446694628460593CDE92A
:101830000A2341F28832CDE90733CDE90C3307F0B2
:10184000B7F941F288322146284607F081FA0FB0F5
:1018500030BD00BF1C15002000B54FF4807391B05F
:101860004FF04072EF2808934FF0EB0302A90D48A8
:1018700002934FF4406309934FF4005305934FF0E4
:101880000003CDE90A3214BF0A2206220F93079201
:101890006A46CDE90D33CDE9003307F0CEF911B03A
:1018A0005DF804FB1C1500202DE980489BB0102238
:1018B000002100240DA801253CF004F8DFF8649312
:1018C00005F0DCF9C74B0DA8ADF834501094CDE904
:1018D0000E9305F0F1F9C44B0DA88DF835500E9319
:1018E0000E238DF83E508DF83C308DF84140ADF818
:1018F000424005F0E1F902230DA88DF83E408DF835
:1019000035304FF010438DF841400E931723ADF85A
:1019100042508DF83C3005F0CFF9062005F0BCF9B7
:10192000BFF34F8FBFF36F8FB04AC2F85042BFF37F
:101930004F8FBFF36F8F536943F400335361BFF38D
:101940004F8FBFF36F8FC2F88440BFF34F8FD2F831
:10195000803043F6E074C3F3C900C3F34E335B0138
:1019600003EA0406014646EA81750139C2F860526D
:10197000F9D2203B13F1200FF2D1BFF34F8F5369FF
:1019800043F480335361BFF34F8FBFF36F8F05F084
:10199000DBF80024FFF7EEFE142200210DA83BF037
:1019A00091FF934B102193481A6B01274FF01008B9
:1019B0004FF0030B42F010024FF4805A8E4D4FF05F
:1019C00004091A631A6B8D4E02F010020292029AF9
:1019D0001A6B42F040021A631A6B02F04002039243
:1019E000039A1A6B42F002021A631A6B02F00202A7
:1019F0000492049A1A6B42F001021A631A6B02F005
:101A000001020592059A1A6B42F400721A631A6B6E
:101A100002F400720692069A1A6B42F008021A63E8
:101A20001A6B02F008020792079A1A6B42F480625E
:101A30001A631A6B02F480620892089A1A6B42F0D9
:101A400020021A631A6B02F020020992099A1A6B9B
:101A500042F480721A631A6B02F480720A920A9A34
:101A60001A6B42F080021A631A6B02F080020B922A
:101A70000B9A1A6B42F004021A6300221B6B03F0EC
:101A800004030C930C9B06F0F3F9012208215C4837
:101A900006F0EEF901224FF480515A4806F0E8F9B9
:101AA0000022C021584806F0E3F90022402157489F
:101AB00006F0DEF90DA94F48CDE90D87CDE90F4BB2
:101AC00006F052F808230DA94D48CDE90D37CDE9B0
:101AD0000F4406F049F80DA94A48CDE90DA7CDE914
:101AE0000F4406F041F8C0220DA94748CDE90D2763
:101AF000CDE90F4B06F038F840220DA94348CDE957
:101B00000D27CDE90F4B06F02FF84148414984805D
:101B100001600762C0E9054405F0FAF83E4928462D
:101B2000C5E90014C5E90244C5E90A44C5E90C4405
:101B300005F08DF939462846384D05F041FA402325
:101B40004FF4C07236493046B460F461B462C6E9FD
:101B500005324FF40062C6E9082A4FF0020A072254
:101B6000C6E900140DA9CDF84CA0C6E90398CDE94B
:101B70000DA2CDE90F92CDE911BA07F091FE2946E9
:101B80004FF6FF7230460194C5E90078C5E902744A
:101B900007F0A6FE384604F0FBFF29464FF6FF7219
:101BA0003046C5E900A8C5E9027407F099FE08238C
:101BB00029464FF6FF723046C5E900B8C5E9023440
:101BC00007F08EFE4FF40C734FF6FF722946019317
:101BD0003046019BAF60EB60C5E9009807F080FEDE
:101BE00022E000BF0D0001030080042000ED00E0B2
:101BF000003802400004024064160020E81400206F
:101C00000028024000200240000802400018024064
:101C1000A41600200030024000B00240C81400208A
:101C2000400100A000C0042040F22B713046544D0A
:101C300007F075FE4FF0204343F2D202642040F2D9
:101C400015261A6004F0A4FF4E4B4F4A28462C621A
:101C5000C5E90023C5E90247C5E90444C5E90644CE
:101C600006F047FA2146284606F06AFC2146284637
:101C7000464D06F08BFC342221460DEB02003BF072
:101C800021FE434B2821352040F2352C2C61AC86B7
:101C900085F83640C5E900340923C5E905130B234F
:101CA000C5E9070340F21B132846C5E9096340F262
:101CB0001D13C5E90244C5E90BC306F00DFDFF2164
:101CC0004FF4806E4FF4F0724FF4887328460D94F1
:101CD0001893ADF864408DF86640CDE912140521E3
:101CE000CDE914E14FF04041CDE90E24CDE91612C3
:101CF00022460DA9CDE9103A06F0A2FD2548264B53
:101D00000462C0E90037C0E902984FF4A0634FF0C5
:101D10001808C0E90644C0E9048306F0F7FE0DA8E0
:101D2000FFF774FD9DF83400FFF796FD5C2004F08A
:101D300093FF00F053FB00F0C5FE00F0C2FE08F078
:101D400011F8164A2146164808F05AF8154B164A5B
:101D500021461860154808F053F8154B154A2146DE
:101D60001860154808F04CF8144B154A21461860C5
:101D7000144808F045F8144B186008F00DF8FEE719
:101D80001016002068474020005C004068150020C5
:101D9000006801401C150020001000A0E4E90308C1
:101DA00059170008E4140020C0E90308D32A0008EA
:101DB000E01400209CE9030861460008DC140020C0
:101DC00078E9030809130008D81400200268034BBF
:101DD0009A4201D104F0CABE704700BF0010004013
:101DE000704700000D4B82B00F216FF001001A6C9C
:101DF00042F080521A641A6C02F080520092009AEB
:101E00005A6C42F480425A6400225B6C03F48043B3
:101E10000193019B02B004F0DFBE00BF0038024016
:101E2000026882B0084B9A420BD1D3F8302803F5F0
:101E3000006342F480521A631B6B03F480530193D6
:101E4000019B02B0704700BF003002400E4B07B547
:101E500002689A4215D1A3F5F04305215A201A6B66
:101E600042F400021A6300221B6B03F40003019387
:101E7000019B04F0B1FE5A2003B05DF804EB04F0BE
:101E8000DDBE03B05DF804FB00B0024010B5A8B0A1
:101E900004461422002102A83BF014FD84220021F4
:101EA00007A83BF00FFD2268174B9A422AD14FF446
:101EB000803307A8079307F069FA08B1FFF790FF8E
:101EC000124C4FF4C07201211148236B43F0800380
:101ED0002363236B03F080030093009B1223CDE95F
:101EE00002230323CDE90413042302A9069305F07A
:101EF0003BFE236C43F400032364236C03F40003D0
:101F00000193019B28B010BD005C004000380240E6
:101F1000001C0240026808B5094B9A420FD1094AD9
:101F200080210948136C23F40003136405F000FFBB
:101F30004FF480710448BDE8084005F0F9BE08BDC3
:101F4000005C004000380240001C024070B5ACB09C
:101F500004461422002106A83BF0B4FC8422002190
:101F60000BA83BF0AFFC2268484B9A4240F08C80B3
:101F70000823052001240B934FF4C0731093022310
:101F8000CDE911304FF400330BA8CDE9154307F02C
:101F9000FDF908B1FFF724FF3D4B002402250E2672
:101FA0005A6C06A93B4842F080625A645A6C02F0AF
:101FB00080620092009A1A6B42F010021A631A6B48
:101FC00002F010020192019A1A6B42F400721A6335
:101FD0001A6B02F400720292029A1A6B42F4806247
:101FE0001A631A6B02F480620392039A1A6B42F02E
:101FF00040021A631A6B02F040020492049A1A6BB0
:1020000042F480721A631B6B03F480730593059B83
:102010001023CDE90635CDE908440A9605F0A4FD64
:102020004EF6FF7306A91C480A96CDE90635CDE9A0
:10203000084405F099FDF72306A918480A96CDE94A
:102040000635CDE9084405F08FFD4FF4805306A90D
:102050001348CDE906350923CDE908440A9305F074
:1020600083FD4FF4464306A90E480A96CDE906358E
:10207000CDE9084405F078FD58202246052104F0FA
:10208000ABFD582004F0DAFD2CB070BD00680140B3
:1020900000380240001002400024024000280240A4
:1020A0000018024000200240142200212DE9F041D6
:1020B0008AB004460DEB02003BF004FC22682C4B76
:1020C0009A4251D12B4B0225032409269A6B4FF0DB
:1020D000040805A9284842F0020200279A639A6B77
:1020E00002F002020192019A1A6B42F010021A6386
:1020F0001A6B02F010020292029A1A6B42F002026C
:102100001A631A6B02F002020392039A1A6B42F0EE
:1021100008021A631B6B03F008030493049BCDE9C8
:102120000585CDE9084605F01FFD402305A91348A4
:10213000CDE905350A23CDE90774099305F014FDAF
:1021400005A90E480996CDE90585CDE9077405F086
:102150000BFD4FF4605305A909480996CDE90535F3
:10216000CDE9077405F000FD0AB0BDE8F08100BFBD
:10217000001000A00038024000100240000402409D
:10218000000C0240F0B5002387B00393294B1E6872
:10219000002E4DD10122022703250C241A6001A92B
:1021A000254B26489A6B42F001029A639B6B03F021
:1021B00001030093009B4FF68373CDE90454CDE9EE
:1021C000013705F0D1FC48F2331301A91C480594EE
:1021D000CDE90137CDE9036505F0C6FC4CF2037388
:1021E00001A918480594CDE90137CDE9036505F04B
:1021F000BBFC4FF63F0301A913480594CDE9013715
:10220000CDE9036505F0B0FC282301A90F4805942A
:10221000CDE90137CDE9036505F0A6FC082301A946
:102220000B480594CDE90137CDE9036505F09CFC29
:1022300007B0F0BDC8160020003802400010024070
:1022400000180240000C024000140240001C024032
:1022500000080240214B1A6C42F0100270B51A645B
:1022600088B01B6C054601A903A803F01003029374
:10227000029B07F06DF8069B4BBB07F059F8184E10
:10228000184B336040F2E733F360174BB0FBF3F3C6
:10229000013B3046736000233361B360B36107F0E4
:1022A000A3FC044680B9304607F052FB044658B9F7
:1022B000362004F0C3FC0F2D0DD8224629463620C7
:1022C00004F08AFC094B1D60204608B070BD07F081
:1022D0002FF84000D3E70124F6E700BF00380240A2
:1022E000CC1600200010004040420F005800002093
:1022F0007047FEE7FEE7FEE7FEE77047014807F09C
:1023000069BB00BFCC160020014805F0D1BA00BF60
:10231000E4170020014806F036BA00BF6815002017
:10232000014804F0C2BD00BF6416002001207047C0
:10233000024B16224FF0FF301A607047C8D20120BE
:10234000014B16221A60FEE7C8D2012070B50D4677
:1023500014460E46731B9C4201DC204670BDAFF351
:10236000008006F8010BF5E770B50D4614460E46E1
:10237000731B9C4201DC204670BD16F8010BAFF3C5
:102380000080F5E74FF0FF3070474FF40053002016
:102390004B60704701207047002070470A4A03468F
:1023A000116810B509B9094911601068084C09494C
:1023B0000344091B8B4283BF074B0C224FF0FF30B5
:1023C000136088BF1A6010BD1817002080E001203C
:1023D000000A000000000520C8D2012070477047A5
:1023E000F0B5A923254F0024254E3B70FE23254D33
:1023F00085B07B70012321462046BB7002232C70E0
:10240000FB70FF236C7033707370AC70EC70B47041
:10241000F4701FF049FB3B681B491C4A0B60336892
:10242000286813601A4B1B4D18601B4802901B480C
:10243000CDE9004028461AF02BFA28461AF0B4FAE3
:1024400028461AF0B7FA284615491AF027FB154B0B
:102450002146202218463BF035FA1349021F10236B
:1024600040F8041C4FF480611048C2E90513294666
:1024700005B0BDE8F04007F0C3BC00BF481700201E
:102480004417002040170020541700205017002048
:102490004C17002058170020151A0208792600084A
:1024A000DF2300082017002008EA03082D29000870
:1024B00000207047F0B58DB00C46302200216846F0
:1024C000274F3BF0FFF96A4621460020E9B92389EE
:1024D0002046244D244E254F6B60C5F808D06C6310
:1024E0001AF028FD2946304605F00EF988B130462D
:1024F00005F034FB83072ED54FF4FA61386807F0F6
:10250000E3FD304605F0A2F9ECE7042803D16FF0B3
:102510000B000DB0F0BD4D684B891560536008B1DC
:1025200042F8042C0E6806B996601F3323F01F038F
:10253000BFF34F8F1D44002BA5EB030607DCBFF351
:102540004F8FBFF36F8F013009680C32BEE7203B1D
:10255000C7F86862EFE720461AF078FBD7E700BFBC
:1025600000ED00E0AC170020E417002094180020D4
:1025700004F008BB024808B505F0C6FA002008BD03
:10258000E417002008B513460A460146034805F043
:10259000FDF9003818BF0120404208BDE4170020B3
:1025A00008B513460A460146034805F016FA0038F6
:1025B00018BF0120404208BDE4170020014608482A
:1025C00008B51AF077F8074B1A78012A07D10022CC
:1025D0001A70054B1868BDE8084007F0B1BD08BD8A
:1025E000A0EA03089C180020981800202DE9F74362
:1025F0000546114FDFF84480DFF844904FF0FF317B
:10260000386807F061FD04460028F7D198F80030DB
:1026100001941BB901A9484605F0A4F8019E002EBB
:10262000ECD02B692946304698470028EED030463A
:102630001AF00CFBEAE700BF981800209C18002055
:10264000E4170020014B186807F07ABD98180020A5
:10265000014B186807F074BD9418002008B505F008
:1026600080FA030605D5034B1868BDE8084007F05B
:1026700067BD08BD98180020F0B50446A5B030B974
:10268000594B40F21122594959483AF0B3FF47F2E9
:102690007343642200210BA8E3850026554B564D59
:1026A0006361564BA3613BF00DF9554B2846ADF8DD
:1026B00004602B60534BC5F804D000934FF4000323
:1026C000AB60514BEB60514B2B614FF4C0636B61BE
:1026D00004F096FE4E4B31463422074618463BF036
:1026E000F1F8212240F8042C4FF4400202614948DD
:1026F00019F08CFF06233146012084F82C306B68DA
:102700001A7884F826205A7884F827209A7884F852
:102710002820DA7884F829201A7984F82A20324689
:102720005B7984F82B3040F2DC53A38494F82D308D
:1027300043F00A0384F82D3007F06EFC364B324626
:1027400031461860012007F067FC344B20223146E7
:10275000186003A83BF0B6F8314B4FF4AF7002AAF3
:10276000029330232146CDE907032E4807F048FBAA
:102770002D492E4804F074F82C4804F085F840B137
:1027800020461AF071F920461AF02EF9002025B0E3
:10279000F0BD37BB254804F0A4F80128F0DD03386C
:1027A0000BA9022893BF224B4FF480454FF40066DB
:1027B00033F810609CBF1F4B33F810500E4805F0E3
:1027C00030F90BA90C48CDE9105605F090F90A48EC
:1027D00004F012FF20461AF0EDF820461AF020F916
:1027E000D4E7FFF7FDFAD1E710EA030846EA030849
:1027F00054EA030871B00108E4170020B52400086A
:10280000008002400080E10044010020E40100203B
:10281000B0170020A0EA03089818002094180020A0
:102820007CEA0308ED2500080C0000208C1700202E
:1028300098EA030892EA030804F0A4B970B58CB0D2
:1028400004461422002107A83BF03CF82268334BD1
:102850009A4260D1A3F5904302240B2607A91A6B74
:1028600000252F4842F000721A631A6B02F00072C2
:102870000192019A1A6B42F080621A631A6B02F09D
:1028800080620292029A1A6B42F000621A631A6B1B
:1028900002F000620392039A1A6B42F040021A633C
:1028A0001A6B02F040020492049A1A6B42F004027E
:1028B0001A631A6B02F004020592059A1A6B42F031
:1028C00001021A631B6B03F001030693069B4FF48E
:1028D000D043CDE907340A940B9605F045F932232D
:1028E00007A910480B96CDE90734CDE9095405F046
:1028F0003BF9862307A90C480B96CDE90734CDE9AF
:10290000095405F031F93D202A46052104F064F907
:102910003D2004F093F90CB070BD00BF0080024070
:102920000018024000080240000002402DE9F04774
:1029300000259AB0DFF894900446A8462F46214E11
:102940006422DFF88CA0002101A83AF0BBFF4846C2
:1029500003F0C7FF94F82D305A0710D501280CDC7E
:10296000304604F08BFE20461AF03EF820461AF05E
:102970007BF8642007F09AFAE9E75B07F9D40128AD
:10298000F7DD831E032B19D80F4A3AF8138032F86B
:10299000135001A9304605F044F801A9304601273B
:1029A000CDE9068505F0A3F8304604F025FE204663
:1029B0001AF000F820461AF033F8DAE7002FD8D0E2
:1029C000E7E700BFE417002082EA03088C17002025
:1029D0008AEA030813B504460C4819F039FE034689
:1029E00078B100F120020A49226001614FF4C06110
:1029F000CDE900210021412208461AF0D5F802B0A5
:102A000010BD044A012120601170F8E7A0EA030814
:102A1000BD2500089C18002030B50025A2F1200437
:102A200022F8163C42F8205C22F8185C05686DB963
:102A300004600C60016861B9BFF34F8F0A49002B35
:102A40000CDCBFF34F8FBFF36F8F30BD0D682C6070
:102A5000EFE70889184408810968ECE7C1F85C22AF
:102A6000203B2032EBE700BF00ED00E01AF0EEB8AB
:102A7000DFF834D003F080FF0C480D490D4A0023E5
:102A800002E0D458C4500433C4188C42F9D30A4A23
:102A90000A4C002301E013600432A242FBD33AF057
:102AA0009BFFFEF701FF704700000520000000209B
:102AB000A004002068720408A004002080E0012027
:102AC000FEE7704708B501F091F9BDE8084001F054
:102AD00015B901F08DB9406870474160704700003A
:102AE0004FF0E022D2F8FC3D43F08073C2F8FC3D89
:102AF000054B064AD3F8B01F0A43C3F8B02F1A6833
:102B000042F001021A607047001000E055CEACC5DB
:102B1000521A02EB5302B2FBF3F07047014B5868B4
:102B2000704700BF001000E0704710B504460C214C
:102B300039F035FC204610BD036810B51B6904460A
:102B400031B19847A26863689B1A0344636010BD63
:102B50009847A060FBE70000024B7020024A136018
:102B6000DB6818472C00002028620020704710B551
:102B70000446042139F013FC204610BD73B50E4EF7
:102B80000D461446336813B9002002B070BD1B69AE
:102B9000702098470028F7D03368702001AA0DF103
:102BA00006015B699847BDF8043001202B60BDF831
:102BB00006302360E9E700BF286200207FB50123CB
:102BC0008DF817204FF47A72CDE901320DF117021A
:102BD00000920A460146054805F0FAFA10B103488A
:102BE00005F0DCFA07B05DF804FB00BF101600200A
:102BF0007FB500230A464FF47A718DF81730012310
:102C0000CDE901310DF1170100910146054805F0AC
:102C1000B9FB10B1034805F0C1FA9DF8170007B0E1
:102C20005DF804FB10160020032823D8DFE800F02D
:102C3000020B131A104B102110481A68B2FA82F2D4
:102C4000520905F015B90C4B40215A68B2FA82F2CC
:102C500052090B48F5E7084B80219A68B2FA82F2D4
:102C60005209F6E7044B40210648DA68B2FA82F2CC
:102C70005209E6E7704700BF2C62002000040240C2
:102C80000008024000180240032823D8DFE800F0C3
:102C9000020B131A104B102110481A68003A18BF83
:102CA000012205F0E5B80C4B40215A68003A18BFE4
:102CB00001220B48F5E7084B80219A68003A18BFBB
:102CC0000122F6E7044B40210648DA68003A18BFB3
:102CD0000122E6E7704700BF2C620020000402409A
:102CE000000802400018024003280FD8DFE800F077
:102CF0000206090B1021064805F0BFB8402105481F
:102D0000FAE78021FBE740210348F5E7704700BF61
:102D100000040240000802400018024008B50328E1
:102D200013D8DFE800F0020A0D0F1021084805F063
:102D300099F8431E5842584108BD40210548F6E71E
:102D40008021FBE740210448F1E70020F1E700BFC4
:102D500000040240000802400018024070B5084D0F
:102D600000240126E0B2FFF7D9FF18B12B68012B30
:102D700018BF2E6001340435052CF3D170BD00BF9F
:102D80002C620020012380F87C1080F87D30704791
:102D9000704700207047000081640039024B18BF63
:102DA00001211970704700BF3FD3012070470020F8
:102DB0007047C36B0BB10846184770474FF6FF705A
:102DC0007047406803689B691847704770477047B1
:102DD00038B5044601F064F9084923682046084DD7
:102DE000D3F8903098470023284684F84E30FFF7F8
:102DF00077FE0123256184F8743038BD000000C0DF
:102E00003C62002001F0EEB801F0F2B870B501F0BC
:102E100071F910490023C1F88430BFF34F8FD1F806
:102E2000803043F6E074C3F3C900C3F34E335B0153
:102E300003EA0406024646EA8275013AC1F8745272
:102E4000F9D2203B13F1200FF2D1BFF34F8FBFF324
:102E50006F8F70BD00ED00E001F04EB901F09EB83B
:102E600001F070BA01F078BA01F0A2B810B50446CA
:102E700021F058FA23682046D3F8BC30BDE8104052
:102E8000184720F032BC10B50446882139F087FA83
:102E9000204610BD90F838100D4B10B590F87C40CE
:102EA0001A788C4209D03AB90A490B4A0888148822
:102EB000108001220C801A7010BD002AFCD0064A36
:102EC0000449148808880C8010800022F3E700BFB2
:102ED0003ED3012046D3012048D3012008B5094B39
:102EE0001B888B4203D8084B1B88934205D9074B9C
:102EF000A521074A07483AF07BF9074B1980074B91
:102F00001A8008BD48D3012046D30120ECEA03080B
:102F10004FEB030892EB030844D3012042D3012076
:102F20002DE9F0410D460446194635B9154B40F2DE
:102F30000131154A15483AF05BF9C0E91052003AE0
:102F40000368134E18BF0122D3F8903032709847AF
:102F5000E569A5B12B681F68337873B123682046F3
:102F60005B6B9847236C834207D1616C094B284601
:102F70001A883B46BDE8F0411847216CF6E7BDE8EA
:102F8000F08100BFD7EB03080FEC030892EB0308B6
:102F900040D3012044D30120034690F87E0018B1AD
:102FA000586803681B68184770470000034B0022ED
:102FB0005A609A60024A1A60704700BF3C62002063
:102FC000B4EA03080121002208B5084607F024F8F6
:102FD0000A4B186028B90A4B28210A4A0A483AF0D5
:102FE00007F900220421012007F018F9074B1860A7
:102FF00018B9074B2C21034AF0E708BD4C620020AA
:103000004CED030895ED0308C4ED03084862002069
:103010000AEE0308024B4FF0FF31186807F054B86E
:103020004C620020014B186807F08AB84C620020FF
:10303000024B0021186807F047B800BF4C6200201F
:10304000FFF7F0BF0023034803491A46006807F062
:103050002BB900BF486200202000002013B50023D8
:10306000074C01A91A46206807F060F94FF0FF33BA
:10307000002201A9206807F059F902B010BD00BF75
:103080004862002003685B6C1847012070470368A2
:103090009B6A1847FEE700000E4B82B01A6B42F4A1
:1030A00000021A631A6B02F400020192019A1A6973
:1030B00042F400021A611A6922F400021A61064BF6
:1030C000064A5A61064A1A614FF08062054B9A60BF
:1030D00002B07047003802406416002095300008A6
:1030E0005D33000800E100E040F2EF30704700007F
:1030F000054B4FF080620360044BC3F88820BFF398
:103100004F8FBFF36F8F7047A0EF030800E100E01F
:1031100010B504464FF45A61FFF7EAFF204639F034
:103120003EF9204610BD000008B50A2809D8DFE89E
:1031300000F006100E0808080810101010000220F9
:1031400008BD054B9021054A05483AF051F800208A
:10315000F6E70120F4E700BF4CEE030867EE030832
:10316000B2EE030838B50C46887FFFF7DDFF124B3F
:10317000A58AE28A586342EA054221695A64628B51
:10318000D963521B1A642568082D0ED19A611A6101
:1031900058620A4A207F42EA0062DA61E2681A62F3
:1031A000074A5961D9601A6038BD0022D8611A6196
:1031B000E2689A63034AF6E700B0024009000100A2
:1031C000012302000123030008B50B280BD8DFE818
:1031D00000F00612100A0A0A0A0808080808022065
:1031E00008BD0520FCE7054B6F21054A054839F06D
:1031F000FFFF0020F4E70120F2E700BF4CEE0308D8
:10320000F6EE0308B2EE03082DE9F04191F81D80B7
:103210000C464046FFF7D8FFA77F05463846FFF724
:10322000D3FF06463846FFF77FFFA18A628B434BE8
:10323000521A1A649A61228B521A1A61E28A5863EE
:1032400042EA014221695A646268D963DA602068FF
:10325000802828D0227F0FD8202866D0402864D02C
:1032600004281AD045EA0265344BB84545F40035C8
:10327000DD6160D0324A44E0B0F5807F04D0B0F523
:10328000007FEFD12F4800E02F4840EA0262DA6168
:10329000E2681A625E62596132E045EA026242F413
:1032A0000032DA61F6E7A068021DDA62227F45EAA1
:1032B000026545F40035DD615E625961017841B116
:1032C000012921D0214B4FF48D71214A214839F039
:1032D0008FFFDA69418822F47F42013922F010021F
:1032E00042EA01220121DA61144BDA6942F020023C
:1032F000DA61DA699206FCD410229A600029B9D00A
:10330000154A1A60BDE8F081B2F1FF01DA69408820
:1033100022F47F4218BF0121013822F0100242EA54
:10332000002242F01002DA61DEE745EA0262034B56
:1033300042F40032B5E742F20132E2E700B0024067
:1033400001230100090002000A00020040EF030807
:103350005AEF0308B2EE030801230200024B1B6878
:10336000586803685B6918474CD3012070B5044660
:103370000A4B0C3000262546602260602672667279
:1033800045F8203B294621F037F904F55A63EE60F1
:1033900024359D42FBD1204670BD00BFA0EF03083D
:1033A000034B1A68D207FCD423229A60704700BFEF
:1033B00000B00240094B5A69D2030AD5BFF34F8FC0
:1033C00008440029A0EB010204DCBFF34F8FBFF3D8
:1033D0006F8F70472039C3F86822F2E700ED00E0F4
:1033E00030B5104C2568ED07FCD423250904FF2BCC
:1033F000A56041F001014FF0020565636164E0637F
:103400000AD00949656241EA0363E361074B22621E
:103410006061E060236030BDE561039BA363044B02
:10342000F8E700BF00B002400900010001000200FF
:103430000100030030B50F4C2568ED07FCD42325AF
:103440001204FF2BA56042F001024FF002056563F4
:103450006264E063E16008D01B0643F00213E3619D
:10346000054B65626061236030BD044BE36101235D
:10347000F9E700BF00B0024001000200020002FFB5
:1034800030B50B4C2568ED07FCD4232512041B0630
:10349000A56042F00102022543F4003365636264D3
:1034A000E063E160E361034B65626061236030BD0E
:1034B00000B00240010002004069704790F84400EB
:1034C0007047036B23B9C06A003818BF01207047EA
:1034D0000120704780687047043010B50C460FC853
:1034E00084E80F0010BD704708B5034A40F212216E
:1034F000024B034839F07CFEE8EF0308713A0408F8
:1035000043F0030810B50446482138F048FF204630
:1035100010BD00002DE9F0431D46ADF51F7D436B46
:1035200006460F469046BDF89842002B35D0002243
:1035300003A8DFF8A490CDE901320EF0E7FF4FF4C5
:10354000F4725021249024A808F095FF4246394691
:1035500024A809F0E9FE012124A809F087F8022334
:1035600024A88DF8D83009F022F92B9B419AA34268
:10357000BDF89C7228BF23469742A4EB030428BFE2
:10358000174603EB43086400479B9F4209D824A8D1
:1035900009F08EF824A808F0BBFF0DF51F7DBDE8EB
:1035A000F083012201A924A809F04AF9736B03EB07
:1035B0000800984201D82544E6E759789A78C9006E
:1035C00009EA022201F4FC610A4313F8031B42EAF0
:1035D000D10225F8022BECE700F8FFFF0A4A02604F
:1035E0000022C0E90522C0E90722C0E90922C0E99A
:1035F0000B22C0E90D12C0E90F2280F84420C0E977
:103600000322C0E9012270471CF3030810B40C46E2
:1036100011461A46036B3BB1036C806BE41A2044DD
:103620005DF8044B3AF056B9C06AF8E7036B10B581
:1036300073B1036C826BC91A5318525C98785C782A
:103640000004DB7840EA0420104340EA036010BD28
:10365000C36A5858FBE7036B43B1036CC91A836B09
:103660005A18585C527840EA02207047C36A585A88
:103670007047000070B50446006B0D461646D8B181
:10368000E36B934208D209230D4A65210D4884F863
:1036900044300D4B39F0ACFD0368DB689847206B74
:1036A0003246A16B03681B69984710B90D2384F853
:1036B0004430A06B256470BDE06A0844FBE700BF9E
:1036C000A6F0030843F0030893F003082DE9F8433C
:1036D000436904462BB9234BAA21234A234839F0D6
:1036E00087FD08228169FFF7C5FFA16943F2300613
:1036F00046F2643704312046FFF798FFA369184467
:10370000A36A00F108029A4206D3012300206361F4
:10371000236AA361BDE8F883636909300822013395
:1037200020F0010120466361A161FFF7A3FFD4F8F7
:10373000189020464946FFF78EFF09F102018046A6
:103740002046FFF788FF09F1040105462046FFF7F0
:103750006DFFB045D2D1BD42D0D10028CED00120DE
:10376000D8E700BFE8F0030831F1030843F003088D
:103770002DE9F04F0446ADF51F7D8A461646816956
:1037800008229846FFF776FFA7692046391DFFF704
:103790004DFF07F10801024605462046FFF76AFF84
:1037A000636B074633B93C4B40F2AB113B4A3C4894
:1037B00039F01EFD002203A8CDE901320EF0A6FE6D
:1037C0004FF4F4725021249024A808F054FE2A46A5
:1037D000394624A809F0A8FD012124A808F046FFD5
:1037E000022324A88DF8D83008F0E1FFBAF902507E
:1037F000479BAB4229D3BAF900904FEA4808BAF880
:1038000004702B9B08FB05664F44BAF80250DFF8A2
:1038100094B03FB29F4228BF1F46BAF8063009EB6A
:10382000490A1D44419B2DB29D4228BF1D46479B1E
:10383000AB4210D324A808F03BFF24A808F068FE90
:1038400001200DF51F7DBDE8F08F012201A924A8FC
:1038500008F0F6FFCCE7012201A924A808F0F0FF48
:10386000626B49465244B94202F1030201D3464415
:10387000DDE712F8020C12F8013CC0000BEA03234A
:1038800000F4FC60034312F8030C43EAD00326F86B
:1038900011300131E7E700BF64F10308BAF1030812
:1038A00043F0030800F8FFFF0129036838BF012136
:1038B000DB6A70B50D4604469847A84204D22368D7
:1038C0002046DB6A984705466B1EE66910222046B3
:1038D00006EB031606F10801FFF7CCFE06F1100116
:1038E0002046FFF7A3FE236A043B0344C4E90553C3
:1038F00070BD0000002148222DE9F041044681619D
:1039000080F84410FFF7B6FEA6690423624A3146E8
:103910002046FFF77BFE40B10323604AF22184F882
:1039200044305F4B5F4839F063FC06F10801042323
:103930005D4A2046A161FFF769FE30B10423574A72
:10394000FA2184F84430594BECE706F10C010423CA
:10395000574A2046A161FFF759FE074638B10523B3
:103960004E4A40F2011184F84430524BDAE706F136
:1039700010012046FFF75AFE054620B94E4B40F293
:103980000711464ACEE706F1140804234B4A2046A5
:103990004146FFF73BFE002849D0062384F8443017
:1039A0000423474A06F118012046FFF72FFE00289E
:1039B0003FD0072384F844304544424F0C22204630
:1039C0002946FFF757FE05F1080604233A4620462C
:1039D0003146FFF71BFE94F84430002848D0002BF6
:1039E00048D1A36AAB4249D805F10C0304352046FF
:1039F000A3612946FFF71AFE30442946606220463B
:103A0000FFF714FE0644042220463146FFF732FE3B
:103A100004232D4A31462046FFF7F8FD002838D10F
:103A20000123E6616361A3692362BDE8F081012798
:103A3000B6E7002FC0D006F120012046FFF7F6FDC3
:103A40004FF47A7306F13001B0FBF3F0606020466A
:103A5000FFF7ECFD06F14001A0602046FFF7E6FD10
:103A600006F14401E0602046FFF7E0FD2061A3E796
:103A7000002BB9D00A2384F84430D6E7291D20460C
:103A8000FFF7D4FD85190C2220462946FFF7F2FDE9
:103A900099E70B23EFE700BF14F2030832F20308A3
:103AA00019F2030843F003085FF2030864F2030805
:103AB0007CF2030881F2030897F20308A3F20308DB
:103AC000A8F20308ADF20308B2F20308C0E90A2124
:103AD00000220263FFF70EBF10B50023044608461C
:103AE000E3620B6821639B689847A0622046BDE8AB
:103AF0001040FFF7FFBE70B4BDF80C50BDF8106069
:103B00002AB123B1CDE9035670BCFFF703BD70BCE9
:103B1000704700002DE9F04F9946436985B004468F
:103B20000F4690462BB9294B7721294A294839F06D
:103B30005FFB08228169FFF79DFDA669204631469B
:103B4000FFF789FDB11C83462046FFF784FD311D38
:103B500082462046FFF76AFD06F10801A36A054682
:103B600042189A4226D243F230039B4517D146F2BF
:103B700064339A4513D190B10246A1612046FFF704
:103B800079FD0E9B01462A462046CDF80080CDE9FE
:103B900001933B46FFF7AFFF636901336361A3699C
:103BA0002B4405B908330133626A23F001039342C1
:103BB000A36109D1012301206361236AA36180F01D
:103BC000010005B0BDE8F08F0020F8E7E8F0030839
:103BD000B7F2030843F00308012070474020704704
:103BE00000EB81100830704700EB811008307047FF
:103BF0000120704740F6CC30704740F6CC3303FBD1
:103C000001000830704740F6CC3303FB0100083058
:103C10007047012070471020704700EB01100830FA
:103C2000704700EB011008307047084601F058BBA0
:103C3000034B10B5044603601EF0B7FB204610BDD1
:103C4000C4F3030810B50446FFF7F2FF48212046ED
:103C500038F0A5FB204610BD034B10B504460360A9
:103C60001EF0A3FB204610BD90F3030810B50446D8
:103C7000FFF7F2FF40F6D431204638F090FB2046A3
:103C800010BD0000034B10B5044603601EF08DFB11
:103C9000204610BD5CF3030810B50446FFF7F2FFA1
:103CA0001821204638F07BFB204610BD084B10B58C
:103CB0000446036000F54060FFF7BAFF04F12C00F2
:103CC000FFF7CAFF04F11400FFF7DCFF204610BD28
:103CD000F8F3030808B50248FFF7E8FF08BD00BF86
:103CE0002C71002010B50446FFF7E0FF41F270216F
:103CF000204638F054FB204610BD00002DE9F3416A
:103D000000F046FD0024054600F046FD234601462E
:103D100022462846009429F0CFFA274B274A20460E
:103D2000274D1A6002F098FA264B274A27489A60D6
:103D300029F028FA2B68BFF35B8FDB0735D42846C0
:103D400038F02FFB88B3224C224B04F1140004F10D
:103D50002C0804F54067236000F588566060C4F8BD
:103D60000880E76026611EF021FB1B4B4046636123
:103D70001EF01CFB194B3846E3621EF017FB184B74
:103D800004F64840C4F8003C02F026FB224604F644
:103D90004841304602F016FB304601F0A1FA1148C6
:103DA00039F044FA284638F008FB0F4802B0BDE865
:103DB000F041FFF70DB800BFA8D30120D862002062
:103DC00028710020F8620020DC620020240000201E
:103DD0002C710020F8F303085CF3030890F3030848
:103DE000C4F30308D53C000850620020704700006F
:103DF00001481FF0E4BC00BF5062002070B5274EA0
:103E0000274B284C3046284D2360FFF7AFFA284651
:103E10002EF0DAFC254826F0C5FE254B00224FF493
:103E2000807124481A639A8683F85C209A6683F826
:103E300074209A67DC60C3E913121F49C3E91B129F
:103E40001E49C3E91F011E491E48C3F884101E49BC
:103E5000C3E90422C3E90622C3E90822C3E90A220E
:103E6000C3E90F22C3E91122C3E91522C3E91822CD
:103E7000C3E901650B604FF4F07183F838200180CD
:103E8000124801804FF48871114801801148018067
:103E900011490A70114A1A6070BD00BF8463002086
:103EA000DCEA030824710020F8620020DC620020B4
:103EB00050620020000001010100000100044400E4
:103EC0001600140048D301204CD3012044D3012014
:103ED00046D3012042D301203ED3012068EC0308E1
:103EE0000148FFF705B900BF846300200020704738
:103EF00081807047C1807047018170474181704760
:103F00007047704770477047704710B4C4880368A3
:103F1000121B84885B6D091B12B25DF8044B09B259
:103F200018474FF6FF7383814FF0FF330362136826
:103F3000C36110607047002070478B888380012028
:103F40007047704780F82610704790F82600704739
:103F5000002210B5B1F90840B1F90A100280428080
:103F60008480C18010BD0022028042808280C28095
:103F700070470177704780ED080A704780F8241079
:103F8000704780F8251070470120704798307047BF
:103F90008C3070478430704770470000034B90228C
:103FA00083F85A2383F85823704700BF00E100E0EC
:103FB000094A0A49D3680A48C3F30A03013B9BB282
:103FC0000B801169C1F30A01013901801364536B3D
:103FD00043F0010353637047006801409E83002053
:103FE0009C830020014BD3F8AC007047006801406F
:103FF000024B0122C3F8AC105A62704700680140BE
:10400000124A5369DB0370B51ED50023C2F8843011
:10401000BFF34F8FD2F8803043F6E074C3F3C9008A
:10402000C3F34E335B0103EA0406014646EA817599
:104030000139C2F87452F9D2203B13F1200FF2D1AA
:10404000BFF34F8FBFF36F8F70BD00BF00ED00E077
:104050007047704770473823002201FB0333C25476
:1040600090F838300BB9036C83647047704780F860
:104070004C10704710B50446582138F090F920468E
:1040800010BD10B504462C2138F089F9204610BD2A
:1040900010B50446BC2138F082F9204610BD00005E
:1040A00038B504461FF077FB23689D6E25F010FBA2
:1040B00001462046A8472368084A2046D3F88C507A
:1040C0000023A2F57F31A847054B064A5A60064AED
:1040D0001A649A644FF4FF225A6438BD00F807C08E
:1040E00060840020B884002000F40BC01FF03ABBAD
:1040F0001FF044BB1FF0FFBA1FF07DBC90F82520D5
:1041000012B103685B6918477047000008B531B108
:10411000044B40F29711044A044839F069F890F8CA
:10412000390008BD04F4030818F40308A5F50308D2
:1041300010B531B1064B40F29111064A064839F0EC
:1041400057F8406811460368BDE810401B6B1847DC
:1041500004F40308E7F50308A5F5030808B529B139
:10416000034B7A21034A044839F042F8006908BD3C
:1041700004F4030898F70308A5F5030808B529B166
:10418000054B8321054A064839F032F841618160C8
:10419000C0E9063208BD00BF04F4030850F9030863
:1041A000A5F5030810B5044629B1274BA421274AD9
:1041B000274839F01DF8052A34D8DFE802F0032932
:1041C0002F34393E406803681B69984750B34FF05D
:1041D000FF31606D05F0C4FE0023012294F83E100B
:1041E00084F83B3084F83920A360636101B1226216
:1041F00084F83E306362E36A2BB90123206D84F8B2
:104200003A3005F09DFF606DBDE8104005F0D8BE66
:10421000002380F8393084F83E3003E00362002345
:104220008360436110BD0362002383604361F2E752
:10423000002380F839300123EDE7003B18BF01234C
:1042400080F83D30EEE700BF04F403080FFB0308DD
:10425000A5F5030890F825201AB190F8242002B1A2
:104260001860704770B50446164629B1314BE721F6
:10427000314A324838F0BCFF90F8393033B1304B16
:104280001B6893F86F20436913444361E36A002B72
:104290004DD0E169D4E905325343A2684A439342C1
:1042A00020D2236A002B42D04FF0FF31606D05F021
:1042B00057FE236A0BB10023E362E36AFBB90125D1
:1042C000606D05F07DFE94F839300BB9236A3BB17F
:1042D000E36A2BB90123206D84F83A3005F030FFF2
:1042E000284670BD94F84C000028DDD09B1AB3FB23
:1042F000F1F2994298BF02F1FF326262D4E70022E4
:1043000094F83C50A3623046E262E2682261A268FF
:104310000132A260336333685B699847002DCED1C8
:1043200094F83D30002BCBD184F83950C8E70125F3
:10433000C9E700BF04F40308E6FC0308A5F5030879
:104340004CD30120034B4FF080629A604FF0807293
:104350009A60704700E100E0084B4FF08062C3F8BC
:104360008820BFF34F8FBFF36F8F4FF08072C3F879
:104370008820BFF34F8FBFF36F8F704700E100E0DD
:1043800038B5034690F8380038BB01229860D860F1
:104390009A634FF4807258619A874FF4F072986173
:1043A000D861186258629862D8621863586383F8BB
:1043B0003E00CA864FF4887281F834000A87086389
:1043C0009A6C186102F5FF24D3E9101529448C4238
:1043D0000AD9084B5821084A03E0084B40F2F5116E
:1043E000074A084838F004FF1A6302F57F329C64DC
:1043F0005A6338BD44000408840004088AFE030898
:10440000BAFE0308A5F50308002370B5124E054651
:104410008380124B0360336893F85C200AB1186DF7
:1044200000B9986803681B6B98473368B0FA80F44A
:10443000186D640930B103681B6B9847002808BFEA
:1044400044F001042CB9064B2C21064A064838F0EA
:10445000CFFE284670BD00BF4CD301202C030408BA
:104460002A02040888020408C102040870B5254E17
:104470003568BFF35B8F15F0010540D1304637F04A
:1044800090FF00283BD0204C204B04F134002561E4
:10449000E584A562A585C4E90035C4E9025526F086
:1044A00064FE04F1580021F069FD194B2046A36514
:1044B000184B40F8843BFFF7A7FF174B1748C4F889
:1044C00084302433C4F89050C4F88C304FF4C803BF
:1044D000C4F89C50C4F8A850C4E928350023C4F897
:1044E000AC30C4F8B030C4F8B430C4F8B8300C4BB9
:1044F000C4F8983038F09AFE304637F05EFF024834
:1045000070BD00BFA0830020A48300205064040875
:104510004C030408C403040804640408993F000819
:10452000E463040838B5184C23685BB3174B184A8A
:104530001B6C11888B4216D1164B0025198804F08C
:10454000ADF9236893F86E2083F88050013283F828
:104550006E20FEF777FD20681FF0E4FE2846BDE8D8
:104560003840FEF761BB04F099F9246823682046BF
:104570001B6A98470123002084F88030BDE838404A
:10458000FEF782BB38BD00BF4CD30120006801405C
:104590009E8300209C8300202DE9F74304464FF4BE
:1045A000707894F83A304FF0FF31002B31D0606DC5
:1045B00005F0D6FC276BA36ABB4200D1676B266A65
:1045C000656856B32B68314628465B6A98470023D6
:1045D000236284F83B30606D05F0F2FC2B684FF4E9
:1045E000F0723946CDF8008028465E694FF4887332
:1045F000B0474FF0FF310646606D05F0B1FC94F80E
:104600003B30E3B1002384F83B30606D05F0D8FC0B
:10461000C7E7206D05F058FDC3E7636A002BDAD0C9
:104620002B682846D3E909939847616A01442846D4
:10463000C847A368626A66621344A360CBE7E76277
:104640005EB12B6828469B6A984701380023E060DA
:1046500084F83C6084F83A30D7E70120F6E70000A0
:10466000014808B5FFF798FF608400200368042222
:1046700070B504465E6A00230D46B0474FF0FF3127
:10468000606D05F06DFC382303FB0542D16A09B16A
:104690000021D16203FB0545012385F83B3000234F
:1046A00085F83930606DBDE8704005F089BC38B5DB
:1046B00000EB810304460D46114658680368DB6829
:1046C000984729462046FFF7D1FF38BD70B50D4603
:1046D0001146044600EB85025068026896681A4647
:1046E000B04729462046FFF7C1FF70BD38B51649CF
:1046F00000251648FEF772FF154C164B01202A467E
:10470000294623604FF48073A564A38784F84C0086
:1047100084F83E50C4E91055C4E91455C4E9015564
:10472000C4E90355C4E90555C4E90755C4E9095569
:10473000C4E90B55C4E90D5505F06EFC206528460B
:1047400005F0CCFB606538BD00850020B8840020F2
:104750006084002010040408704710B5044604214A
:1047600037F01DFE204610BD012908B506D00229EC
:1047700008D059B901F0BCFD006808BD01F0B8FDD2
:104780004068FAE701F0B4FD8068F6E70020F4E73E
:10479000004870475C0404080120704713B50024EA
:1047A00051B1036801AA01948DF803409C680DF192
:1047B0000303A04702B010BD0846FBE7C08970475D
:1047C000008A7047C088704780887047807A00F000
:1047D0007F007047807AC009704700207047000052
:1047E0009FED010A704700BF00000000806A70471B
:1047F000704730B585B00368044601816D460146B7
:10480000D3F884303C342846984795E8070084E87C
:10481000070005B030BD30B585B00368044641815E
:104820006D460146D3F884303C342846984795E8D5
:10483000070084E8070005B030BD002202804280F6
:104840008280C280704780F836107047036870B568
:1048500004461B6B154698472368204629465B6E25
:10486000BDE87040184700207047806C7047704763
:104870007047704710B50446082137F090FD204678
:1048800010BD10B504464C2137F089FD204610BDFF
:1048900010B504464FF4B27137F081FD204610BDCB
:1048A00008B5FFF72BFC08BD036870B55E6B0446C6
:1048B000114B8DB21B682BB9104B6C21104A11485B
:1048C00038F096FC1049828D0988914203D80F4B2D
:1048D0006D210B4AF3E713F812200D4B1B6853F8B8
:1048E000220003681B6B9847291A3346204609B2F9
:1048F000BDE87040184700BFACD301207004040825
:10490000B2040408ED040408A0D30120340504080F
:10491000A4D3012000224FF0FF318260C0E90021C2
:104920007047036870B504461B6B154698472368AB
:10493000204629465B6BBDE8704018474FF48071F4
:10494000002281840C49026301600C490287816264
:104950004FF6FF71C26381854FF47F0141634FF0D1
:10496000FF31C0E90122C0E90322C0E90522C0E904
:104970000722C0E91012704784650408C8050408BE
:104980004FF480732DE9F04F0446002507468384D9
:10499000554B04F17808554E87B0856204F1C4097F
:1049A000DFF870B1C0E90155C0E90355C0E905550C
:1049B000C0E9075547F82C3B3846FFF7BFFFE662D2
:1049C00040466567FFF7BAFF494B0622294638463D
:1049D000A667A3606E46C4F8C050FFF7A2FF454B20
:1049E00039463046E365E36AA4F86050D3F8843072
:1049F000984704F1680396E8070083E80700DBF8AE
:104A000000302BB93C4B60213C4A3D4838F0F0FB6C
:104A1000DFF804A1BAF80030022B03D8394B61212A
:104A2000364AF2E7384B0221186801F051FC374A48
:104A300003464021484628F098FB3846C4F8749055
:104A400021F0E2FEDFF8D490032304A93846CDF824
:104A50001090ADF8143021F0F7FE394620461EF0D4
:104A6000A9FB06224FF498714046FFF75AFF284BE6
:104A700030464146C4F8A830A36FA4F8AC50D3F830
:104A80008430984704F1B40396E8070083E80700F0
:104A9000DBF8003004F5A276002BB3D0BAF8003072
:104AA000002BBBD0184B2946186801F011FC174A9F
:104AB00003461021304628F058FB4046C4F8C06039
:104AC00021F0A2FE012304A94046ADF81430CDF830
:104AD000109021F0B9FE204641461EF06BFB2046A7
:104AE00007B0BDE8F08F00BF68060408D8050408C9
:104AF00090011E0000FF1EFF7004040872050408E8
:104B0000ED04040834050408A8D30120682804082B
:104B10000000FFFFACD30120A0D30120C80504088A
:104B20007047704700F598730868496803C3704779
:104B3000704770474160704770470000064BC0F8EF
:104B40004801C0F84C310023C0F8503100F5A27381
:104B5000C0F84031704700BFAD4D0008012303721B
:104B60007047704770477047704710B441680346FC
:104B7000C2689B68541001EB6200D20748BF0A5913
:104B80005DF8044B48BFD35818470346406830B11E
:104B90009A681AB9D86800F0010070470120704780
:104BA00010B504460C2137F0FAFB204610BD10B5B5
:104BB0000446102137F0F3FB204610BD10B5044623
:104BC0004FF4AE7137F0EBFB204610BD10B5044634
:104BD000402137F0E4FB204610BD10B504464021CB
:104BE00037F0DDFB204610BD10B524F071FD0368E1
:104BF000BDE81040DB6B1847054B01461B782BB115
:104C0000406818B103680C315B6E1847704700BFED
:104C10003FD30120054B01461B782BB1406818B1EA
:104C200003680C315B6E1847704700BF3FD301200B
:104C3000037A70B50546BBB940680368DB699847DD
:104C400004463CB9686805F10C010368BDE8704092
:104C50001B6E1847A18820466B8FC91A236809B2BA
:104C60001B6B9847A469ECE770BD037A70B50546E5
:104C7000BBB940680368DB69984704463CB968687B
:104C800005F10C010368BDE870401B6E1847A18850
:104C900020466B8FC91A236809B21B6B9847A46919
:104CA000ECE770BD10B50446D0F8400158B1036878
:104CB000DB68984738B1D4F8400103689B6898478F
:104CC0000023C4F8403110BD70B5044690F8390097
:104CD000013094F83830C0B2984284F8390005D9D0
:104CE00001232372002384F8393070BDB4F93A20CF
:104CF000002126F093FFC30706D500284FF6FF7367
:104D0000C8BF0123184400B2238AC01AA087606874
:104D10000368DB69984705462DB960680368BDE8FC
:104D200070405B691847A9882846A38F19442B68EF
:104D300009B21B6B9847AD69EEE770B5044690F871
:104D40003900013094F83830C0B2984284F8390004
:104D500005D901232372002384F8393070BDB4F9DA
:104D60003A20002126F05AFFC30706D500284FF647
:104D7000FF73C8BF0123184400B2238AC01AA0875A
:104D800060680368DB69984705462DB96068036869
:104D9000BDE870405B691847A9882846A38F19446D
:104DA0002B6809B21B6B9847AD69EEE72DE9F14F0F
:104DB000D0E9556A0746B06803681B6A984740F215
:104DC0004B63984205D8444BA321444A444838F0E9
:104DD0000FFA706803681B6A98470F2803D8414B85
:104DE000A4213E4AF2E7F06803681B6A98470B2843
:104DF00003D83D4BA521394AE8E7DFF8F49024F0C9
:104E000067FC043024F0A4FCD9F8000010B103685A
:104E1000DB689847D9F8000010B103681B68984711
:104E2000DFF8D080D8F8000010B103685B699847BC
:104E3000D7F83C0110B103685B689847D8F80000C8
:104E400010B103681B689847D7F83C0110B103689C
:104E50009B689847F06800214FF0000B03685B6A7D
:104E60009847224B0446C0F804B080F808B0594671
:104E70000360B06803685B6A9847054601F0E8FB89
:104E80007068594603685B6A98470646294601F0F0
:104E9000B1FB331DC7F83C612846C9F80040C8F88B
:104EA0000050CAF800302B68C6F808A0DB68EE6333
:104EB0009847336830461B6898472146284626F0B5
:104EC0006AFE236820461B699847236820465B6971
:104ED00001B0BDE8F04F1847F40604088207040843
:104EE000540804089B0804083E090408200C040820
:104EF00094D3012098D301202DE9F0411D46036889
:104F0000044616461B6BBDF9187098472368314656
:104F100020465B6B98472368294620469B6B984741
:104F2000236839462046DB6BBDE8F0411847000096
:104F30002DE9F74FD0E9556A0746B06803681B6A48
:104F4000984740F24B63984205D8544BA321544AEA
:104F5000544838F04DF9706803681B6A98470F2869
:104F600003D8514BA4214E4AF2E7F06803681B6A4C
:104F700098473F2803D84D4BA521494AE8E7DFF879
:104F80003C9124F0A5FB043024F0E2FBD9F80000AA
:104F900010B10368DB689847D9F8000010B10368C6
:104FA0001B689847DFF81881D8F8000010B1036833
:104FB0005B699847D7F83C0110B103685B68984774
:104FC000D8F8000010B103681B689847D7F83C0177
:104FD00010B103689B689847F068002103685B6A1A
:104FE00098470022324B054642600446027245F85B
:104FF0000C3B284621F05CF81423002223872D4B1C
:10500000A2871B78002B35D101232372B0680021C1
:1050100003685B6A9847054601F01AFB7068002137
:1050200003685B6A98470646294601F0E3FA331D98
:10503000C7F83C612846C9F80040C8F80050CAF8D3
:1050400000302B68C6F808A0DB68EE639847336829
:1050500030461B6898472146284626F09CFD236869
:1050600020461B699847236820465B6903B0BDE86A
:10507000F04F1847104B1146DFF848B02846B3F9F7
:1050800000300093BBF90030FFF736FF284620F0D0
:105090008BFFBBF800306387B8E700BFF406040855
:1050A000E1090408540804089B0804083E090408A0
:1050B000680C04083FD3012046D3012094D301207B
:1050C00098D3012048D301202DE9F74FD0E9556A44
:1050D0000746B06803681B6A984740F6CB3398428E
:1050E00005D8544BA321544A544838F081F87068CD
:1050F00003681B6A98470F2803D8514BA4214E4AD6
:10510000F2E7F06803681B6A98473F2803D84D4BC5
:10511000A521494AE8E7DFF83C9124F0D9FA0430A8
:1051200024F016FBD9F8000010B10368DB6898473B
:10513000D9F8000010B103681B689847DFF81881A0
:10514000D8F8000010B103685B699847D7F83C01B4
:1051500010B103685B689847D8F8000010B1036885
:105160001B689847D7F83C0110B103689B689847C3
:10517000F068002103685B6A98470022324B0546BD
:1051800042600446027245F80C3B284620F090FF2E
:105190001423002223872D4BA2871B78002B35D1A7
:1051A00001232372B068002103685B6A98470546B3
:1051B00001F03AFB7068002103685B6A9847064675
:1051C000294601F0EFFA331DC7F83C612846C9F8BB
:1051D0000040C8F80050CAF800302B68C6F808A094
:1051E000DB68EE639847336830461B689847214672
:1051F000284626F0D0FC236820461B699847236880
:1052000020465B6903B0BDE8F04F1847104B1146CC
:10521000DFF848B02846B3F900300093BBF90030FE
:10522000FFF76AFE284620F0BFFEBBF800305B4265
:105230006387B7E7F4060408C60A0408540804089C
:105240009B0804083E090408440C04083FD30120CD
:1052500046D3012094D3012098D3012048D30120C4
:10526000044B1B6893F85C200AB1186D00B998686C
:10527000704700BF4CD30120F8B5174604460E46D0
:1052800024F03CFB124B00251C602946114B236087
:10529000114BC4E95135114B1868C4E953550368E3
:1052A000C4E94F559B68C4E955769847284600F0F5
:1052B000D3FFFFF7D5FF2FF038F9FFF7D1FF2FF01D
:1052C000AFF9FFF7CDFF2FF0B7F92046F8BD00BFCB
:1052D0009CD30120CC0B0408B40B04084CD3012050
:1052E000064BC0F84801C0F84C310023C0F85031DB
:1052F00000F5A273C0F84031704700BFAD4D000803
:10530000064BC0F84801C0F84C310023C0F85031BA
:1053100000F5A273C0F84031704700BF314F00085C
:10532000064BC0F84801C0F84C310023C0F850319A
:1053300000F5A273C0F84031704700BFC9500008A3
:10534000406A7047806A704770470B888A889BB2B2
:10535000D20A10B54C88C16943EA044351F82200CF
:10536000184410BD10B50446BAB1107B68B1537B28
:10537000D27A1B0203F4E0631A43236A03EB82032D
:105380001A888A4202D193F9020010BD05D801386B
:10539000043380B20028F3D1F7E70020F5E710B519
:1053A00004462C2136F0FBFF204610BD30B58BB0F3
:1053B0000446BDF860500895BDF85C5007959DF80F
:1053C000505006959DF84C5005959DF84850049511
:1053D0009DF8445003959DF8405002959DF83C502F
:1053E0000195BDF83850009525F07CFF064B20460E
:1053F0002360159BE361169B2362199B63621A9BD2
:10540000A3620BB030BD00BF8C0C0408704770471E
:1054100070477047704770477047704730B44468B2
:105420000346C2689B68551004EB6200D20748BF70
:10543000625930BC48BFD35818470346406830B162
:105440009A681AB9D86800F00100704701207047C7
:1054500010B50446102136F0A2FF204610BD10B54D
:10546000044640F24C6136F09AFF204610BD00F52C
:105470007570884208B505D124F02AF9BDE80840C6
:10548000FFF74EBF08BD0000094A4FF4807102606B
:1054900000228184FF21826280F82610C0E9012267
:1054A000C0E90322C0E90522C0E90722704700BF16
:1054B000146604084FF48071002281840D49026350
:1054C00081624FF6FF71028781854FF47F01C263CD
:1054D00041630949826401604FF0FF31C0E9012254
:1054E000C0E90322C0E90522C0E90722C0E9101281
:1054F000704700BFC8050408D8050408F8B5194B63
:105500000646018F1B888B422AD9174B1B682BB983
:10551000164B6C21164A174837F06AFE13F8112013
:10552000154B1B6853F82250144B186800F0D0FE3E
:105530002B68074628469B6B98472B6804463946DC
:105540009B6C2846984714FB00F42B683946A4B29C
:1055500028465B6A984723181BB2A6F84630F8BD68
:105560000023FAE7A0D30120ACD301207004040883
:10557000B2040408ED040408A4D30120A8D3012038
:105580002DE9F04F044697B0002526F069F926462C
:10559000814B04F16C0A04F19809E56304F1C40835
:1055A00046F8403B3046FFF76FFF5046FFF76CFF71
:1055B00004F1F007484604F1040BFFF765FF40468D
:1055C000FFF762FF3846FFF75FFF04F58E7318465A
:1055D0000C93FFF759FF04F5A47318460D93FFF7DA
:1055E00053FF04F5BA7318460493FFF763FF04F5FD
:1055F000E07318460593FFF75DFF04F50373184643
:105600000693FFF757FF04F5167318460793FFF745
:1056100051FF04F5297318460893FFF74BFF04F573
:105620003C7318460393FFF745FF04F54F73184684
:105630000993FFF73FFF04F5627318460A93FFF7DB
:1056400039FF04F5757318460B9321F075FB534B26
:105650002A463046C4F83C362946514BC4F84046E9
:10566000C4F844364FF48873C4F8485600934FF496
:10567000F073FFF741FC4FF07F4331462526584633
:10568000A3661DF097FD762280234FF4B07150463B
:105690000096FFF731FC434B51465846C4F894300E
:1056A0001DF088FD3A22484680234FF4B0710096E1
:1056B000FFF722FC3C4B49465846C4F8C03004F280
:1056C0001C491DF077FD0322404680234FF4B07142
:1056D0000096FFF711FC354B41465846C4F8EC30B4
:1056E0001DF068FDEB2238464FF4F0732946009612
:1056F000FFF702FC2E4B662639465846C4F818318F
:105700001DF058FD6F2240F23F1329460C98009679
:10571000FFF7F2FB274B0C995846C4F844311DF0B3
:1057200049FD2A4640F23F1329460D9800960EAED9
:10573000FFF7E2FB204B0D995846C4F870311DF07D
:1057400039FD2A4629460498FFF7EBF8DFF88080F8
:10575000D4F8743130460499D3F88430C4F8A48165
:10576000A4F8A8519847154F04F5D87396E8070098
:1057700083E807003B682BB9114B6021114A12489E
:1057800037F036FDDFF84CA0BAF800300E2B23D8E6
:105790000E4B61210B4AF2E70C0D0408F40C0408CF
:1057A0006F5400080800FFFF00FF04FFFF9100FF97
:1057B00024A3BDFF306600FF823400FFACD301207C
:1057C0007004040872050408ED0404083405040894
:1057D000FFE37DFFA0D30120D14B0E21186800F01C
:1057E00077FDD04A03461021484627F0BEFC0498B6
:1057F000C4F8BC9121F008F8DFF830930F2314A906
:105800000498ADF85430CDF8509021F01DF804996B
:1058100058461DF0CFFC712229460598FFF781F804
:10582000D4F8C03105993046D3F88430C4F8F081FB
:1058300004F23C48A4F8F451984704F5FE7396E846
:10584000070083E807003B68002B95D0BAF80030CA
:105850000C2B9DD9B24B0C21186800F039FDB14AD0
:1058600003461021404627F080FC0598C4F80882C2
:1058700004F25C4820F0C8FF162314A90598ADF87F
:105880005430CDF8509020F0DFFF059958461DF0B8
:1058900091FC282229460698FFF743F8A24AD4F83B
:1058A0000C3230460699D3F88430C4F83C22A4F870
:1058B0004052984704F5127396E8070083E8070002
:1058C0003B68002B3FF458AFBAF800300D2B7FF641
:1058D0005FAF934B0D21186800F0FAFC914A034624
:1058E0004021404627F041FC0698C4F8548204F257
:1058F000DC4820F089FF152314A90698ADF8543030
:10590000CDF8509020F0A0FF069958461DF052FCAB
:10591000962229460798FFF704F8834AD4F85832AC
:1059200030460799D3F88430C4F88822A4F88C5202
:10593000984704F5257396E8070083E807003B685D
:10594000002B3FF419AFBAF800300B2B7FF620AFD5
:10595000734B0B21186800F0BBFC724A03464021D0
:10596000404627F002FC0798C4F8A08220F04CFFC4
:10597000142314A90798ADF85430CDF8509020F0B6
:1059800063FF079958461DF015FCF1222946089837
:10599000FEF7C7FF4FF0FF3308993046C4F8D43202
:1059A000D4F8A432A4F8D85204F25C55D3F8843069
:1059B000984704F5387396E8070083E807003B68CA
:1059C000002B3FF4D9AEBAF800300A2B7FF6E0AED8
:1059D000DFF84C810A214F464FF0FF36D8F800001F
:1059E00000F076FC4F4A034640212846DFF840A1EC
:1059F00027F0BBFB0898C4F8EC52002520F004FF08
:105A0000132314A90898ADF85430CDF8509020F025
:105A10001BFF089958461DF0CDFB092240F2771173
:105A20000398FEF77EFF0DF13809D4F8F0320399A0
:105A30004846D3F88430C4F82063A4F82453984728
:105A4000039B99E807003C3383E8070004F2DC532A
:105A50000493DAF80030002B3FF48EAEDFF8D490D8
:105A6000B9F80030092B7FF693AE0921D8F8000071
:105A700000F02EFC2B4A03461021049827F075FBFA
:105A8000049B0398C4F8383320F0BEFE122314A9F7
:105A90000398ADF85430149720F0D6FE0399584679
:105AA0001DF088FB40224FF4BD710998FEF739FFC5
:105AB00004F2FC53C4F86C630393DAF80030A4F8E2
:105AC0007053C4F88053C4E9DE56002B3FF454AE43
:105AD000B9F80030082B7FF65BAE0821D8F800003B
