:020000040800F2
:1000000000000520692800081521000817210008B4
:10001000192100081B2100081D2100080000000014
:10002000000000000000000000000000518F0008E8
:100030001F21000800000000F18F00085590000803
:10004000B9280008B9280008B9280008B92800080C
:10005000B9280008B9280008B9280008B9280008FC
:10006000B9280008B9280008B9280008B9280008EC
:10007000B9280008B9280008B9280008B9280008DC
:10008000B9280008B9280008B9280008B9280008CC
:10009000B9280008B9280008B9280008B9280008BC
:1000A000B9280008B9280008B9280008B9280008AC
:1000B000B9280008B9280008B9280008B92800089C
:1000C000B9280008B9280008B9280008B92800088C
:1000D000B9280008B9280008B9280008B92800087C
:1000E000B9280008B9280008B9280008B92800086C
:1000F000B9280008B9280008B9280008B92800085C
:10010000B9280008B9280008B9280008B92800084B
:10011000B9280008B928000821210008B9280008DA
:10012000B9280008B9280008B9280008B92800082B
:10013000B92800082D210008B9280008B9280008AE
:10014000B9280008B9280008B9280008B92800080B
:10015000B9280008B9280008B9280008B9280008FB
:10016000B9280008B9280008B9280008B9280008EB
:10017000B9280008B9280008B928000800000000C4
:10018000B9280008B9280008B9280008B9280008CB
:10019000B9280008B9280008B9280008B9280008BB
:1001A00039210008B928000845210008B9280008AD
:1001B000B9280008B9280008B9280008B92800089B
:0801C000B9280008B928000865
:1001D00010B5054C237833B9044B13B10448AFF381
:1001E00000800123237010BD800400200000000067
:1001F00004B4030808B5034B1BB103490348AFF32C
:10020000008008BD000000008404002004B403083E
:1002100001F0FF01102A2BDB10F0070F08D010F8B7
:10022000013B013A8B422DD010F0070F42B3F6D1BB
:10023000F0B441EA012141EA014122F007047FF0D4
:1002400000070023F0E80256083C85EA010586EA2B
:10025000010685FA47F5A3FA87F586FA47F6A5FA67
:1002600087F68EB9EED1F0BC01F0FF0102F0070273
:1002700032B110F8013B013A83EA010313B1F8D11E
:100280000020704701387047002D06BF35460338FF
:10029000073815F0010F07D1013015F4807F02BF38
:1002A000013015F4C03F0130F0BC0138704700BF89
:1002B00081F0004102E000BF83F0004330B54FEA17
:1002C00041044FEA430594EA050F08BF90EA020F84
:1002D0001FBF54EA000C55EA020C7FEA645C7FEA17
:1002E000655C00F0E2804FEA5454D4EB5555B8BF3A
:1002F0006D420CDD2C4480EA020281EA030382EAAB
:10030000000083EA010180EA020281EA0303362D3C
:1003100088BF30BD11F0004F4FEA01314FF4801C0F
:100320004CEA113102D0404261EB410113F0004F21
:100330004FEA03334CEA133302D0524263EB4303D8
:1003400094EA050F00F0A780A4F10104D5F1200E76
:100350000DDB02FA0EFC22FA05F2801841F10001D1
:1003600003FA0EF2801843FA05F359410EE0A5F1A5
:1003700020050EF1200E012A03FA0EFC28BF4CF0D6
:10038000020C43FA05F3C01851EBE37101F000458C
:1003900007D54FF0000EDCF1000C7EEB00006EEB99
:1003A0000101B1F5801F1BD3B1F5001F0CD3490823
:1003B0005FEA30004FEA3C0C04F101044FEA44527A
:1003C00012F5800F80F09A80BCF1004F08BF5FEA01
:1003D000500C50F1000041EB045141EA050130BDE1
:1003E0005FEA4C0C404141EB0101013C28BFB1F5F3
:1003F000801FE9D291F0000F04BF01460020B1FA3E
:1004000081F308BF2033A3F10B03B3F120020CDA10
:100410000C3208DD02F1140CC2F10C0201FA0CF0EE
:1004200021FA02F10CE002F11402D8BFC2F1200C53
:1004300001FA02F120FA0CFCDCBF41EA0C01904009
:10044000E41AA2BF01EB0451294330BD6FEA040452
:100450001F3C1CDA0C340EDC04F11404C4F120023D
:1004600020FA04F001FA02F340EA030021FA04F34F
:1004700045EA030130BDC4F10C04C4F1200220FAA6
:1004800002F001FA04F340EA0300294630BD21FAE4
:1004900004F0294630BD94F0000F83F4801306BFAA
:1004A00081F480110134013D4EE77FEA645C18BF9E
:1004B0007FEA655C29D094EA050F08BF90EA020F35
:1004C00005D054EA000C04BF1946104630BD91EA2D
:1004D000030F1EBF0021002030BD5FEA545C05D130
:1004E0004000494128BF41F0004130BD14F580046F
:1004F0003CBF01F5801130BD01F0004545F0FE41E3
:1005000041F470014FF0000030BD7FEA645C1ABF17
:10051000194610467FEA655C1CBF0B46024650EA4E
:10052000013406BF52EA033591EA030F41F400217A
:1005300030BD00BF90F0000F04BF0021704730B500
:100540004FF4806404F132044FF000054FF00001D5
:1005500050E700BF90F0000F04BF0021704730B596
:100560004FF4806404F1320410F0004548BF40426B
:100570004FF000013EE700BF42004FEAE2014FEAC0
:1005800031014FEA02701FBF12F07F4393F07F4F9B
:1005900081F06051704732F07F4208BF704793F09E
:1005A0007F4F04BF41F40021704730B54FF46074B1
:1005B00001F0004521F000411CE700BF50EA0102B4
:1005C00008BF704730B54FF000050AE050EA01025D
:1005D00008BF704730B511F0004502D5404261EBCD
:1005E00041014FF4806404F132045FEA915C3FF40E
:1005F000D8AE4FF003025FEADC0C18BF03325FEAAB
:10060000DC0C18BF033202EBDC02C2F1200300FA5B
:1006100003FC20FA02F001FA03FE40EA0E0021FA80
:1006200002F11444BDE600BF70B54FF0FF0C4CF46E
:10063000E06C1CEA11541DBF1CEA135594EA0C0F20
:1006400095EA0C0F00F0DEF82C4481EA030621EA5B
:100650004C5123EA4C5350EA013518BF52EA033596
:1006600041F4801143F4801338D0A0FB02CE4FF048
:100670000005E1FB02E506F00042E0FB03E54FF078
:100680000006E1FB03569CF0000F18BF4EF0010E70
:10069000A4F1FF04B6F5007F64F5407404D25FEA6C
:1006A0004E0E6D4146EB060642EAC62141EA55511F
:1006B0004FEAC52040EA5E504FEACE2EB4F1FD0C61
:1006C00088BFBCF5E06F1ED8BEF1004F08BF5FEADF
:1006D000500E50F1000041EB045170BD06F0004691
:1006E00046EA010140EA020081EA0301B4EB5C043E
:1006F000C2BFD4EB0C0541EA045170BD41F4801136
:100700004FF0000E013C00F3AB8014F1360FDEBF5A
:10071000002001F0004170BDC4F10004203C35DA36
:100720000C341BDC04F11404C4F1200500FA05F3B9
:1007300020FA04F001FA05F240EA020001F000425A
:1007400021F0004110EBD37021FA04F642EB0601D0
:100750005EEA430E08BF20EAD37070BDC4F10C04FA
:10076000C4F1200500FA04F320FA05F001FA04F2BE
:1007700040EA020001F0004110EBD37041F10001AA
:100780005EEA430E08BF20EAD37070BDC4F12005B5
:1007900000FA05F24EEA020E20FA04F301FA05F21D
:1007A00043EA020321FA04F001F0004121FA04F2C5
:1007B00020EA020000EBD3705EEA430E08BF20EA95
:1007C000D37070BD94F0000F0FD101F000464000CF
:1007D00041EB010111F4801F08BF013CF7D041EA51
:1007E000060195F0000F18BF704703F00046520055
:1007F00043EB030313F4801F08BF013DF7D043EA26
:100800000603704794EA0C0F0CEA135518BF95EADB
:100810000C0F0CD050EA410618BF52EA4306D1D162
:1008200081EA030101F000414FF0000070BD50EA81
:10083000410606BF1046194652EA430619D094EA0B
:100840000C0F02D150EA013613D195EA0C0F05D1F5
:1008500052EA03361CBF104619460AD181EA030149
:1008600001F0004141F0FE4141F470014FF0000001
:1008700070BD41F0FE4141F4780170BD70B54FF09C
:10088000FF0C4CF4E06C1CEA11541DBF1CEA13551C
:1008900094EA0C0F95EA0C0F00F0A7F8A4EB0504FE
:1008A00081EA030E52EA03354FEA013100F08880F5
:1008B0004FEA03334FF0805545EA131343EA1263BE
:1008C0004FEA022245EA111545EA10654FEA002673
:1008D0000EF000419D4208BF964244F1FD0404F52C
:1008E000407402D25B084FEA3202B61A65EB030588
:1008F0005B084FEA32024FF480104FF4002CB6EB45
:10090000020E75EB030E22BFB61A754640EA0C00C4
:100910005B084FEA3202B6EB020E75EB030E22BF04
:10092000B61A754640EA5C005B084FEA3202B6EB45
:10093000020E75EB030E22BFB61A754640EA9C0004
:100940005B084FEA3202B6EB020E75EB030E22BFD4
:10095000B61A754640EADC0055EA060E18D04FEA92
:10096000051545EA16754FEA06164FEAC30343EA32
:1009700052734FEAC2025FEA1C1CC0D111F4801FFF
:100980000BD141EA00014FF000004FF0004CB6E7F8
:1009900011F4801F04BF01430020B4F1FD0C88BF97
:1009A000BCF5E06F3FF6AFAEB5EB030C04BFB6EBA2
:1009B000020C5FEA500C50F1000041EB045170BD95
:1009C0000EF0004E4EEA113114EB5C04C2BFD4EBC2
:1009D0000C0541EA045170BD41F480114FF0000E46
:1009E000013C90E645EA060E8DE60CEA135594EAC2
:1009F0000C0F08BF95EA0C0F3FF43BAF94EA0C0FC5
:100A00000AD150EA01347FF434AF95EA0C0F7FF439
:100A100025AF104619462CE795EA0C0F06D152EA8D
:100A200003353FF4FDAE1046194622E750EA410671
:100A300018BF52EA43067FF4C5AE50EA41047FF482
:100A40000DAF52EA43057FF4EBAE12E74FEA4102E5
:100A5000B2F1E04324BFB3F5001CDCF1FE5C0DD91C
:100A600001F0004C4FEAC0024CEA5070B2F1004F66
:100A700040EB830008BF20F00100704711F0804F69
:100A800021D113F13872BCBF01F00040704741F42E
:100A900080114FEA5252C2F11802C2F1200C10FA32
:100AA0000CF320FA02F018BF40F001004FEAC12316
:100AB0004FEAD32303FA0CFC40EA0C0023FA02F3BA
:100AC0004FEA4303CCE77FEA625307D150EA013390
:100AD0001EBF4FF0FE4040F44000704701F0004060
:100AE00040F0FE4040F40000704700BF7BB972B98F
:100AF0000029BEBF00204FF0004106E008BF0028DB
:100B00001CBF6FF000414FF0FF3000F0B5B9ADF100
:100B1000080C6DE904CE002909DB002B1ADB00F07C
:100B20004DF8DDF804E0DDE9022304B070474042EF
:100B300061EB4101002B1BDB00F040F8DDF804E025
:100B4000DDE9022304B0404261EB4101524263EB14
:100B500043037047524263EB430300F02FF8DDF884
:100B600004E0DDE9022304B0404261EB410170473B
:100B7000524263EB430300F021F8DDF804E0DDE9C5
:100B8000022304B0524263EB4303704753B94AB99E
:100B9000002908BF00281CBF4FF0FF314FF0FF3085
:100BA00000F06AB9ADF1080C6DE904CE00F006F86A
:100BB000DDF804E0DDE9022304B070472DE9F047D9
:100BC000089D0C46002B4ED194468C458646B2FAC1
:100BD00082F262D94AB1C2F12003914020FA03F3B4
:100BE0000CFA02FC194300FA02FE4FEA1C471FFAF6
:100BF0008CF6B1FBF7F44FEA1E4307FB141143EAEE
:100C0000014304FB06F199420AD91CEB030304F1EA
:100C1000FF3080F01281994240F20F81023C634420
:100C2000591A1FFA8EF3B1FBF7F007FB101143EAD4
:100C3000014300FB06F69E420AD91CEB030300F1B8
:100C4000FF3180F0FC809E4240F2F980634402381C
:100C50009B1B40EA044000211DB1D3400022C5E99E
:100C60000032BDE8F0878B4205D90DB1C5E900011E
:100C700000210846F5E7B3FA83F1002946D1A342E3
:100C800002D39042C0F0F080861A64EB0303012087
:100C9000002DE6D0C5E90063E3E7002A40F090802C
:100CA000A1EB0C044FEA1C481FFA8CF70121B4FB9E
:100CB000F8F64FEA1E4308FB164443EA044307FBD9
:100CC00006F0984208D91CEB030306F1FF3402D268
:100CD000984200F2CD8026461C1A1FFA8EF3B4FB10
:100CE000F8F008FB104443EA044300FB07F79F4277
:100CF00008D91CEB030300F1FF3402D29F4200F23B
:100D0000B0802046DB1B40EA0640A5E7C1F1200683
:100D10008B4022FA06F71F4320FA06FC04FA01F37F
:100D200043EA0C03F44000FA01F8380C4FEA134987
:100D3000B4FBF0FE1FFA87FC00FB1E4449EA0444A2
:100D40000EFB0CF9A14502FA01F20AD93C190EF189
:100D5000FF3A80F08480A14540F28180AEF1020E1E
:100D60003C44A4EB09041FFA83F9B4FBF0F300FB45
:100D7000134449EA044403FB0CFCA44507D93C197D
:100D800003F1FF3067D2A44565D9023B3C4443EAF6
:100D90000E40A0FB0293A4EB0C049C42CE469C4662
:100DA00051D34ED055B1B8EB0E0364EB0C0404FAEA
:100DB00006F6CB401E43CC40C5E90064002150E755
:100DC000C2F1200320FA03F10CFA02FC24FA03F327
:100DD00094400C434FEA1C4800FA02FE1FFA8CF7BD
:100DE000B3FBF8F008FB1031230C43EA014300FB8E
:100DF00007F1994208D91CEB030300F1FF362CD20E
:100E000099422AD9023863445B1AA4B2B3FBF8F1C1
:100E100008FB113344EA034401FB07F3A34208D95A
:100E20001CEB040401F1FF3613D2A34211D902399D
:100E30006444E41A41EA004139E70446F0E6084612
:100E400006E7C845AED2B9EB020E63EB070C0138DA
:100E5000A8E73146EDE7034699E73046D4E7D646A2
:100E60007FE7634402384DE70646234608460FE70E
:100E7000023E634430E700BF704700BFF0B50E4646
:100E800091B00446402200216846182E94BFA7194D
:100E900004F1180701AD0E4E39F06CFB0D496846A0
:100EA00039F019FCBC4209D10B4B186820B1002362
:100EB00069461A4607F022FE11B0F0BD284614F824
:100EC000013B32460321023539F0FEF9EAE700BF63
:100ED00065B4030860B403089C140020F8B5064606
:100EE0000F4615460024AC4201DB0020F8BD00236C
:100EF0002A1B391930461BF023FA031E01DD1C445E
:100F0000F1E74FF0FF30F1E710B590B00024014653
:100F10003F2268468DF83F4039F046FB044B186885
:100F200020B123462246694607F0E8FD10B010BD07
:100F30009C14002070B52E4CD4F8026036BA092EED
:100F400004D926442B4D0A34A64200D870BD23781C
:100F50003F2BFBD8201D8642F8D3638822885BBADA
:100F60009BB2032BF2D91C44A642EFD3B2F5704FCB
:100F7000EAD18442E8D990F900200378002A18DAEF
:100F800003F07F030D2B08D100F10D039C42DBD34E
:100F90000C210130FFF772FFD6E7013BDBB20F2BCC
:100FA000D2D8EA5C002ACFD002449442CCD3104677
:100FB000DFE7031D9C42C7D3438801885BBA49BA67
:100FC0009BB2C1F30D01032BBED9C2189442BBD30F
:100FD000F129ECD1052BB7D9818849BA89B20731FB
:100FE000C1F3C7018A1D9A42AED80630D2E700BFCE
:100FF0009C040020A7B50308002800F01F032DE97A
:10100000F04706464FF00107B8BF00F11F06002465
:101010009F40054676118A469046A1462DED028BEB
:1010200088B008AB9FED1A8B03EB860602A9681CFB
:10103000CDF81890CDE9029956F8183C3B4346F894
:10104000183C04AB009300231A468DED048B1BF073
:10105000E3F9002802DC4FF0FF3410E056F8183CAA
:101060001F42F8D00023A8EB04020AEB0401284633
:101070001BF0ECF80028EEDD0444A045D6DC204649
:1010800008B0BDEC028BBDE8F08700BFAFF3008075
:101090000A00000000000000F8B5134F0A220646BF
:1010A0003946FFF7A9FF0A2818D1D7F8023040F6D1
:1010B000F6721CBAA4F10A05954212D8B3F1206F5A
:1010C00001D12046F8BD2A4607F10A013046FFF754
:1010D00093FF8542F5D06FF00B00F3E76FF0090046
:1010E000F0E76FF00A00EDE79C0400201FB5194AF5
:1010F00013885BBAC3F309033E2B1FD1D2F8062035
:1011000044F6040113BA01918DF80A204FF42061CE
:101110001A0C5BBAADF8081001A98DF80B200A2251
:10112000ADF80C30FFF7DAFE30B90B48FFF7ECFEF4
:10113000012005B05DF804FB0848F7E73F2B01D11B
:101140000748F3E73D2B02D1FFF7F4FEF0E700205C
:10115000EFE700BF9C0400206AB4030871B40308E1
:101160007CB403082DE9F047804692B089461546C5
:10117000384FDFF8F4A04046FFF78EFF00280FDC61
:101180002B46354A402100904FF0FF3402A839F039
:101190009BF802A8FFF7B8FE204612B0BDE8F08722
:1011A00040463E88FFF7A2FF04460028E3D173BA09
:1011B000C3F30903994525D17B8940F21F125BBA1D
:1011C000C3F30D0393421AD1FB8973B15BBA9BB28F
:1011D000224A4021009302A82B466FF0010439F007
:1011E00073F802A8FFF790FED6E72B461C4A302181
:1011F00002A839F069F802A8FFF786FECCE74FF69F
:10120000FF73E5E7642B1AD17B8940F21F125BBAAA
:10121000C3F30D0393420FD1FB895BBA9BB2114A12
:101220004021009302A82B466FF0020439F04CF8DD
:1012300002A8FFF769FEAFE74FF6FF73EFE70093F1
:1012400052462B46402102A839F03EF802A8FFF78B
:101250005BFE90E79C04002082B4030894B403086A
:101260008EB403089EB40308ABB403082DE9F04321
:10127000C04C9BB0226822B940210A2007F0F8FB3D
:101280002060BD4E40F6B83007F03AFABB48FFF791
:101290003BFE0022012102201BF08AF8041E05DA21
:1012A000B748FFF731FE40F6B83020E010220021A9
:1012B00003A839F05FF9022341F2DC308DF80D30DC
:1012C00017F0ECFFADF80E00AE4818F04FFF1022FB
:1012D000049003A920461AF025FF00280ADA2046C8
:1012E0001AF0ECFEA848FFF70FFE41F2883007F035
:1012F00007FACBE7A54FA648FFF706FE2046FFF703
:10130000CBFE002808DCA34B0090A34A402107A88D
:1013100038F0DAFF07A891E035886DBAC5F3090502
:101320003F2D2AD19D4D9E48FFF7EEFD2B682A8860
:101330002046591C52BA296041F20451ADF82420CC
:101340000E2207914FF46061ADF82010190E1B0CAE
:101350008DF8221007A98DF823300023ADF8263030
:10136000ADF82830FFF7BAFD002815DA8D48FFF7F1
:10137000CBFD8D48FFF7C8FD15E02046FFF7B6FE10
:101380000028BBD12B463A46302107A838F09CFFF5
:1013900007A8FFF7B9FDB1E7844A1F212046FFF7F0
:1013A000E1FE0028E5DB2B684FF480782A884FF0B7
:1013B0003740591C4FF0384752BADFF834C2296021
:1013C00041F20441ADF8242007914FF49641784A48
:1013D000ADF82010190E1B0C8DF822104FF43601B9
:1013E0008DF823304FF43143ADF826304FF482436B
:1013F000CDE90A386F4BCDE90C2309234B22CDE907
:101400000E136D4B07A9CDE910034FF4106320466E
:10141000CDE912730027694BCDE91473684B8DF841
:101420006670CDE916C34FF46E0318930623ADF82A
:101430006430FFF753FDB84207DA6248FFF764FDF6
:1014400020461AF03BFE60482BE7604A1E212046EA
:10145000FFF788FE0028F3DB2B684FF460692A88C9
:101460002046591CADF8209052BAADF8267029607C
:1014700041F60401ADF824200E220791190E1B0C31
:10148000ADF828808DF8221007A98DF82330FFF7DA
:1014900025FD002801DA4E48D0E74E4A2221204699
:1014A000FFF760FE0028CBDB2B6820462A88591CFA
:1014B000ADF8209052BAADF82670296041F204616F
:1014C000ADF824200E220791190E1B0CADF82880D0
:1014D0008DF8221007A98DF82330FFF7FFFC0028B4
:1014E00001DA3D48AAE73D4A20212046FFF73AFEAF
:1014F0000028A5DB3A4D44F604073A48FFF704FDFF
:101500002046FFF7C9FD002802DC374B0090FCE6BF
:1015100033885BBAC3F309033D2B05D1FFF70AFDFE
:10152000012007F0EDF8EBE73E2B1AD1D6F80620A4
:101530004FF420612046079713BA8DF82220ADF8AA
:10154000201007A91A0C5BBA8DF823200A22ADF8E7
:101550002430FFF7C3FC0028E2D02448FFF7D4FC76
:10156000DEE73F2BDCD02A46302107A838F0ACFE5E
:1015700007A8F3E79C1400209C040020B9B40308DA
:10158000C8B40308D3B40308DFB4030813B50308D1
:10159000EBB40308F2B40308FCB403080400002011
:1015A00002B503081DB5030831B503082AB50308C1
:1015B00000B2001200B3000500180001BA000700D5
:1015C000000D02003AB5030899B5030847B50308B2
:1015D0004EB503085BB5030862B503086FB5030891
:1015E00017B5030876B5030882B503088EB503085E
:1015F000010100ED054C08B500F004FE636803B17D
:1016000000BF4FF47A7007F07BF8F7E7301700203F
:1016100010B594B01022002102240AA838F0AAFFC5
:101620001422002103A838F0A5FF1D4B192108A89A
:101630001A6C42F080521A641B6C03F080530193C1
:10164000019B184B1A6842F440421A6001221B6841
:1016500003F440430293029B4FF48033CDE9082307
:101660004FF48003CDE90E434FF4D873CDE9124413
:10167000CDE9101305F0FAFF05F056FD0F23002009
:101680000721CDE903344FF4A053CDE905034FF40E
:10169000805303A8079306F0D1F914B010BD00BF22
:1016A000003802400070004030B54FF480738FB0B6
:1016B0004FF080720E4D06939F23099201220093F2
:1016C00000230446694628460593CDE90A2341F2E2
:1016D0008832CDE90733CDE90C3305F093FE41F2B2
:1016E00088322146284605F05DFF0FB030BD00BFAF
:1016F000F414002000B54FF4807391B04FF04072A5
:10170000EF2808934FF0EB0302A90D4802934FF422
:10171000406309934FF4005305934FF00003CDE964
:101720000A3214BF0A2206220F9307926A46CDE9B5
:101730000D33CDE9003305F0AAFE11B05DF804FBCE
:10174000F41400202DE980484FF010089BB00021D0
:10175000012642460DA838F00DFF002403F0B8FE24
:10176000C74AC84B0DA8ADF834601094CDE90E23DC
:1017700003F0CCFE4FF010430DA88DF835600E93AA
:1017800017238DF83E408DF83C308DF8426003F011
:10179000BDFE062003F0AAFEBFF34F8FBFF36F8F8D
:1017A000B94BC3F85042BFF34F8FBFF36F8F5A69E5
:1017B00042F400325A61BFF34F8FBFF36F8F03F0D3
:1017C000EDFD4FF0030BFFF723FF142221460DA878
:1017D00038F0D0FEAD4B4146AD481A6B4FF4805AFD
:1017E000AC4D4FF0040942EA0802AB4F1A631A6B82
:1017F00002EA08020292029A1A6B42F040021A634D
:101800001A6B02F040020392039A1A6B42F0020232
:101810001A631A6B02F002020492049A1A6B3243A2
:101820001A631A6B32400592059A1A6B42F40072E1
:101830001A631A6B02F400720692069A1A6B42F04F
:1018400008021A631A6B02F008020792079A1A6BD1
:1018500042F480621A631A6B02F480620892089A5A
:101860001A6B42F020021A631A6B02F020020992EE
:10187000099A1A6B42F480721A631A6B02F480722E
:101880000A920A9A1A6B42F080021A631A6B02F0EB
:1018900080020B920B9A1A6B42F004021A632246E2
:1018A0001B6B03F004030C930C9B04F00BFF3246FC
:1018B00008217A4804F006FF32464FF480517848F8
:1018C00004F000FF2246C021764804F0FBFE2246C9
:1018D0004021754804F0F6FE0DA96D48CDF840B0E2
:1018E0000F94CDE90D8604F069FD08230DA96B481E
:1018F000CDE90D36CDE90F4404F060FD0DA968482F
:10190000CDE90DA6CDE90F4404F058FDC0220DA984
:101910006448CDE90D26CDE90F4B04F04FFD402280
:101920000DA96148CDE90D26CDE90F4B04F046FD28
:101930005E485F49848001600662C0E9054403F0A7
:1019400011FE5C492846C5E90014C5E90244C5E911
:101950000A44C5E90C4403F0A4FE31462846564D1E
:1019600003F058FF55494FF4C0723846BC60FC6123
:10197000BC62C7E900144021C7E905124FF40062B8
:101980000DA9C7E9082A4FF0020A0722C7E9039800
:10199000CDE90DA2CDE90F92CDE911BACDF84CA059
:1019A00006F0A8FB29464FF6FF7238460194C5E9B8
:1019B0000068C5E9026406F0BDFB304603F012FD85
:1019C00029464FF6FF723846C5E900A8C5E902640A
:1019D00006F0B0FB082329464FF6FF723846C5E9EA
:1019E00000B8C5E9023406F0A5FB4FF40C734FF6BE
:1019F000FF72294601933846019B40F2352BAE60B9
:101A0000EB60C5E9009806F095FB40F22B71384673
:101A10002B4D06F0AEFB43F2D2024FF02043642080
:101A200028271A6003F0DEFC264B27482C62C5E904
:101A300000032846C5E90246C5E90444C5E9064451
:101A400004F081FF2146284605F0A4F921462846E6
:101A50001E4D05F0C5F9342221460DEB020038F089
:101A600089FD1B4B4FF0350C40F2152E28462C619A
:101A7000AC8685F83640C5E9003409232AE000BF6A
:101A800000C004200D00010300ED00E0003802401A
:101A9000000402403C160020C01400200028024030
:101AA0000020024000080240001802407C1600207E
:101AB0000030024000B00240A0140020400100A00D
:101AC000E815002068474020005C004040150020D9
:101AD00000680140C5E905730B23C5E907C340F25F
:101AE0001B13C5E909E340F21D13C5E90244C5E92A
:101AF0000BB305F01BFAFF214FF480604FF4F07236
:101B00004FF488730D94ADF8644018938DF86640D7
:101B1000CDE912140521CDE914014FF040412846CA
:101B20001825CDE91612CDE90E240DA92246CDE9DE
:101B3000103A05F0AFFA2048204B0462C0E90036A5
:101B40004FF4A063C0E90298C0E90453C0E9064419
:101B500005F006FC0DA8FFF7A7FD9DF83400FFF780
:101B6000C9FD5C2003F0A2FC00F04AFB00F0A6FED9
:101B700000F0A3FE06F020FD114A2146114806F0B0
:101B800069FD114B114A21461860114806F062FDAB
:101B9000104B114A21461860104806F05BFD104BAF
:101BA000104A21461860104806F054FD0F4B18608B
:101BB00006F01CFDFEE700BFF4140020001000A09A
:101BC00050B60308F5150008BC1400202CB6030815
:101BD000CB280008B814002008B603085D440008AC
:101BE000B4140020E4B503086D120008B0140020FE
:101BF0000268034B9A4201D103F0E2BB704700BF79
:101C000000100040704700000D4B82B00F216FF0B4
:101C100001001A6C42F080521A641A6C02F0805271
:101C20000092009A5A6C42F480425A6400225B6C23
:101C300003F480430193019B02B003F0F7BB00BFA4
:101C400000380240026882B0084B9A420BD1D3F8A8
:101C5000302803F5006342F480521A631B6B03F4CF
:101C600080530193019B02B0704700BF00300240D7
:101C70000E4B07B502689A4215D1A3F5F043052132
:101C80005A201A6B42F400021A6300221B6B03F401
:101C900000030193019B03F0C9FB5A2003B05DF8D8
:101CA00004EB03F0F5BB03B05DF804FB00B00240A9
:101CB00010B5A8B004461422002102A838F05AFC3E
:101CC0008422002107A838F055FC2268174B9A425D
:101CD0002AD14FF4803307A8079305F081FF08B19C
:101CE000FFF790FF124C4FF4C07201211148236B93
:101CF00043F080032363236B03F080030093009B76
:101D00001223CDE902230323CDE90413042302A9FE
:101D1000069304F053FB236C43F400032364236C09
:101D200003F400030193019B28B010BD005C004048
:101D300000380240001C0240026808B5094B9A4274
:101D40000FD1094A80210948136C23F4000313645E
:101D500004F018FC4FF480710448BDE8084004F01A
:101D600011BC08BD005C004000380240001C02406D
:101D700070B5ACB004461422002106A838F0FAFB76
:101D8000842200210BA838F0F5FB2268484B9A42C8
:101D900040F08C800823052001240B934FF4C0737E
:101DA00010930223CDE911304FF400330BA8CDE995
:101DB000154305F015FF08B1FFF724FF3D4B002444
:101DC00002250E265A6C06A93B4842F080625A64EE
:101DD0005A6C02F080620092009A1A6B42F0100274
:101DE0001A631A6B02F010020192019A1A6B42F404
:101DF00000721A631A6B02F400720292029A1A6B52
:101E000042F480621A631A6B02F480620392039AAE
:101E10001A6B42F040021A631A6B02F040020492FD
:101E2000049A1A6B42F480721A631B6B03F480737A
:101E30000593059B1023CDE90635CDE908440A96A4
:101E400004F0BCFA4EF6FF7306A91C480A96CDE9C9
:101E50000635CDE9084404F0B1FAF72306A918487D
:101E60000A96CDE90635CDE9084404F0A7FA4FF407
:101E7000805306A91348CDE906350923CDE9084466
:101E80000A9304F09BFA4FF4464306A90E480A96BB
:101E9000CDE90635CDE9084404F090FA58202246F1
:101EA000052103F0C3FA582003F0F2FA2CB070BDFC
:101EB0000068014000380240001002400024024047
:101EC0000028024000180240002002401422002195
:101ED0002DE9F0418AB004460DEB020038F04AFBD0
:101EE00022682C4B9A4251D12B4B02250324092600
:101EF0009A6B4FF0040805A9284842F00202002717
:101F00009A639A6B02F002020192019A1A6B42F0F4
:101F100010021A631A6B02F010020292029A1A6BF4
:101F200042F002021A631A6B02F002020392039A51
:101F30001A6B42F008021A631B6B03F00803049348
:101F4000049BCDE90585CDE9084604F037FA402326
:101F500005A91348CDE905350A23CDE9077409938E
:101F600004F02CFA05A90E480996CDE90585CDE9BE
:101F7000077404F023FA4FF4605305A90948099641
:101F8000CDE90535CDE9077404F018FA0AB0BDE8CB
:101F9000F08100BF001000A0003802400010024095
:101FA00000040240000C0240F0B5002387B0039308
:101FB000294B1E68002E4DD10122022703250C2437
:101FC0001A6001A9254B26489A6B42F001029A63D8
:101FD0009B6B03F001030093009B4FF68373CDE9E5
:101FE0000454CDE9013704F0E9F948F2331301A9AB
:101FF0001C480594CDE90137CDE9036504F0DEF90D
:102000004CF2037301A918480594CDE90137CDE9D5
:10201000036504F0D3F94FF63F0301A91348059473
:10202000CDE90137CDE9036504F0C8F9282301A9FA
:102030000F480594CDE90137CDE9036504F0BEF9F9
:10204000082301A90B480594CDE90137CDE90365C3
:1020500004F0B4F907B0F0BDA0160020003802402B
:102060000010024000180240000C02400014024020
:10207000001C024000080240214B1A6C42F0100282
:1020800070B51A6488B01B6C054601A903A803F05B
:1020900010030293029B05F085FD069B4BBB05F0E8
:1020A00071FD184E184B336040F2E733F360174B65
:1020B000B0FBF3F3013B3046736000233361B36040
:1020C000B36106F0BBF9044680B9304606F06AF801
:1020D000044658B9362003F0DBF90F2D0DD82246FF
:1020E0002946362003F0A2F9094B1D60204608B0AE
:1020F00070BD05F047FD4000D3E70124F6E700BFBF
:1021000000380240A41600200010004040420F009A
:10211000540000207047FEE7FEE7FEE7FEE7704749
:10212000014806F081B800BFA4160020014803F062
:10213000E9BF00BFBC170020014804F04EBF00BF3C
:1021400040150020014803F0DABA00BF3C16002019
:1021500001207047024B16224FF0FF301A60704783
:1021600010C30120014B16221A60FEE710C30120A4
:1021700070B50D4614460E46731B9C4201DC20468A
:1021800070BDAFF3008006F8010BF5E770B50D46A2
:1021900014460E46731B9C4201DC204670BD16F8A7
:1021A000010BAFF30080F5E74FF0FF3070474FF4BD
:1021B000005300204B60704701207047002070479B
:1021C0000A4A0346116810B509B909491160106837
:1021D000084C09490344091B8B4283BF074B0C225F
:1021E0004FF0FF30136088BF1A6010BDF01600205A
:1021F000C8D00120000A00000000052010C3012003
:1022000070477047F0B5A923254F0024254E3B7039
:10221000FE23254D85B07B70012321462046BB70EF
:1022200002232C70FB70FF236C7033707370AC70E2
:10223000EC70B470F4701EF05FF83B681B491C4AE8
:102240000B603368286813601A4B1B4D18601B48DD
:1022500002901B48CDE90040284618F041FF28466F
:1022600018F0CAFF284618F0CDFF2846154919F086
:102270003DF8154B21462022184638F07BF91349CA
:10228000021F102340F8041C4FF480611048C2E97B
:102290000513294605B0BDE8F04006F0DBB900BFE4
:1022A000201700201C170020181700202C170020D2
:1022B000281700202417002030170020650202088C
:1022C0007124000803220008F816002074B60308E1
:1022D0002527000800207047F0B58DB00C4630224D
:1022E0000021684638F046F96A4623460021EBB9DA
:1022F00023892046194D1A4E1A4F6B60C5F808D035
:102300006C6319F03FFA2946304603F027FE88B186
:10231000304604F04DF883071BD54FF4FA61386856
:1023200006F0FCFA304603F0BBFEECE7042903D1CB
:102330006FF00B000DB0F0BD586810605889506008
:1023400009B142F8042C1B6803B9936001310C32C7
:10235000CDE7204619F0A2F8EAE700BF8417002075
:10236000BC1700206C18002003F036B8024808B5EE
:1023700003F0F4FF002008BDBC17002008B5134689
:102380000A460146034803F02BFF003818BF01201E
:10239000404208BDBC17002008B513460A46014656
:1023A000034803F044FF003818BF0120404208BD35
:1023B000BC1700200146084808B518F0A3FD074BDC
:1023C0001A78012A07D100221A70054B1868BDE857
:1023D000084006F0DFBA08BD0CB7030874180020E7
:1023E000701800202DE9F7430546114FDFF84480AF
:1023F000DFF844904FF0FF31386806F08FFA04465A
:102400000028F7D198F8003001941BB901A948467B
:1024100003F0D2FD019E002EECD02B6929463046F8
:1024200098470028EED0304619F038F8EAE700BFA8
:102430007018002074180020BC170020014B186889
:1024400006F0A8BA70180020014B186806F0A2BA6E
:102450006C18002008B503F0AEFF030605D5034B4A
:102460001868BDE8084006F095BA08BD701800204D
:10247000F0B50446A5B030B9594B40F20D22594988
:10248000594837F00FFF47F27343642200210BA82D
:10249000E3850026554B564D6361564BA36138F0DA
:1024A00069F8554B2846ADF804602B60534BC5F8CE
:1024B00004D000934FF40003AB60514BEB60514BE1
:1024C0002B614FF4C0636B6103F0C4FB4E4B31468C
:1024D00034220746184638F04DF8212240F8042CE3
:1024E0004FF440020261494818F0B8FC0623314617
:1024F000012084F82C306B681A7884F826205A78EA
:1025000084F827209A7884F82820DA7884F829201B
:102510001A7984F82A2032465B7984F82B3040F20D
:10252000DC53A38494F82D3043F00A0384F82D3053
:1025300006F09CF9364B324631461860012006F011
:1025400095F9344B20223146186003A838F012F870
:10255000314B4FF4AF7002AA029330232146CDE9EC
:1025600007032E4806F076F82D492E4802F0A2FD0A
:102570002C4802F0B3FD40B1204618F09DFE2046E5
:1025800018F05AFE002025B0F0BD37BB254802F0F8
:10259000D2FD0128F0DD03380BA9022893BF224B9E
:1025A0004FF480454FF4006633F810609CBF1F4B1A
:1025B00033F810500E4803F05EFE0BA90C48CDE92D
:1025C000105603F0BEFE0A4803F040FC204618F007
:1025D00019FE204618F04CFED4E7FFF713FBD1E7B5
:1025E0007CB60308B2B60308C0B60308C198010858
:1025F000BC170020D9220008008002400080E100C2
:1026000040010020E0010020881700200CB70308DB
:10261000701800206C180020E8B60308E5230008B5
:10262000080000206417002004B70308FEB6030862
:1026300002F0D2BE70B58CB004461422002107A867
:1026400037F098FF2268334B9A4260D1A3F590434C
:1026500002240B2607A91A6B00252F4842F00072AE
:102660001A631A6B02F000720192019A1A6B42F01F
:1026700080621A631A6B02F080620292029A1A6BED
:1026800042F000621A631A6B02F000620392039A2E
:102690001A6B42F040021A631A6B02F04002049275
:1026A000049A1A6B42F004021A631A6B02F00402D5
:1026B0000592059A1A6B42F001021A631B6B03F034
:1026C00001030693069B4FF4D043CDE907340A94E7
:1026D0000B9603F073FE322307A910480B96CDE941
:1026E0000734CDE9095403F069FE862307A90C4895
:1026F0000B96CDE90734CDE9095403F05FFE3D2088
:102700002A46052102F092FE3D2002F0C1FE0CB0E7
:1027100070BD00BF00800240001802400008024067
:10272000000002402DE9F04700259AB0DFF89490B0
:102730000446A8462F46214E6422DFF88CA00021D3
:1027400001A837F017FF484602F0F5FC94F82D3049
:102750005A0710D501280CDC304603F0B9FB20469F
:1027600018F06AFD204618F0A7FD642005F0C8FFA8
:10277000E9E75B07F9D40128F7DD831E032B19D89D
:102780000F4A3AF8138032F8135001A9304603F08B
:1027900072FD01A930460127CDE9068503F0D1FD80
:1027A000304603F053FB204618F02CFD204618F06D
:1027B0005FFDDAE7002FD8D0E7E700BFBC170020A5
:1027C000EEB6030864170020F6B6030813B50446F6
:1027D0000C4818F065FB034678B100F120020A4965
:1027E000226001614FF4C061CDE900210021412246
:1027F000084618F001FE02B010BD044A0121206015
:102800001170F8E70CB70308B5230008741800200E
:1028100030B50025A2F1200422F8163C42F8205CD5
:1028200022F8185C05686DB904600C60016861B934
:10283000BFF34F8F0A49002B0CDCBFF34F8FBFF360
:102840006F8F30BD0D682C60EFE708891844088150
:102850000968ECE7C1F85C22203B2032EBE700BFBF
:1028600000ED00E018F01ABEDFF834D002F0AEFC44
:102870000C480D490D4A002302E0D458C4500433DB
:10288000C4188C42F9D30A4A0A4C002301E01360B1
:102890000432A242FBD337F0F7FEFEF753FF704736
:1028A000000005200000002080040020F03404080F
:1028B00080040020C8D00120FEE7704708B501F071
:1028C00093F9BDE8084001F017B901F08FB94068ED
:1028D00070474160704700004FF0E022D2F8FC3DA5
:1028E00043F08073C2F8FC3D054B064AD3F8B01F95
:1028F0000A43C3F8B02F1A6842F001021A60704709
:10290000001000E055CEACC5521A02EB5302B2FBE8
:10291000F3F07047014B5868704700BF001000E0AB
:10292000704710B504460C2136F091FB204610BDCF
:10293000036810B51B69044631B19847A268636803
:102940009B1A0344636010BD9847A060FBE700003A
:10295000024B7020024A1360DB68184728000020F1
:1029600000620020704710B50446042136F06FFB6A
:10297000204610BD73B50E4E0D461446336813B98C
:10298000002002B070BD1B69702098470028F7D066
:102990003368702001AA0DF106015B699847BDF804
:1029A000043001202B60BDF806302360E9E700BF4A
:1029B000006200207FB501238DF817204FF47A7252
:1029C000CDE901320DF1170200920A460146054891
:1029D00004F028F810B1034804F00AF807B05DF8D5
:1029E00004FB00BFE81500207FB500230A464FF422
:1029F0007A718DF817300123CDE901310DF11701FE
:102A000000910146054804F0E7F810B1034803F0CF
:102A1000EFFF9DF8170007B05DF804FBE8150020F4
:102A2000032823D8DFE800F0020B131A104B102103
:102A300010481A68B2FA82F2520903F043BE0C4BF6
:102A400040215A68B2FA82F252090B48F5E7084B66
:102A500080219A68B2FA82F25209F6E7044B4021CB
:102A60000648DA68B2FA82F25209E6E7704700BF18
:102A700004620020000402400008024000180240E6
:102A8000032823D8DFE800F0020B131A104B1021A3
:102A900010481A68003A18BF012203F013BE0C4B0D
:102AA00040215A68003A18BF01220B48F5E7084B4D
:102AB00080219A68003A18BF0122F6E7044B4021B2
:102AC0000648DA68003A18BF0122E6E7704700BFFF
:102AD0000462002000040240000802400018024086
:102AE00003280FD8DFE800F00206090B1021064882
:102AF00003F0EDBD40210548FAE78021FBE74021C6
:102B00000348F5E7704700BF000402400008024098
:102B10000018024008B5032813D8DFE800F0020AC5
:102B20000D0F1021084803F0C7FD431E58425841BD
:102B300008BD40210548F6E78021FBE74021044815
:102B4000F1E70020F1E700BF000402400008024066
:102B50000018024070B5084D00240126E0B2FFF7CE
:102B6000D9FF18B12B68012B18BF2E600134043532
:102B7000052CF3D170BD00BF04620020012380F852
:102B80007C1080F87D30704770470020704700004F
:102B900081640039024B18BF01211970704700BFD2
:102BA00087C30120704700207047C36B0BB10846F4
:102BB000184770474FF6FF707047406803689B697D
:102BC000184770477047704738B5044601F066F9FA
:102BD000084923682046084DD3F8903098470023D1
:102BE000284684F84E30FFF777FE0123256184F8EC
:102BF000743038BD000000C01462002001F0F0B84D
:102C000001F0F4B870B501F073F910490023C1F870
:102C10008430BFF34F8FD1F8803043F6E074C3F3B4
:102C2000C900C3F34E335B0103EA0406024646EAD9
:102C30008275013AC1F87452F9D2203B13F1200F8A
:102C4000F2D1BFF34F8FBFF36F8F70BD00ED00E087
:102C500001F050B901F0A0B801F072BA01F07ABAEF
:102C600001F0A4B810B504461FF096F8236820467A
:102C7000D3F8BC30BDE8104018471EF070BA10B54C
:102C80000446882136F0E3F9204610BD90F838104C
:102C90000D4B10B590F87C401A788C4209D03AB9A7
:102CA0000A490B4A08881488108001220C801A7087
:102CB00010BD002AFCD0064A0449148808880C80FC
:102CC00010800022F3E700BF86C301208EC30120DD
:102CD00090C3012008B5094B1B888B4203D8084BD1
:102CE0001B88934205D9074BA521074A074837F0AF
:102CF000D7F8074B1980074B1A8008BD90C30120F5
:102D00008EC3012058B70308BBB70308FEB70308FA
:102D10008CC301208AC301202DE9F0410D460446F1
:102D2000194635B9154B40F20131154A154837F0AF
:102D3000B7F8C0E91052003A0368134E18BF0122D9
:102D4000D3F8903032709847E569A5B12B681F68B9
:102D5000337873B1236820465B6B9847236C8342BA
:102D600007D1616C094B28461A883B46BDE8F04103
:102D70001847216CF6E7BDE8F08100BF43B80308AF
:102D80007BB80308FEB7030888C301208CC3012069
:102D9000034690F87E0018B1586803681B6818470E
:102DA00070470000034B00225A609A60024A1A6082
:102DB000704700BF1462002020B7030801210022E1
:102DC00008B5084605F052FD0A4B186028B90A4BB1
:102DD00028210A4A0A4837F063F80022042101201A
:102DE00005F046FE074B186018B9074B2C21034A23
:102DF000F0E708BD24620020B8B9030801BA03084F
:102E000030BA03082062002076BA0308024B4FF064
:102E1000FF31186805F082BD24620020014B18685C
:102E200005F0B8BD24620020024B0021186805F0AF
:102E300075BD00BF24620020FFF7F0BF00230348E8
:102E400003491A46006805F059BE00BF2062002001
:102E50001C00002013B50023074C01A91A46206866
:102E600005F08EFE4FF0FF33002201A9206805F027
:102E700087FE02B010BD00BF2062002003685B6CBB
:102E800018470120704703689B6A1847FEE7000057
:102E90000E4B82B01A6B42F400021A631A6B02F4F2
:102EA00000020192019A1A6942F400021A611A6939
:102EB00022F400021A61064B064A5A61064A1A6158
:102EC0004FF08062054B9A6002B0704700380240B4
:102ED0003C1600208D2E00085531000800E100E06E
:102EE00040F2EF3070470000054B4FF08062036006
:102EF000044BC3F88820BFF34F8FBFF36F8F704729
:102F00000CBC030800E100E010B504464FF45A6120
:102F1000FFF7EAFF204636F09AF8204610BD000081
:102F200008B50A2809D8DFE800F006100E080808DE
:102F3000081010101000022008BD054B9021054A12
:102F4000054836F0ADFF0020F6E70120F4E700BFAA
:102F5000B8BA0308D3BA03081EBB030838B50C4639
:102F6000887FFFF7DDFF124BA58AE28A586342EAA9
:102F7000054221695A64628BD963521B1A64256821
:102F8000082D0ED19A611A6158620A4A207F42EADE
:102F90000062DA61E2681A62074A5961D9601A6010
:102FA00038BD0022D8611A61E2689A63034AF6E7E5
:102FB00000B00240090001000123020001230300C8
:102FC00008B50B280BD8DFE800F00612100A0A0A31
:102FD0000A0808080808022008BD0520FCE7054B80
:102FE0006F21054A054836F05BFF0020F4E7012019
:102FF000F2E700BFB8BA030862BB03081EBB0308B0
:103000002DE9F04191F81D800C464046FFF7D8FFAE
:10301000A77F05463846FFF7D3FF06463846FFF739
:103020007FFFA18A628B434B521A1A649A61228BEA
:10303000521A1A61E28A586342EA014221695A64CB
:103040006268D963DA602068802828D0227F0FD890
:10305000202866D0402864D004281AD045EA0265AA
:10306000344BB84545F40035DD6160D0324A44E068
:10307000B0F5807F04D0B0F5007FEFD12F4800E09D
:103080002F4840EA0262DA61E2681A625E625961C0
:1030900032E045EA026242F40032DA61F6E7A06803
:1030A000021DDA62227F45EA026545F40035DD61E2
:1030B0005E625961017841B1012921D0214B4FF461
:1030C0008D71214A214836F0EBFEDA69418822F4FD
:1030D0007F42013922F0100242EA01220121DA6125
:1030E000144BDA6942F02002DA61DA699206FCD404
:1030F00010229A600029B9D0154A1A60BDE8F08103
:10310000B2F1FF01DA69408822F47F4218BF012141
:10311000013822F0100242EA002242F01002DA6185
:10312000DEE745EA0262034B42F40032B5E742F2C1
:103130000132E2E700B00240012301000900020071
:103140000A000200ACBB0308C6BB03081EBB030891
:1031500001230200024B1B68586803685B6918472B
:1031600094C3012070B504460A4B0C300026254656
:10317000602260602672667245F8203B29461EF088
:1031800075FF04F55A63EE6024359D42FBD120465D
:1031900070BD00BF0CBC0308034B1A68D207FCD4F7
:1031A00023229A60704700BF00B00240094B5A6961
:1031B000D2030AD5BFF34F8F08440029A0EB0102C8
:1031C00004DCBFF34F8FBFF36F8F70472039C3F814
:1031D0006822F2E700ED00E030B5104C2568ED07FD
:1031E000FCD423250904FF2BA56041F001014FF019
:1031F000020565636164E0630AD00949656241EADA
:103200000363E361074B22626061E060236030BDCD
:10321000E561039BA363044BF8E700BF00B00240E5
:1032200009000100010002000100030030B50F4C4D
:103230002568ED07FCD423251204FF2BA56042F07E
:1032400001024FF0020565636264E063E16008D04B
:103250001B0643F00213E361054B65626061236066
:1032600030BD044BE3610123F9E700BF00B0024029
:1032700001000200020002FF30B50B4C2568ED078B
:10328000FCD4232512041B06A56042F0010202258E
:1032900043F4003365636264E063E160E361034B20
:1032A00065626061236030BD00B002400100020031
:1032B0004069704790F844007047036B23B9C06AB7
:1032C000003818BF012070470120704780687047A0
:1032D000043010B50C460FC884E80F0010BD7047CD
:1032E00008B5034A40F21221024B034836F0D8FDDC
:1032F00054BC030819010408AFBC030810B5044608
:10330000482135F0A4FE204610BD00002DE9F04311
:103310001D46ADF51F7D436B06460F469046BDF832
:103320009842002B35D0002203A8DFF8A490CDE905
:1033300001320DF013FD4FF4F4725021249024A8B3
:1033400007F0C1FC4246394624A808F015FC0121CB
:1033500024A807F0B3FD022324A88DF8D83007F085
:103360004EFE2B9B419AA342BDF89C7228BF234678
:103370009742A4EB030428BF174603EB43086400FD
:10338000479B9F4209D824A807F0BAFD24A807F05C
:10339000E7FC0DF51F7DBDE8F083012201A924A8FB
:1033A00007F076FE736B03EB0800984201D82544C2
:1033B000E6E759789A78C90009EA022201F4FC612B
:1033C0000A4313F8031B42EAD10225F8022BECE76B
:1033D00000F8FFFF0A4A02600022C0E90522C0E9A6
:1033E0000722C0E90922C0E90B22C0E90D12C0E999
:1033F0000F2280F84420C0E90322C0E9012270476F
:1034000088BF030810B40C4611461A46036B3BB143
:10341000036C806BE41A20445DF8044B37F0B2B8BB
:10342000C06AF8E7036B10B573B1036C826BC91AFD
:103430005318525C98785C780004DB7840EA0420EA
:10344000104340EA036010BDC36A5858FBE7036BA2
:1034500043B1036CC91A836B5A18585C527840EA1E
:1034600002207047C36A585A7047000070B504467E
:10347000006B0D461646D8B1E36B934208D2092380
:103480000D4A65210D4884F844300D4B36F008FD97
:103490000368DB689847206B3246A16B03681B69A1
:1034A000984710B90D2384F84430A06B256470BD93
:1034B000E06A0844FBE700BF12BD0308AFBC030885
:1034C000FFBC03082DE9F843436904462BB9234B9D
:1034D000AA21234A234836F0E3FC08228169FFF73A
:1034E000C5FFA16943F2300646F264370431204635
:1034F000FFF798FFA3691844A36A00F108029A42F3
:1035000006D3012300206361236AA361BDE8F88329
:10351000636909300822013320F00101204663610C
:10352000A161FFF7A3FFD4F8189020464946FFF7A2
:103530008EFF09F1020180462046FFF788FF09F15E
:10354000040105462046FFF76DFFB045D2D1BD42CC
:10355000D0D10028CED00120D8E700BF54BD030849
:103560009DBD0308AFBC03082DE9F04F0446ADF53F
:103570001F7D8A461646816908229846FFF776FF26
:10358000A7692046391DFFF74DFF07F108010246E4
:1035900005462046FFF76AFF636B074633B93C4B8D
:1035A00040F2AB113B4A3C4836F07AFC002203A8BB
:1035B000CDE901320DF0D2FB4FF4F472502124908A
:1035C00024A807F080FB2A46394624A808F0D4FA3C
:1035D000012124A807F072FC022324A88DF8D8301A
:1035E00007F00DFDBAF90250479BAB4229D3BAF957
:1035F00000904FEA4808BAF804702B9B08FB056658
:103600004F44BAF80250DFF894B03FB29F4228BF4F
:103610001F46BAF8063009EB490A1D44419B2DB2FA
:103620009D4228BF1D46479BAB4210D324A807F0FC
:1036300067FC24A807F094FB01200DF51F7DBDE871
:10364000F08F012201A924A807F022FDCCE7012276
:1036500001A924A807F01CFD626B49465244B942F7
:1036600002F1030201D34644DDE712F8020C12F81E
:10367000013CC0000BEA032300F4FC60034312F892
:10368000030C43EAD00326F811300131E7E700BF0D
:10369000D0BD030826BE0308AFBC030800F8FFFF37
:1036A0000129036838BF0121DB6A70B50D46044665
:1036B0009847A84204D223682046DB6A984705460B
:1036C0006B1EE6691022204606EB031606F1080180
:1036D000FFF7CCFE06F110012046FFF7A3FE236A98
:1036E000043B0344C4E9055370BD00000021482297
:1036F0002DE9F0410446816180F84410FFF7B6FEE1
:10370000A6690423624A31462046FFF77BFE40B19A
:103710000323604AF22184F844305F4B5F4836F05F
:10372000BFFB06F1080104235D4A2046A161FFF7B3
:1037300069FE30B10423574AFA2184F84430594BCA
:10374000ECE706F10C010423574A2046A161FFF77C
:1037500059FE074638B105234E4A40F2011184F85C
:103760004430524BDAE706F110012046FFF75AFECB
:10377000054620B94E4B40F20711464ACEE706F106
:10378000140804234B4A20464146FFF73BFE00281D
:1037900049D0062384F844300423474A06F118012F
:1037A0002046FFF72FFE00283FD0072384F844303F
:1037B0004544424F0C2220462946FFF757FE05F1AB
:1037C000080604233A4620463146FFF71BFE94F8CC
:1037D0004430002848D0002B48D1A36AAB4249D8D6
:1037E00005F10C0304352046A3612946FFF71AFEB4
:1037F0003044294660622046FFF714FE0644042246
:1038000020463146FFF732FE04232D4A314620463A
:10381000FFF7F8FD002838D10123E6616361A36951
:103820002362BDE8F0810127B6E7002FC0D006F182
:1038300020012046FFF7F6FD4FF47A7306F13001C0
:10384000B0FBF3F060602046FFF7ECFD06F14001AD
:10385000A0602046FFF7E6FD06F14401E060204647
:10386000FFF7E0FD2061A3E7002BB9D00A2384F81D
:103870004430D6E7291D2046FFF7D4FD85190C22D8
:1038800020462946FFF7F2FD99E70B23EFE700BF3B
:1038900080BE03089EBE030885BE0308AFBC0308B4
:1038A000CBBE0308D0BE0308E8BE0308EDBE030884
:1038B00003BF03080FBF030814BF030819BF0308A1
:1038C0001EBF0308C0E90A2100220263FFF70EBFF2
:1038D00010B5002304460846E3620B6821639B6829
:1038E0009847A0622046BDE81040FFF7FFBE70B4C5
:1038F000BDF80C50BDF810602AB123B1CDE90356D4
:1039000070BCFFF703BD70BC704700002DE9F04F9D
:103910009946436985B004460F4690462BB9294B1A
:103920007721294A294836F0BBFA08228169FFF736
:103930009DFDA66920463146FFF789FDB11C8346EF
:103940002046FFF784FD311D82462046FFF76AFDC1
:1039500006F10801A36A054642189A4226D243F2AC
:1039600030039B4517D146F264339A4513D190B189
:103970000246A1612046FFF779FD0E9B01462A46CB
:103980002046CDF80080CDE901933B46FFF7AFFF1D
:10399000636901336361A3692B4405B908330133BB
:1039A000626A23F001039342A36109D1012301203C
:1039B0006361236AA36180F0010005B0BDE8F08F68
:1039C0000020F8E754BD030823BF0308AFBC030879
:1039D000012070470C2070470C2303FB01000830C6
:1039E00070470C2303FB010008307047012070472B
:1039F0004FF49C7070474FF49C7303FB0100083038
:103A000070474FF49C7303FB01000830704701209E
:103A100070471020704700EB01100830704700EB32
:103A2000011008307047084600F03ABF034B10B54C
:103A3000044603601DF0E1F8204610BD30C00308C5
:103A400010B50446FFF7F2FF1421204635F0FFFAC7
:103A5000204610BD034B10B5044603601DF0CDF8A1
:103A6000204610BDFCBF030810B50446FFF7F2FF67
:103A70004FF4A071204635F0EAFA204610BD000050
:103A8000034B10B5044603601DF0B7F8204610BD87
:103A9000C8BF030810B50446FFF7F2FF18212046FF
:103AA00035F0D5FA204610BD084B10B5044603602A
:103AB00000F5B670FFF7BAFF04F12C00FFF7CAFF5C
:103AC00004F11400FFF7DCFF204610BD64C00308BA
:103AD00008B50248FFF7E8FF08BD00BF04710020E9
:103AE00010B50446FFF7E0FF4FF43871204635F07B
:103AF000AEFA204610BD00002DE9F34100F046FD6E
:103B00000024054600F046FD23460146224628468D
:103B1000009426F049FA274B274A2046274D1A6081
:103B200001F0C6F9264B274A27489A6026F0A2F9E9
:103B30002B68BFF35B8FDB0735D4284635F089FA55
:103B400088B3224C224B04F5C27604F1140004F130
:103B50002C0804F5B67723606060C4F80880E7603D
:103B600026611DF04BF81B4B404663611DF046F883
:103B7000194B3846E3621DF041F8184B04F5C0704C
:103B8000C4F86C3101F018FA224604F5C0713046D1
:103B900001F008FA304600F083FE114836F09EF935
:103BA000284635F062FA0F4802B0BDE8F041FFF751
:103BB0000BB800BFF0C30120B062002000710020EC
:103BC000D0620020B4620020200000200471002098
:103BD00064C00308C8BF0308FCBF030830C0030863
:103BE000D13A0008286200207047000001481DF00B
:103BF00020BB00BF2862002070B5274E274B284C01
:103C00003046284D2360FFF7ADFA28462BF054FCD0
:103C1000254823F093FF254B00224FF48071244860
:103C20001A639A8683F85C209A6683F874209A67F0
:103C3000DC60C3E913121F49C3E91B121E49C3E923
:103C40001F011E491E48C3F884101E49C3E90422FF
:103C5000C3E90622C3E90822C3E90A22C3E90F2205
:103C6000C3E91122C3E91522C3E91822C3E901659A
:103C70000B604FF4F07183F8382001801248018006
:103C80004FF48871114801801148018011490A7070
:103C9000114A1A6070BD00BF5C63002048B703087A
:103CA000FC700020D0620020B46200202862002056
:103CB000000001010100000100044400160014008E
:103CC00090C3012094C301208CC301208EC3012026
:103CD0008AC3012086C30120D4B803080148FFF736
:103CE00003B900BF5C6300200020704781807047EB
:103CF000C1807047018170474181704770477047AC
:103D000070477047704710B4C4880368121B8488DA
:103D10005B6D091B12B25DF8044B09B218474FF6F0
:103D2000FF7383814FF0FF3303621368C361106038
:103D30007047002070478B88838001207047704750
:103D400080F82610704790F826007047002210B5C2
:103D5000B1F90840B1F90A10028042808480C18024
:103D600010BD0022028042808280C28070470177AD
:103D7000704780ED080A704780F82410704780F87B
:103D80002510704701207047983070478C3070477D
:103D90008430704770470000034B902283F85A2309
:103DA00083F85823704700BF00E100E0094A0A4940
:103DB000D3680A48C3F30A03013B9BB20B80116925
:103DC000C1F30A01013901801364536B43F001030D
:103DD0005363704700680140E6730020E4730020DD
:103DE000014BD3F8AC00704700680140024B012240
:103DF000C3F8AC105A62704700680140124A536918
:103E0000DB0370B51ED50023C2F88430BFF34F8F9B
:103E1000D2F8803043F6E074C3F3C900C3F34E33E5
:103E20005B0103EA0406014646EA81750139C2F8DE
:103E30007452F9D2203B13F1200FF2D1BFF34F8F10
:103E4000BFF36F8F70BD00BF00ED00E0704770479B
:103E500070473823002201FB0333C25490F83830F6
:103E60000BB9036C83647047704780F84C1070473F
:103E700010B50446582135F0EAF8204610BD10B5BB
:103E800004462C2135F0E3F8204610BD10B5044659
:103E9000BC2135F0DCF8204610BD000038B50446E2
:103EA0001DF0B3F923689D6E22F02AFC01462046DE
:103EB000A8472368084A2046D3F88C500023A2F56F
:103EC0007F31A847054B064A5A60064A1A649A642D
:103ED0004FF4FF225A6438BD00F807C0A8740020D0
:103EE0000075002000F40BC01DF076B91DF080B9FC
:103EF0001DF03BB91DF0B9BA90F8252012B1036846
:103F00005B6918477047000008B531B1044B40F2B7
:103F10009711044A044835F0C3FF90F8390008BDF2
:103F200070C0030884C0030811C2030810B531B182
:103F3000064B40F29111064A064835F0B1FF406841
:103F400011460368BDE810401B6B184770C003089A
:103F500053C2030811C2030808B529B1034B7A21E3
:103F6000034A044835F09CFF006908BD70C003088F
:103F700004C4030811C2030808B529B1054B832105
:103F8000054A064835F08CFF41618160C0E9063280
:103F900008BD00BF70C00308BCC5030811C20308F8
:103FA00010B5044629B1274BA421274A274835F0EC
:103FB00077FF052A34D8DFE802F003292F34393E91
:103FC000406803681B69984750B34FF0FF31606D3C
:103FD00004F0F0FB0023012294F83E1084F83B30FB
:103FE00084F83920A360636101B1226284F83E3015
:103FF0006362E36A2BB90123206D84F83A3004F040
:10400000C9FC606DBDE8104004F004BC002380F8DA
:10401000393084F83E3003E003620023836043615B
:1040200010BD0362002383604361F2E7002380F840
:1040300039300123EDE7003B18BF012380F83D3004
:10404000EEE700BF70C003087BC7030811C2030876
:1040500090F825201AB190F8242002B1186070471A
:1040600070B50446164629B1314BE721314A324832
:1040700035F016FF90F8393033B1304B1B6893F8A8
:104080006F20436913444361E36A002B4DD0E1691B
:10409000D4E905325343A2684A43934220D2236AAB
:1040A000002B42D04FF0FF31606D04F083FB236A98
:1040B0000BB10023E362E36AFBB90125606D04F0F4
:1040C000A9FB94F839300BB9236A3BB1E36A2BB9E9
:1040D0000123206D84F83A3004F05CFC284670BD62
:1040E00094F84C000028DDD09B1AB3FBF1F2994202
:1040F00098BF02F1FF326262D4E7002294F83C508C
:10410000A3623046E262E2682261A2680132A260E4
:10411000336333685B699847002DCED194F83D3006
:10412000002BCBD184F83950C8E70125C9E700BF7F
:1041300070C0030852C9030811C2030894C30120C8
:10414000034B4FF080629A604FF080729A60704724
:1041500000E100E0084B4FF08062C3F88820BFF315
:104160004F8FBFF36F8F4FF08072C3F88820BFF37B
:104170004F8FBFF36F8F704700E100E038B5034603
:1041800090F8380038BB01229860D8609A634FF4E9
:10419000807258619A874FF4F0729861D861186202
:1041A00058629862D8621863586383F83E00CA86E2
:1041B0004FF4887281F834000A8708639A6C18619A
:1041C00002F5FF24D3E9101529448C420AD9084B83
:1041D0005821084A03E0084B40F2F511074A084805
:1041E00035F05EFE1A6302F57F329C645A6338BD77
:1041F000B0CC0308F0CC0308F6CA030826CB0308AA
:1042000011C20308002370B5124E05468380124B7D
:104210000360336893F85C200AB1186D00B99868A0
:1042200003681B6B98473368B0FA80F4186D640913
:1042300030B103681B6B9847002808BF44F00104A5
:104240002CB9064B2C21064A064835F029FE284693
:1042500070BD00BF94C3012098CF030896CE030819
:10426000F4CE03082DCF030870B5254E3568BFF393
:104270005B8F15F0010540D1304634F0EAFE00288E
:104280003BD0204C204B04F134002561E584A5622D
:10429000A585C4E90035C4E9025523F032FF04F1D5
:1042A00058001FF0A7FB194B2046A365184B40F898
:1042B000843BFFF7A7FF174B1748C4F8843024331B
:1042C000C4F89050C4F88C304FF4C803C4F89C5024
:1042D000C4F8A850C4E928350023C4F8AC30C4F8A9
:1042E000B030C4F8B430C4F8B8300C4BC4F89830CF
:1042F00035F0F4FD304634F0B8FE024870BD00BF22
:10430000E8730020EC73002094280408B8CF030859
:1043100030D0030848280408953D000828280408E0
:1043200038B5184C23685BB3174B184A1B6C1188BF
:104330008B4216D1164B0025198802F0D9FE23684E
:1043400093F86E2083F88050013283F86E20FEF7D8
:1043500075FD20681DF020FD2846BDE83840FEF7B9
:104360005FBB02F0C5FE2468236820461B6A98479D
:104370000123002084F88030BDE83840FEF780BB80
:1043800038BD00BF94C3012000680140E6730020DF
:10439000E47300202DE9F74304464FF4707894F855
:1043A0003A304FF0FF31002B31D0606D04F002FA4B
:1043B000276BA36ABB4200D1676B266A656856B358
:1043C0002B68314628465B6A98470023236284F8AD
:1043D0003B30606D04F01EFA2B684FF4F0723946E2
:1043E000CDF8008028465E694FF48873B0474FF0DF
:1043F000FF310646606D04F0DDF994F83B30E3B11F
:10440000002384F83B30606D04F004FAC7E7206DA8
:1044100004F084FAC3E7636A002BDAD02B682846DD
:10442000D3E909939847616A01442846C847A368BD
:10443000626A66621344A360CBE7E7625EB12B68F1
:1044400028469B6A984701380023E06084F83C6066
:1044500084F83A30D7E70120F6E70000014808B5B4
:10446000FFF798FFA87400200368042270B5044683
:104470005E6A00230D46B0474FF0FF31606D04F0D7
:1044800099F9382303FB0542D16A09B10021D162B1
:1044900003FB0545012385F83B30002385F83930BF
:1044A000606DBDE8704004F0B5B938B500EB81032C
:1044B00004460D46114658680368DB68984729464C
:1044C0002046FFF7D1FF38BD70B50D4611460446B2
:1044D00000EB85025068026896681A46B047294684
:1044E0002046FFF7C1FF70BD38B5164900251648B4
:1044F000FEF770FF154C164B01202A462946236013
:104500004FF48073A564A38784F84C0084F83E5070
:10451000C4E91055C4E91455C4E90155C4E903556B
:10452000C4E90555C4E90755C4E90955C4E90B5563
:10453000C4E90D5504F09AF92065284604F0F8F80E
:10454000606538BD4875002000750020A874002003
:104550007CD00308704710B50446042134F077FD81
:10456000204610BD012908B506D0022908D059B946
:1045700000F0EAFC006808BD00F0E6FC4068FAE7DD
:1045800000F0E2FC8068F6E70020F4E7004870479E
:10459000C8D003080120704713B5002451B1036847
:1045A00001AA01948DF803409C680DF10303A04714
:1045B00002B010BD0846FBE7C0897047008A70470B
:1045C000C088704780887047807A00F07F0070470D
:1045D000807AC00970470020704700009FED010AF3
:1045E000704700BF00000000704710B50446082166
:1045F00034F02DFD204610BD7047704700F59873CC
:104600000868496803C37047704770474160704746
:1046100070470000064BC0F84801C0F84C31002339
:10462000C0F8503100F5A273C0F84031704700BFA8
:10463000D54600080123037270477047704710B4D5
:1046400041680346C2689B68541001EB6200D207C0
:1046500048BF0A595DF8044B48BFD3581847034672
:10466000406830B19A681AB9D86800F00100704704
:104670000120704710B504460C2134F0E8FC2046B8
:1046800010BD10B50446102134F0E1FC204610BDE9
:1046900010B504464FF4AE7134F0D9FC204610BD7D
:1046A00010B522F02DF80368BDE81040DB6B184709
:1046B00010B50446D0F8400158B10368DB6898474C
:1046C00038B1D4F8400103689B6898470023C4F8C8
:1046D000403110BD2DE9F14FD0E9556A0746B06869
:1046E00003681B6A9847B0F59C7F05D2444BA32111
:1046F000444A454835F0D4FB706803681B6A984704
:104700000F2803D8414BA4213E4AF2E7F068036822
:104710001B6A98470B2803D83D4BA521394AE8E787
:10472000DFF8F49021F0ECFF043022F00EF8D9F815
:10473000000010B10368DB689847D9F8000010B199
:1047400003681B689847DFF8D480D8F8000010B1E0
:1047500003685B699847D7F83C0110B103685B6850
:104760009847D8F8000010B103681B689847D7F83D
:104770003C0110B103689B689847F06800214FF036
:10478000000B03685B6A9847224B0446C0F804B0EC
:1047900080F808B059460360B06803685B6A9847C0
:1047A000054600F05BFC7068594603685B6A9847F1
:1047B0000646294600F030FC331DC7F83C61284608
:1047C000C9F80040C8F80050CAF800302B68C6F895
:1047D00008A0DB68EE639847336830461B6898474B
:1047E0002146284624F0D7F8236820461B699847BD
:1047F000236820465B6901B0BDE8F04F184700BF51
:10480000ECD003087AD103084CD2030893D20308F2
:1048100036D3030850D40308DCC30120E0C30120D1
:10482000044B1B6893F85C200AB1186D00B99868B6
:10483000704700BF94C30120F8B5174604460E46E2
:1048400022F028F8124B00251C602946114B2360EA
:10485000114BC4E95135114B1868C4E9535503682D
:10486000C4E94F559B68C4E955769847284600F03F
:104870001FFBFFF7D5FF2CF0D0FCFFF7D1FF2CF08A
:1048800047FDFFF7CDFF2CF04FFD2046F8BD00BFE0
:10489000E4C30120FCD30308E4D3030894C301203C
:1048A000064BC0F84801C0F84C310023C0F8503125
:1048B00000F5A273C0F84031704700BFD54600082C
:1048C000406A7047806A704770470B888A889BB23D
:1048D000D20A10B54C88C16943EA044351F822005A
:1048E000184410BD10B50446BAB1107B68B1537BB3
:1048F000D27A1B0203F4E0631A43236A03EB8203B8
:104900001A888A4202D193F9020010BD05D80138F5
:10491000043380B20028F3D1F7E70020F5E710B5A3
:1049200004462C2134F093FB204610BD30B58BB0EB
:104930000446BDF860500895BDF85C5007959DF899
:10494000505006959DF84C5005959DF8485004959B
:104950009DF8445003959DF8405002959DF83C50B9
:104960000195BDF83850009523F088FC064B204691
:104970002360159BE361169B2362199B63621A9B5C
:10498000A3620BB030BD00BF74D4030870477047FA
:1049900070477047704730B585B0036804460181A1
:1049A0006D460146D3F884303C342846984795E854
:1049B000070084E8070005B030BD30B585B0036856
:1049C000044641816D460146D3F884303C34284684
:1049D000984795E8070084E8070005B030BD00223D
:1049E000028042808280C280704780F83610704713
:1049F000036870B504461B6B15469847236820462C
:104A000029465B6EBDE87040184700207047806CF7
:104A1000704770477047704710B504464C2134F01A
:104A200016FB204610BD10B504464FF49C7134F0BF
:104A30000EFB204610BD08B5FFF75EFA08BD00006A
:104A4000036870B55E6B0446114B8DB21B682BB9C1
:104A5000104B6C21104A114835F022FA1049828D12
:104A60000988914203D80F4B6D210B4AF3E713F8E5
:104A700012200D4B1B6853F8220003681B6B9847EC
:104A8000291A3346204609B2BDE87040184700BFD6
:104A9000F4C30120D4D4030816D5030851D5030864
:104AA000E8C3012098D50308ECC3012000224FF091
:104AB000FF318260C0E900217047036870B5044689
:104AC0001B6B154698472368204629465B6BBDE85B
:104AD000704018472DE9F043044687B023F0C0FD2D
:104AE000002526464F4BE563FF2246F8403B29460A
:104AF0004D4B3046DFF85C9104F1040884F86620E1
:104B00002A46256604F16C07A566C4F89490C4F89B
:104B10009C50A4F8A450C4F8A850C4E910354FF430
:104B20008073A4F86430A4F890304FF6FF73A4F8B3
:104B300098304FF47F03C4F8A0303C4BE3664FF04D
:104B4000FF33C4E91255C4E92B35C4E91455C4E94F
:104B50001655C4E91C55C4E91E55C4E92055C4E9DD
:104B60002255C4F8B450FFF7A8FF30464FF4F07157
:104B7000FFF7C0F830464FF48871FFF7BDF84FF0EB
:104B80007F4331464046A3666E461CF04CF84C22EB
:104B90006FF002013846FFF790FF254B304639464B
:104BA000C4F89C30E36EA4F8A050D3F88430984742
:104BB00004F1A80396E8070083E807001D4B04F101
:104BC000B8061B682BB91C4B60211C4A1C4835F0E9
:104BD00067F91C4B1B881BB91B4B6121174AF5E772
:104BE0001A4B2946186800F09FF9194A03464021DC
:104BF000304625F032F93846C4F8B4601EF0FEFFA6
:104C0000012304A93846ADF81430CDF810901FF0F8
:104C100015F8404639461CF006F8204607B0BDE8B6
:104C2000F08300BFBCD60308582904082CD603081B
:104C30000000FFFFF4C30120D4D40308D6D5030835
:104C400051D50308E8C3012098D50308F0C301201B
:104C500010EF0308E4D003087047000030B5164D8C
:104C60008FB02C68BFF35B8F14F0010420D128466D
:104C700034F0EFF9E0B13F23012210490993104BC2
:104C800010480893104B0A940594CDE90643042379
:104C9000CDE903320A23CDE90B440093CDE9014469
:104CA000FFF744FE094835F019F9284634F0DDF9DC
:104CB00004480FB030BD00BFC87C0020A011009098
:104CC00000340408CC7C0020B8340408594C000897
:104CD0007047000030B5174D8FB02C68BFF35B8F65
:104CE00014F0010422D1284634F0B3F9F0B13F2387
:104CF000302211490993114B11480893114B0A9422
:104D00000793012301940493CDE905430423CDE9DE
:104D100002431423CDE90B4400931823FFF706FE4A
:104D2000094835F0DBF8284634F09FF904480FB005
:104D300030BD00BFF87C0020B0110090043404089E
:104D4000FC7C0020BC340408D14C000870470000F3
:104D500030B5164D8FB02C68BFF35B8F14F0010493
:104D600020D1284634F075F9E0B13F2301221049E3
:104D70000993104B10480893104B0A940594CDE901
:104D800006430423CDE903322823CDE90B440093E5
:104D9000CDE90144FFF7CAFD094835F09FF82846E0
:104DA00034F063F904480FB030BD00BF287D002007
:104DB00050140090B43404082C7D0020C034040842
:104DC0004D4D000800207047002070470EB403B519
:104DD00003AB002153F8042B019322F0D7FC02B05F
:104DE0005DF804EB03B070470CB407B504AB53F89F
:104DF000042B019322F0CAFC03B05DF804EB02B06F
:104E000070470000436C10B5044673B3038F2BB991
:104E1000184BC521184A194835F042F8C38E00EBEB
:104E200043035B8C0BB324F0B6FA238F012B03D81A
:104E3000134BCB21134AEEE7E28E40F63F10531C92
:104E40009BB2092B194688BFA3F10A0104EB41016B
:104E5000498C814209D10A2B04EB420228BF00236E
:104E6000508C04EB4303588451842046BDE8104025
:104E700024F095B9E8D60308F1D603089CD70308B7
:104E8000E6D70308F4D7030824F051B910B586B06B
:104E900002AC84E806001A460AAB2146059301934A
:104EA000099B0093089B20F09FFF06B010BD0000F7
:104EB00038B518BB124B13481C681349B4B12268AB
:104EC00022440260626822440A60A26814440F4BC4
:104ED00000221A8000F038F8054600F033F80C4B39
:104EE0001C600C4B1D600C4B188007E00B4B0360E3
:104EF0000B4B0B600B4B1C68002CE8D138BD00BF7E
:104F0000647D00205C7D0020587D0020607D0020B5
:104F1000F4C30120ECC30120E8C301200800009085
:104F200000000090C8D80308044B1B6853F8210008
:104F3000034B1B6803EB4000704700BF587D002007
:104F40005C7D00200220704700487047687D00208B
:104F500010B5054CFFF7BEFE2060FFF7F9FE60605C
:104F6000FFF77CFEA06010BD687D002010B5002416
:104F700004600C6014601C6010BD704710B50446DE
:104F80004FF4AE7134F063F8204610BD10B50446FE
:104F9000D0F8580100F014F82046BDE8104021F088
:104FA00035BC000010B50446FFF746FC014B204617
:104FB000236010BDD4D803080022026070470000AF
:104FC000094B10B50446186890B058B100236946E3
:104FD0001A4603F0D5FD28B9206818B10368694660
:104FE0009B68984710B010BD9C140020704704388F
:104FF00070477047C0680368DB6A1847A0F1040077
:10500000FFF7F8BF10B50446102134F020F8204611
:1050100010BDA0F10400F5E70022C1608260024AE1
:1050200002601C324260704728D9030870470000B4
:10503000034B10B504460360FFF7EBFC204610BDA0
:1050400068D9030810B50446FFF7F2FF4FF49C71CE
:10505000204633F0FCFF204610BD000010B504468A
:10506000FFF738FD014B2046236010BD68D90308C7
:1050700010B50446FFF7CEFC4022054904F1B80004
:1050800024F061FB04F16C00BDE8104022F0A6BCE6
:1050900050D9030810B5044659B10B784BB14022E2
:1050A000B83024F050FB04F16C00BDE8104022F051
:1050B00095BC10BD30B570B1CC6864B18A6852B18E
:1050C0000B6943B10D6849688560C1608361C0E9BF
:1050D0000424002030BD4FF0FF30FBE773B5002300
:1050E000456804460193A5B9836803B19847202316
:1050F00000262360636901AA1221284698470028E8
:1051000009DB019B03F01F03AB4206D1256001239D
:105110006360002609E06FF004060135202DE9D117
:1051200023681F2B04D8002EF1D0304602B070BD8A
:105130006FF00206F9E737B500254369044601AA76
:105140000121006801959847A84203DA6FF0040036
:1051500003B030BD636901AA012120689847002887
:10516000F4DB019B5B072CD5636901AA2946206803
:1051700098470028EADB019BDD040ED403F40452B7
:10518000B2F5045F01D10220E2E7980401D50320C3
:10519000DEE7D90513D40520DAE7636901AA1F21E8
:1051A000206898470028D1DB019BDA040BD503F077
:1051B0001C03182BE7D0082BE9D0142BEBD10420CB
:1051C000C6E70120C4E70620C2E700000F4900201F
:1051D000D1F8883043F47003C1F888300C4B1A685A
:1051E00042F001021A6098601A6822F0847222F478
:1051F00080321A60074A5A601A6822F480221A60C4
:10520000D8604FF000638B60704700BF00ED00E096
:105210000038024010300024704700207047000022
:10522000002337B58DF807300C4B1A780AB90122E4
:105230001A700324C5B2013CA8212846FDF7D4FB0F
:1052400014F0FF048DF807009DF80730DBB201D0A1
:10525000512BF0D19DF8070003B030BD767D0020C2
:1052600013B500240221C0B28DF80740FDF7BCFB46
:105270008DF807009DF8073003F00F038DF8073015
:105280009DF80730052B01D98DF807409DF80720C0
:10529000034B9DF807005A7000229A7002B010BDAF
:1052A000767D00202DE9F74F2F4C15464FF0000872
:1052B0000F46A37862788DF807809A424DD9092B62
:1052C0004ED803EB43035B00DBB2191D03F1030B64
:1052D00003F1060A0533C9B25FFA8BFB5FFA8AFA5B
:1052E0005FFA83F8C6B2DFF884903046FDF77CFBA6
:1052F0008DF807009DF8073059463046A9F8003070
:10530000FDF772FB8DF8070051469DF807303046D7
:10531000B9F800201B0203F4706313433B80A9F823
:105320000030FDF761FB8DF8070041469DF807301E
:105330003046A9F80030FDF757FB8DF807009DF8BF
:105340000730B9F800201B0203F470631343A9F877
:1053500000302B80A3780133A37003B0BDE8F08F39
:10536000C246C3464146BDE7767D0020747D0020DD
:105370000122A421C0B2FDF71DBB0022A421C0B2AE
:10538000FDF718BBFFF7F9BF70470000024B1A7812
:105390000AB901221A707047767D0020074A03205F
:1053A00008B5136843F48073136000F02DF80020F3
:1053B000FCF762FEFCF728FC002008BD003C024020
:1053C000034A044B11681B780B441360704700BFFD
:1053D0007C7D002050000020014B1868704700BF02
:1053E0007C7D002038B50446FFF7F6FF0546631CB8
:1053F0001EBF044B1B78E418FFF7EEFF431BA342CC
:10540000FAD338BD5000002007490302CA6803F4EC
:10541000E06322F4E0621204120C134343F0BF6312
:1054200043F40033CB60704700ED00E0164B30B51D
:10543000DC68C4F30224C4F10703251D042B28BF34
:105440000423062D4FF0FF358CBF033C002405FAE2
:1054500003F3002805FA04F521EA030322EA050212
:1054600003FA04F343EA02034FEA0313DBB206DB59
:1054700000F1604000F5614080F8003330BD00F07D
:105480000F00024A1354F9E700ED00E014ED00E0CC
:10549000002807DB4109012300F01F00024A834076
:1054A00042F82130704700BF00E100E000280CDB2B
:1054B0004309012200F01F0004492033824041F8D3
:1054C0002320BFF34F8FBFF36F8F704700E100E0E1
:1054D000BFF35F8F044B5A6A22F480325A62002273
:1054E000C3F89420704700BF00ED00E0064B40F089
:1054F0000100C3F894005A6A42F480325A62BFF342
:105500004F8FBFF36F8F704700ED00E04378144A70
:10551000C2F89830D2F8A03023F00103C2F8A030CE
:105520004368C2F89C30C37A017B1B0643EA0173CF
:1055300001780B43817A43EAC143417B43EA8143CB
:10554000817B43EA4143C17B43EA0143417A43EA19
:105550000123017A43EA4103C2F8A030704700BF3B
:1055600000ED00E010B5044608B9012010BD437FEE
:1055700003F0FF0213B90277FCF764FB02236377A1
:105580002379E3B92368134A5A619A6822F0180212
:105590009A6062792368D2B94FF0FF321A61002015
:1055A0009A68616922F060020A43A1699A609A6868
:1055B00022F080020A439A6001236377D6E7D4E998
:1055C0000212204600F008F80028E2D0CDE7226958
:1055D000E4E700BFB71DC104CB0710B50DD51F23ED
:1055E000013B1DD321FA03F4E407F9D5102A13D0A7
:1055F000102A04D83AB1082A10D001200BE0182A4A
:10560000FBD1062BF9D800684161836823F01803A9
:1056100013438360002010BD072BF3E70F2BF1E746
:10562000102AE5D1E9E770B50446866DFFF7D4FE90
:10563000054694F83530022B06D08023012063659F
:10564000002384F8343070BD23681A6822F01602F3
:105650001A605A6922F080025A61226C0AB9A26C5F
:105660001AB11A6822F008021A601A6822F00102C0
:105670001A602368186810F0010007D1E26D3F231B
:105680009340B360012384F83530D9E7FFF7A4FED7
:10569000401B0528EDD920230320636584F83500DD
:1056A000CEE710B5044630B390F8393003F0FF026E
:1056B0001BB980F83820FCF7DBFA22680223616806
:1056C000002084F83930136823F440330B43A16879
:1056D0001360536B23F007030B43E1685363136CB0
:1056E00023F47F5323F03F030B4313640123E06350
:1056F00084F8393010BD0120FCE77047704703681B
:1057000070B55E6804461D68F20714D5E90512D528
:105710001A6822F480721A60C26B42F00102C263FE
:1057200001229A60042380F83930002380F8383051
:10573000436903B19847B20616D5AB0414D5236864
:105740001A6822F400521A6020229A60E36B43F038
:105750000203E363042384F83930002384F83830EB
:1057600063690BB120469847300716D5290514D533
:1057700023681A6822F400621A6008229A60E36BB8
:1057800043F00403E363042384F83930002384F8EE
:10579000383063690BB12046984772070BD56B050B
:1057A00009D5236820461A6822F480621A60042210
:1057B0009A60FFF7A2FFB00714D5A90512D5236898
:1057C0001A6822F400721A6002229A60E36BE363A3
:1057D000012384F83930002384F8383023690BB171
:1057E00020469847F20613D5EB0411D523682046CE
:1057F0001A6822F480521A6010229A60E36BE36305
:10580000012384F83930002384F83830FFF776FF1D
:1058100070BD0000F0B590F8382003460220012A40
:105820002BD0012283F839000E011C4F83F8382059
:1058300003EB0112D2E90740556A44EA0040093CF3
:10584000012C96BF05F07F4240EA056010431A68BC
:10585000A1B9516A012C01EA070141EA0001516234
:105860009969916103D8596A21F07F4191620122BF
:10587000002083F8392083F83800F0BDD169012C6D
:1058800001EA070141EA0001D16103EB06018969E0
:105890001161ECD825F07F451562E8E7F0FFFC00C8
:1058A0002DE9F043866A91468C6800EB8607BB6958
:1058B0001D68002D02DA0220BDE8F083FD6A002D8C
:1058C000F9D1256862689D605D68D1F800C025F453
:1058D000FF551CF0010F25F01F0545EA02055D602C
:1058E00005D01D684A6925F4400515431D601CF06C
:1058F000200F05D01D68096925F04065294319600E
:105900001CF0040F03D0196841F080011960196878
:105910000025DFF8F08041F0805119603146A4681D
:1059200005F1010E1CBB1A68B9F1000F66D042F0F8
:1059300080421A601A6842F000521A60BA69BFF3D6
:105940005F8F136843F00043136000EB8103C26B69
:10595000DA628162EFF31082012383F31088036C13
:1059600001332B44036482F310880020A4E71D68F0
:1059700025F000551D601D68B9F1000F23D045F0DA
:10598000804501F1010C1D60BCF1030F88BFA1F13E
:10599000030C00EB8C018B691D68002D16DAB969C8
:1059A0000022724587D0BFF35F8F0B68013223F06E
:1059B00000430B60731C032B88BFF31E00EB8301B5
:1059C0001E468969EDE725F08045DAE7C96A0029B6
:1059D000E5D11968656821F08051196021689960E6
:1059E000596801EA080129435960BFF35F8F1968BC
:1059F000754641F000411960614690E722F080420F
:105A000097E700BF00E0FFFF70B50D46026804464F
:105A1000AB68686911680343A8690343686A034374
:105A2000A87B43EA4063E87F43EA0043287F43EAD8
:105A30000033287943EA8023E87B43EAC01395F8D2
:105A4000280043EA00132A480840297CB1FA81F172
:105A500003430120490943EAC153697CB1FA81F14A
:105A6000490943EA8153A97FB1FA81F1490943EA1F
:105A7000413395F82010B1FA81F1490943EA4123F5
:105A800013601668FFF7AEFC2168A86C0E608A6987
:105A90002B6D22F0BE0243EA00431204120C1343A2
:105AA00095F84C20B2FA82F2520943EAC21395F8F3
:105AB0005520501E42424241012043EAC20395F85C
:105AC0005620561E7242724143EA820395F85420D2
:105AD00002F1FF3CDCF1000242EB0C0243EA42031C
